{
  "_format": "hh-sol-artifact-1",
  "contractName": "Verifier20",
  "sourceName": "@semaphore-protocol/contracts/verifiers/Verifier20.sol",
  "abi": [
    {
      "inputs": [],
      "name": "InvalidProof",
      "type": "error"
    },
    {
      "inputs": [
        {
          "internalType": "uint256[2]",
          "name": "a",
          "type": "uint256[2]"
        },
        {
          "internalType": "uint256[2][2]",
          "name": "b",
          "type": "uint256[2][2]"
        },
        {
          "internalType": "uint256[2]",
          "name": "c",
          "type": "uint256[2]"
        },
        {
          "internalType": "uint256[4]",
          "name": "input",
          "type": "uint256[4]"
        }
      ],
      "name": "verifyProof",
      "outputs": [],
      "stateMutability": "view",
      "type": "function"
    }
  ],
  "bytecode": "0x608060405234801561001057600080fd5b50611174806100206000396000f3fe608060405234801561001057600080fd5b506004361061002b5760003560e01c80635fe8c13b14610030575b600080fd5b61004361003e366004610fcb565b610045565b005b61004d610ddf565b6040805180820182528651815260208088015181830152908352815160808101835286515181840190815287518301516060830152815282518084018452878301805151825251830151818401528183015283820152815180830183528551815285820151918101919091529082015260006100c76103c0565b6080810151519091506100dc600460016110d5565b146100fa576040516309bde33960e01b815260040160405180910390fd5b60008160800151600081518110610113576101136110a9565b6020026020010151905061016581610160846080015160018151811061013b5761013b6110a9565b602002602001015187600060048110610156576101566110a9565b60200201516108c0565b610969565b90506101a0816101608460800151600281518110610185576101856110a9565b602002602001015187600160048110610156576101566110a9565b90506101db8161016084608001516003815181106101c0576101c06110a9565b602002602001015187600260048110610156576101566110a9565b90506102168161016084608001516004815181106101fb576101fb6110a9565b602002602001015187600360048110610156576101566110a9565b60408051600480825260a0820190925291925060009190816020015b604080518082019091526000808252602082015281526020019060019003908161023257505060408051600480825260a0820190925291925060009190602082015b61027c610e30565b815260200190600190039081610274575050855190915061029c906109d5565b826000815181106102af576102af6110a9565b60200260200101819052508460200151816000815181106102d2576102d26110a9565b60200260200101819052508360000151826001815181106102f5576102f56110a9565b6020026020010181905250836020015181600181518110610318576103186110a9565b60200260200101819052508282600281518110610337576103376110a9565b602002602001018190525083604001518160028151811061035a5761035a6110a9565b602002602001018190525084604001518260038151811061037d5761037d6110a9565b60200260200101819052508360600151816003815181106103a0576103a06110a9565b60200260200101819052506103b58282610ad7565b505050505050505050565b6103c8610e50565b6040805180820182527f2d4d9aa7e302d9df41749d5507949d05dbea33fbb16c643b22f599a2be6df2e281527f14bedd503c37ceb061d8ec60209fe345ce89830a19230301f076caff004d19266020808301919091529083528151608080820184527f0967032fcbf776d1afc985f88877f182d38480a653f2decaa9794cbc3bf3060c8285019081527f0e187847ad4c798374d0d6732bf501847dd68bc0e071241e0213bc7fc13db7ab606080850191909152908352845180860186527f304cfbd1e08a704a99f5e847d93f8c3caafddec46b7a0d379da69a4d112346a781527f1739c1b1a457a8c7313123d24d2f9192f896b7c63eea05a9d57f06547ad0cec8818601528385015285840192909252835180820185527f198e9393920d483a7260bfb731fb5d25f1aa493335a9e71297e485b7aef312c28186019081527f1800deef121f1e76426a00665e5c4479674322d4f75edadd46debd5cd992f6ed828501528152845180860186527f090689d0585ff075ec9e99ad690c3395bc4b313370b38ef355acdadcd122975b81527f12c85ea5db8c6deb4aab71808dcb408fe3d1e7690c43d37b4ce6cc0166fa7daa818601528185015285850152835190810184527f29f41c6e0e30802e2749bfb0729810876f3423e6f24829ad3e30adb1934f1c8a8185019081527f030e7a5f70bb5daa6e18d80d6d447e772efb0bb7fb9d0ffcd54fc5a48af1286d828401528152835180850185527f0ea726b117e48cda8bce2349405f006a84cdd3dcfba12efc990df25970a27b6d81527f30364cd4f8a293b1a04f0153548d3e01baad091c69097ca4e9f26be63e4095b58185015281840152908401528151600580825260c08201909352919082015b604080518082019091526000808252602082015281526020019060019003908161064357505060808201908152604080518082019091527f2c097b31a897227a6f64c9fc31d9a8fc421b0d8b8207f92532b464e431e61db881527f0fcf6d89d77d5123a43dfb23efb9c929c28c148ca82c794057864b8e66903c546020820152905180516000906106d6576106d66110a9565b602002602001018190525060405180604001604052807f0186dae5999acfe2cda6fa7a157ae726afda7c6f57b00ea0aa6c2c23bf83838881526020017f2f078608f710c45b60d23716c58e106d8c7a1c6db28119defffc413e074f8716815250816080015160018151811061074d5761074d6110a9565b602002602001018190525060405180604001604052807f2464c1784bda2cbfb51e5ab87cf7eb2764ad81f7038152bdbbb07d404b49aa3781526020017f0638b273e4ee33e03e42ca6c7de1ea7043dbdcaa48661864de644d91c6b4821f81525081608001516002815181106107c4576107c46110a9565b602002602001018190525060405180604001604052807f098ce8b5289ef791db34b68b9e0043ab7bf25306d83a9f0ce74396b8a69c57bb81526020017f1ec6f7a81748f3d2c2b87610d747ca72045ac1530e226f00710630d41aad7e26815250816080015160038151811061083b5761083b6110a9565b602002602001018190525060405180604001604052807f07dbf682cc528d3ff763fa576d05db50e023921728119ef66f880b6adae01cbe81526020017f0d287dcd9318207576eaa871e7b3308f613d9df7865059cdbc9f66fdef342dc681525081608001516004815181106108b2576108b26110a9565b602002602001018190525090565b60408051808201909152600080825260208201527f30644e72e131a029b85045b68181585d2833e84879b9709143e1f593f00000018210610914576040516309bde33960e01b815260040160405180910390fd5b61091c610ea1565b835181526020808501519082015260408101839052600060608360808460076107d05a03fa905080610961576040516309bde33960e01b815260040160405180910390fd5b505092915050565b6040805180820190915260008082526020820152610985610ebf565b8351815260208085015181830152835160408301528301516060808301919091526000908360c08460066107d05a03fa905080610961576040516309bde33960e01b815260040160405180910390fd5b604080518082019091526000808252602082015281511580156109fa57506020820151155b15610a18575050604080518082019091526000808252602082015290565b81517f30644e72e131a029b85045b68181585d97816a916871ca8d3c208c16d87cfd47111580610a6c57507f30644e72e131a029b85045b68181585d97816a916871ca8d3c208c16d87cfd47826020015110155b15610a8a576040516309bde33960e01b815260040160405180910390fd5b60405180604001604052808360000151815260200183602001517f30644e72e131a029b85045b68181585d97816a916871ca8d3c208c16d87cfd47610acf91906110ed565b905292915050565b8051825114610af9576040516309bde33960e01b815260040160405180910390fd5b81516000610b08826006611104565b905060008167ffffffffffffffff811115610b2557610b25610f19565b604051908082528060200260200182016040528015610b4e578160200160208202803683370190505b50905060005b83811015610d8957858181518110610b6e57610b6e6110a9565b60200260200101516000015182826006610b889190611104565b610b939060006110d5565b81518110610ba357610ba36110a9565b602002602001018181525050858181518110610bc157610bc16110a9565b60200260200101516020015182826006610bdb9190611104565b610be69060016110d5565b81518110610bf657610bf66110a9565b602002602001018181525050848181518110610c1457610c146110a9565b6020908102919091010151515182610c2d836006611104565b610c389060026110d5565b81518110610c4857610c486110a9565b602002602001018181525050848181518110610c6657610c666110a9565b60209081029190910181015151015182610c81836006611104565b610c8c9060036110d5565b81518110610c9c57610c9c6110a9565b602002602001018181525050848181518110610cba57610cba6110a9565b602002602001015160200151600060028110610cd857610cd86110a9565b602002015182610ce9836006611104565b610cf49060046110d5565b81518110610d0457610d046110a9565b602002602001018181525050848181518110610d2257610d226110a9565b602002602001015160200151600160028110610d4057610d406110a9565b602002015182610d51836006611104565b610d5c9060056110d5565b81518110610d6c57610d6c6110a9565b602090810291909101015280610d8181611123565b915050610b54565b50610d92610edd565b6000602082602086026020860160086107d05a03fa9050801580610db857508151600114155b15610dd6576040516309bde33960e01b815260040160405180910390fd5b50505050505050565b6040805160a081019091526000606082018181526080830191909152815260208101610e09610e30565b8152602001610e2b604051806040016040528060008152602001600081525090565b905290565b6040518060400160405280610e43610efb565b8152602001610e2b610efb565b6040805160e08101909152600060a0820181815260c0830191909152815260208101610e7a610e30565b8152602001610e87610e30565b8152602001610e94610e30565b8152602001606081525090565b60405180606001604052806003906020820280368337509192915050565b60405180608001604052806004906020820280368337509192915050565b60405180602001604052806001906020820280368337509192915050565b60405180604001604052806002906020820280368337509192915050565b634e487b7160e01b600052604160045260246000fd5b6040805190810167ffffffffffffffff81118282101715610f5257610f52610f19565b60405290565b6040516080810167ffffffffffffffff81118282101715610f5257610f52610f19565b600082601f830112610f8c57600080fd5b610f94610f2f565b806040840185811115610fa657600080fd5b845b81811015610fc0578035845260209384019301610fa8565b509095945050505050565b600080600080610180808688031215610fe357600080fd5b610fed8787610f7b565b9450604087605f88011261100057600080fd5b611008610f2f565b8060c089018a81111561101a57600080fd5b838a015b8181101561103f576110308c82610f7b565b8452602090930192840161101e565b5081975061104d8b82610f7b565b9650505050508661011f87011261106357600080fd5b61106b610f58565b90860190808883111561107d57600080fd5b61010088015b8381101561109b578035835260209283019201611083565b509598949750929550505050565b634e487b7160e01b600052603260045260246000fd5b634e487b7160e01b600052601160045260246000fd5b600082198211156110e8576110e86110bf565b500190565b6000828210156110ff576110ff6110bf565b500390565b600081600019048311821515161561111e5761111e6110bf565b500290565b6000600019821415611137576111376110bf565b506001019056fea2646970667358221220c23c6f1bbb66fcd4b70f5a7fcbae9cac6794dd0292911fbfe1fe3e51f1a3eee064736f6c63430008090033",
  "linkReferences": {},
  "deployedLinkReferences": {}
}