{
  "_format": "hh-sol-artifact-1",
  "contractName": "DosaConsumable",
  "sourceName": "contracts/DosaConsumable.sol",
  "abi": [
    {
      "inputs": [],
      "stateMutability": "nonpayable",
      "type": "constructor"
    },
    {
      "anonymous": false,
      "inputs": [
        {
          "indexed": true,
          "internalType": "address",
          "name": "account",
          "type": "address"
        },
        {
          "indexed": true,
          "internalType": "address",
          "name": "operator",
          "type": "address"
        },
        {
          "indexed": false,
          "internalType": "bool",
          "name": "approved",
          "type": "bool"
        }
      ],
      "name": "ApprovalForAll",
      "type": "event"
    },
    {
      "anonymous": false,
      "inputs": [
        {
          "indexed": true,
          "internalType": "address",
          "name": "previousOwner",
          "type": "address"
        },
        {
          "indexed": true,
          "internalType": "address",
          "name": "newOwner",
          "type": "address"
        }
      ],
      "name": "OwnershipTransferred",
      "type": "event"
    },
    {
      "anonymous": false,
      "inputs": [
        {
          "indexed": true,
          "internalType": "address",
          "name": "operator",
          "type": "address"
        },
        {
          "indexed": true,
          "internalType": "address",
          "name": "from",
          "type": "address"
        },
        {
          "indexed": true,
          "internalType": "address",
          "name": "to",
          "type": "address"
        },
        {
          "indexed": false,
          "internalType": "uint256[]",
          "name": "ids",
          "type": "uint256[]"
        },
        {
          "indexed": false,
          "internalType": "uint256[]",
          "name": "values",
          "type": "uint256[]"
        }
      ],
      "name": "TransferBatch",
      "type": "event"
    },
    {
      "anonymous": false,
      "inputs": [
        {
          "indexed": true,
          "internalType": "address",
          "name": "operator",
          "type": "address"
        },
        {
          "indexed": true,
          "internalType": "address",
          "name": "from",
          "type": "address"
        },
        {
          "indexed": true,
          "internalType": "address",
          "name": "to",
          "type": "address"
        },
        {
          "indexed": false,
          "internalType": "uint256",
          "name": "id",
          "type": "uint256"
        },
        {
          "indexed": false,
          "internalType": "uint256",
          "name": "value",
          "type": "uint256"
        }
      ],
      "name": "TransferSingle",
      "type": "event"
    },
    {
      "anonymous": false,
      "inputs": [
        {
          "indexed": false,
          "internalType": "string",
          "name": "value",
          "type": "string"
        },
        {
          "indexed": true,
          "internalType": "uint256",
          "name": "id",
          "type": "uint256"
        }
      ],
      "name": "URI",
      "type": "event"
    },
    {
      "inputs": [
        {
          "internalType": "address",
          "name": "account",
          "type": "address"
        },
        {
          "internalType": "uint256",
          "name": "id",
          "type": "uint256"
        }
      ],
      "name": "balanceOf",
      "outputs": [
        {
          "internalType": "uint256",
          "name": "",
          "type": "uint256"
        }
      ],
      "stateMutability": "view",
      "type": "function"
    },
    {
      "inputs": [
        {
          "internalType": "address[]",
          "name": "accounts",
          "type": "address[]"
        },
        {
          "internalType": "uint256[]",
          "name": "ids",
          "type": "uint256[]"
        }
      ],
      "name": "balanceOfBatch",
      "outputs": [
        {
          "internalType": "uint256[]",
          "name": "",
          "type": "uint256[]"
        }
      ],
      "stateMutability": "view",
      "type": "function"
    },
    {
      "inputs": [
        {
          "internalType": "address",
          "name": "account",
          "type": "address"
        },
        {
          "internalType": "uint256",
          "name": "id",
          "type": "uint256"
        },
        {
          "internalType": "uint256",
          "name": "value",
          "type": "uint256"
        }
      ],
      "name": "burn",
      "outputs": [],
      "stateMutability": "nonpayable",
      "type": "function"
    },
    {
      "inputs": [
        {
          "internalType": "address",
          "name": "account",
          "type": "address"
        },
        {
          "internalType": "uint256[]",
          "name": "ids",
          "type": "uint256[]"
        },
        {
          "internalType": "uint256[]",
          "name": "values",
          "type": "uint256[]"
        }
      ],
      "name": "burnBatch",
      "outputs": [],
      "stateMutability": "nonpayable",
      "type": "function"
    },
    {
      "inputs": [
        {
          "internalType": "uint256",
          "name": "id",
          "type": "uint256"
        }
      ],
      "name": "exists",
      "outputs": [
        {
          "internalType": "bool",
          "name": "",
          "type": "bool"
        }
      ],
      "stateMutability": "view",
      "type": "function"
    },
    {
      "inputs": [
        {
          "internalType": "address",
          "name": "account",
          "type": "address"
        },
        {
          "internalType": "address",
          "name": "operator",
          "type": "address"
        }
      ],
      "name": "isApprovedForAll",
      "outputs": [
        {
          "internalType": "bool",
          "name": "",
          "type": "bool"
        }
      ],
      "stateMutability": "view",
      "type": "function"
    },
    {
      "inputs": [
        {
          "internalType": "address",
          "name": "account",
          "type": "address"
        },
        {
          "internalType": "uint256",
          "name": "id",
          "type": "uint256"
        },
        {
          "internalType": "uint256",
          "name": "amount",
          "type": "uint256"
        },
        {
          "internalType": "bytes",
          "name": "data",
          "type": "bytes"
        }
      ],
      "name": "mint",
      "outputs": [],
      "stateMutability": "nonpayable",
      "type": "function"
    },
    {
      "inputs": [
        {
          "internalType": "address",
          "name": "to",
          "type": "address"
        },
        {
          "internalType": "uint256[]",
          "name": "ids",
          "type": "uint256[]"
        },
        {
          "internalType": "uint256[]",
          "name": "amounts",
          "type": "uint256[]"
        },
        {
          "internalType": "bytes",
          "name": "data",
          "type": "bytes"
        }
      ],
      "name": "mintBatch",
      "outputs": [],
      "stateMutability": "nonpayable",
      "type": "function"
    },
    {
      "inputs": [],
      "name": "owner",
      "outputs": [
        {
          "internalType": "address",
          "name": "",
          "type": "address"
        }
      ],
      "stateMutability": "view",
      "type": "function"
    },
    {
      "inputs": [],
      "name": "renounceOwnership",
      "outputs": [],
      "stateMutability": "nonpayable",
      "type": "function"
    },
    {
      "inputs": [
        {
          "internalType": "address",
          "name": "from",
          "type": "address"
        },
        {
          "internalType": "address",
          "name": "to",
          "type": "address"
        },
        {
          "internalType": "uint256[]",
          "name": "ids",
          "type": "uint256[]"
        },
        {
          "internalType": "uint256[]",
          "name": "amounts",
          "type": "uint256[]"
        },
        {
          "internalType": "bytes",
          "name": "data",
          "type": "bytes"
        }
      ],
      "name": "safeBatchTransferFrom",
      "outputs": [],
      "stateMutability": "nonpayable",
      "type": "function"
    },
    {
      "inputs": [
        {
          "internalType": "address",
          "name": "from",
          "type": "address"
        },
        {
          "internalType": "address",
          "name": "to",
          "type": "address"
        },
        {
          "internalType": "uint256",
          "name": "id",
          "type": "uint256"
        },
        {
          "internalType": "uint256",
          "name": "amount",
          "type": "uint256"
        },
        {
          "internalType": "bytes",
          "name": "data",
          "type": "bytes"
        }
      ],
      "name": "safeTransferFrom",
      "outputs": [],
      "stateMutability": "nonpayable",
      "type": "function"
    },
    {
      "inputs": [
        {
          "internalType": "address",
          "name": "operator",
          "type": "address"
        },
        {
          "internalType": "bool",
          "name": "approved",
          "type": "bool"
        }
      ],
      "name": "setApprovalForAll",
      "outputs": [],
      "stateMutability": "nonpayable",
      "type": "function"
    },
    {
      "inputs": [
        {
          "internalType": "string",
          "name": "newuri",
          "type": "string"
        }
      ],
      "name": "setURI",
      "outputs": [],
      "stateMutability": "nonpayable",
      "type": "function"
    },
    {
      "inputs": [
        {
          "internalType": "bytes4",
          "name": "interfaceId",
          "type": "bytes4"
        }
      ],
      "name": "supportsInterface",
      "outputs": [
        {
          "internalType": "bool",
          "name": "",
          "type": "bool"
        }
      ],
      "stateMutability": "view",
      "type": "function"
    },
    {
      "inputs": [
        {
          "internalType": "uint256",
          "name": "id",
          "type": "uint256"
        }
      ],
      "name": "totalSupply",
      "outputs": [
        {
          "internalType": "uint256",
          "name": "",
          "type": "uint256"
        }
      ],
      "stateMutability": "view",
      "type": "function"
    },
    {
      "inputs": [
        {
          "internalType": "address",
          "name": "newOwner",
          "type": "address"
        }
      ],
      "name": "transferOwnership",
      "outputs": [],
      "stateMutability": "nonpayable",
      "type": "function"
    },
    {
      "inputs": [
        {
          "internalType": "uint256",
          "name": "",
          "type": "uint256"
        }
      ],
      "name": "uri",
      "outputs": [
        {
          "internalType": "string",
          "name": "",
          "type": "string"
        }
      ],
      "stateMutability": "view",
      "type": "function"
    }
  ],
  "bytecode": "0x60806040523480156200001157600080fd5b506040805160208101909152600081526200002c816200003e565b50620000383362000057565b6200018c565b805162000053906002906020840190620000a9565b5050565b600380546001600160a01b038381166001600160a01b0319831681179093556040519116919082907f8be0079c531659141344cd1fd0a4f28419497f9722a3daafe3b4186f6b6457e090600090a35050565b828054620000b7906200014f565b90600052602060002090601f016020900481019282620000db576000855562000126565b82601f10620000f657805160ff191683800117855562000126565b8280016001018555821562000126579182015b828111156200012657825182559160200191906001019062000109565b506200013492915062000138565b5090565b5b8082111562000134576000815560010162000139565b600181811c908216806200016457607f821691505b602082108114156200018657634e487b7160e01b600052602260045260246000fd5b50919050565b612128806200019c6000396000f3fe608060405234801561001057600080fd5b50600436106101155760003560e01c8063715018a6116100a2578063bd85b03911610071578063bd85b0391461025c578063e985e9c51461027c578063f242432a146102b8578063f2fde38b146102cb578063f5298aca146102de57600080fd5b8063715018a614610213578063731133e91461021b5780638da5cb5b1461022e578063a22cb4651461024957600080fd5b80631f7fdffa116100e95780631f7fdffa146101985780632eb2c2d6146101ab5780634e1273f4146101be5780634f558e79146101de5780636b20c4541461020057600080fd5b8062fdd58e1461011a57806301ffc9a71461014057806302fe5305146101635780630e89341c14610178575b600080fd5b61012d6101283660046115c3565b6102f1565b6040519081526020015b60405180910390f35b61015361014e366004611603565b610387565b6040519015158152602001610137565b6101766101713660046116c8565b6103d9565b005b61018b610186366004611719565b6103ed565b604051610137919061177f565b6101766101a6366004611847565b610481565b6101766101b93660046118e0565b61049b565b6101d16101cc36600461198a565b6104e7565b6040516101379190611a90565b6101536101ec366004611719565b600090815260046020526040902054151590565b61017661020e366004611aa3565b610611565b610176610659565b610176610229366004611b17565b61066d565b6003546040516001600160a01b039091168152602001610137565b610176610257366004611b6c565b610681565b61012d61026a366004611719565b60009081526004602052604090205490565b61015361028a366004611ba8565b6001600160a01b03918216600090815260016020908152604080832093909416825291909152205460ff1690565b6101766102c6366004611bdb565b610690565b6101766102d9366004611c40565b6106d5565b6101766102ec366004611c5b565b61074b565b60006001600160a01b0383166103615760405162461bcd60e51b815260206004820152602a60248201527f455243313135353a2061646472657373207a65726f206973206e6f742061207660448201526930b634b21037bbb732b960b11b60648201526084015b60405180910390fd5b506000908152602081815260408083206001600160a01b03949094168352929052205490565b60006001600160e01b03198216636cdb3d1360e11b14806103b857506001600160e01b031982166303a24d0760e21b145b806103d357506301ffc9a760e01b6001600160e01b03198316145b92915050565b6103e161078e565b6103ea816107e8565b50565b6060600280546103fc90611c8e565b80601f016020809104026020016040519081016040528092919081815260200182805461042890611c8e565b80156104755780601f1061044a57610100808354040283529160200191610475565b820191906000526020600020905b81548152906001019060200180831161045857829003601f168201915b50505050509050919050565b61048961078e565b610495848484846107fb565b50505050565b6001600160a01b0385163314806104b757506104b7853361028a565b6104d35760405162461bcd60e51b815260040161035890611cc9565b6104e08585858585610955565b5050505050565b6060815183511461054c5760405162461bcd60e51b815260206004820152602960248201527f455243313135353a206163636f756e747320616e6420696473206c656e677468604482015268040dad2e6dac2e8c6d60bb1b6064820152608401610358565b6000835167ffffffffffffffff81111561056857610568611627565b604051908082528060200260200182016040528015610591578160200160208202803683370190505b50905060005b8451811015610609576105dc8582815181106105b5576105b5611d18565b60200260200101518583815181106105cf576105cf611d18565b60200260200101516102f1565b8282815181106105ee576105ee611d18565b602090810291909101015261060281611d44565b9050610597565b509392505050565b6001600160a01b03831633148061062d575061062d833361028a565b6106495760405162461bcd60e51b815260040161035890611cc9565b610654838383610aff565b505050565b61066161078e565b61066b6000610c9b565b565b61067561078e565b61049584848484610ced565b61068c338383610dd6565b5050565b6001600160a01b0385163314806106ac57506106ac853361028a565b6106c85760405162461bcd60e51b815260040161035890611cc9565b6104e08585858585610eb7565b6106dd61078e565b6001600160a01b0381166107425760405162461bcd60e51b815260206004820152602660248201527f4f776e61626c653a206e6577206f776e657220697320746865207a65726f206160448201526564647265737360d01b6064820152608401610358565b6103ea81610c9b565b6001600160a01b0383163314806107675750610767833361028a565b6107835760405162461bcd60e51b815260040161035890611cc9565b610654838383610fef565b6003546001600160a01b0316331461066b5760405162461bcd60e51b815260206004820181905260248201527f4f776e61626c653a2063616c6c6572206973206e6f7420746865206f776e65726044820152606401610358565b805161068c90600290602084019061150e565b6001600160a01b0384166108215760405162461bcd60e51b815260040161035890611d5f565b81518351146108425760405162461bcd60e51b815260040161035890611da0565b3361085281600087878787611107565b60005b84518110156108ed5783818151811061087057610870611d18565b602002602001015160008087848151811061088d5761088d611d18565b602002602001015181526020019081526020016000206000886001600160a01b03166001600160a01b0316815260200190815260200160002060008282546108d59190611de8565b909155508190506108e581611d44565b915050610855565b50846001600160a01b031660006001600160a01b0316826001600160a01b03167f4a39dc06d4c0dbc64b70af90fd698a233a518aa5d07e595d983b8c0526c8f7fb878760405161093e929190611e00565b60405180910390a46104e081600087878787611115565b81518351146109765760405162461bcd60e51b815260040161035890611da0565b6001600160a01b03841661099c5760405162461bcd60e51b815260040161035890611e2e565b336109ab818787878787611107565b60005b8451811015610a915760008582815181106109cb576109cb611d18565b6020026020010151905060008583815181106109e9576109e9611d18565b602090810291909101810151600084815280835260408082206001600160a01b038e168352909352919091205490915081811015610a395760405162461bcd60e51b815260040161035890611e73565b6000838152602081815260408083206001600160a01b038e8116855292528083208585039055908b16825281208054849290610a76908490611de8565b9250508190555050505080610a8a90611d44565b90506109ae565b50846001600160a01b0316866001600160a01b0316826001600160a01b03167f4a39dc06d4c0dbc64b70af90fd698a233a518aa5d07e595d983b8c0526c8f7fb8787604051610ae1929190611e00565b60405180910390a4610af7818787878787611115565b505050505050565b6001600160a01b038316610b255760405162461bcd60e51b815260040161035890611ebd565b8051825114610b465760405162461bcd60e51b815260040161035890611da0565b6000339050610b6981856000868660405180602001604052806000815250611107565b60005b8351811015610c2e576000848281518110610b8957610b89611d18565b602002602001015190506000848381518110610ba757610ba7611d18565b602090810291909101810151600084815280835260408082206001600160a01b038c168352909352919091205490915081811015610bf75760405162461bcd60e51b815260040161035890611f00565b6000928352602083815260408085206001600160a01b038b1686529091529092209103905580610c2681611d44565b915050610b6c565b5060006001600160a01b0316846001600160a01b0316826001600160a01b03167f4a39dc06d4c0dbc64b70af90fd698a233a518aa5d07e595d983b8c0526c8f7fb8686604051610c7f929190611e00565b60405180910390a4604080516020810190915260009052610495565b600380546001600160a01b038381166001600160a01b0319831681179093556040519116919082907f8be0079c531659141344cd1fd0a4f28419497f9722a3daafe3b4186f6b6457e090600090a35050565b6001600160a01b038416610d135760405162461bcd60e51b815260040161035890611d5f565b336000610d1f85611280565b90506000610d2c85611280565b9050610d3d83600089858589611107565b6000868152602081815260408083206001600160a01b038b16845290915281208054879290610d6d908490611de8565b909155505060408051878152602081018790526001600160a01b03808a1692600092918716917fc3d58168c5ae7397731d063d5bbf3d657854427343f4c083240f7aacaa2d0f62910160405180910390a4610dcd836000898989896112cb565b50505050505050565b816001600160a01b0316836001600160a01b03161415610e4a5760405162461bcd60e51b815260206004820152602960248201527f455243313135353a2073657474696e6720617070726f76616c20737461747573604482015268103337b91039b2b63360b91b6064820152608401610358565b6001600160a01b03838116600081815260016020908152604080832094871680845294825291829020805460ff191686151590811790915591519182527f17307eab39ab6107e8899845ad3d59bd9653f200f220920489ca2b5937696c31910160405180910390a3505050565b6001600160a01b038416610edd5760405162461bcd60e51b815260040161035890611e2e565b336000610ee985611280565b90506000610ef685611280565b9050610f06838989858589611107565b6000868152602081815260408083206001600160a01b038c16845290915290205485811015610f475760405162461bcd60e51b815260040161035890611e73565b6000878152602081815260408083206001600160a01b038d8116855292528083208985039055908a16825281208054889290610f84908490611de8565b909155505060408051888152602081018890526001600160a01b03808b16928c821692918816917fc3d58168c5ae7397731d063d5bbf3d657854427343f4c083240f7aacaa2d0f62910160405180910390a4610fe4848a8a8a8a8a6112cb565b505050505050505050565b6001600160a01b0383166110155760405162461bcd60e51b815260040161035890611ebd565b33600061102184611280565b9050600061102e84611280565b905061104e83876000858560405180602001604052806000815250611107565b6000858152602081815260408083206001600160a01b038a1684529091529020548481101561108f5760405162461bcd60e51b815260040161035890611f00565b6000868152602081815260408083206001600160a01b038b81168086529184528285208a8703905582518b81529384018a90529092908816917fc3d58168c5ae7397731d063d5bbf3d657854427343f4c083240f7aacaa2d0f62910160405180910390a4604080516020810190915260009052610dcd565b610af7868686868686611395565b6001600160a01b0384163b15610af75760405163bc197c8160e01b81526001600160a01b0385169063bc197c81906111599089908990889088908890600401611f44565b602060405180830381600087803b15801561117357600080fd5b505af19250505080156111a3575060408051601f3d908101601f191682019092526111a091810190611fa2565b60015b611250576111af611fbf565b806308c379a014156111e957506111c4611fdb565b806111cf57506111eb565b8060405162461bcd60e51b8152600401610358919061177f565b505b60405162461bcd60e51b815260206004820152603460248201527f455243313135353a207472616e7366657220746f206e6f6e20455243313135356044820152732932b1b2b4bb32b91034b6b83632b6b2b73a32b960611b6064820152608401610358565b6001600160e01b0319811663bc197c8160e01b14610dcd5760405162461bcd60e51b815260040161035890612065565b604080516001808252818301909252606091600091906020808301908036833701905050905082816000815181106112ba576112ba611d18565b602090810291909101015292915050565b6001600160a01b0384163b15610af75760405163f23a6e6160e01b81526001600160a01b0385169063f23a6e619061130f90899089908890889088906004016120ad565b602060405180830381600087803b15801561132957600080fd5b505af1925050508015611359575060408051601f3d908101601f1916820190925261135691810190611fa2565b60015b611365576111af611fbf565b6001600160e01b0319811663f23a6e6160e01b14610dcd5760405162461bcd60e51b815260040161035890612065565b6001600160a01b03851661141c5760005b835181101561141a578281815181106113c1576113c1611d18565b6020026020010151600460008684815181106113df576113df611d18565b6020026020010151815260200190815260200160002060008282546114049190611de8565b90915550611413905081611d44565b90506113a6565b505b6001600160a01b038416610af75760005b8351811015610dcd57600084828151811061144a5761144a611d18565b60200260200101519050600084838151811061146857611468611d18565b60200260200101519050600060046000848152602001908152602001600020549050818110156114eb5760405162461bcd60e51b815260206004820152602860248201527f455243313135353a206275726e20616d6f756e74206578636565647320746f74604482015267616c537570706c7960c01b6064820152608401610358565b6000928352600460205260409092209103905561150781611d44565b905061142d565b82805461151a90611c8e565b90600052602060002090601f01602090048101928261153c5760008555611582565b82601f1061155557805160ff1916838001178555611582565b82800160010185558215611582579182015b82811115611582578251825591602001919060010190611567565b5061158e929150611592565b5090565b5b8082111561158e5760008155600101611593565b80356001600160a01b03811681146115be57600080fd5b919050565b600080604083850312156115d657600080fd5b6115df836115a7565b946020939093013593505050565b6001600160e01b0319811681146103ea57600080fd5b60006020828403121561161557600080fd5b8135611620816115ed565b9392505050565b634e487b7160e01b600052604160045260246000fd5b601f8201601f1916810167ffffffffffffffff8111828210171561166357611663611627565b6040525050565b600067ffffffffffffffff83111561168457611684611627565b60405161169b601f8501601f19166020018261163d565b8091508381528484840111156116b057600080fd5b83836020830137600060208583010152509392505050565b6000602082840312156116da57600080fd5b813567ffffffffffffffff8111156116f157600080fd5b8201601f8101841361170257600080fd5b6117118482356020840161166a565b949350505050565b60006020828403121561172b57600080fd5b5035919050565b6000815180845260005b818110156117585760208185018101518683018201520161173c565b8181111561176a576000602083870101525b50601f01601f19169290920160200192915050565b6020815260006116206020830184611732565b600067ffffffffffffffff8211156117ac576117ac611627565b5060051b60200190565b600082601f8301126117c757600080fd5b813560206117d482611792565b6040516117e1828261163d565b83815260059390931b850182019282810191508684111561180157600080fd5b8286015b8481101561181c5780358352918301918301611805565b509695505050505050565b600082601f83011261183857600080fd5b6116208383356020850161166a565b6000806000806080858703121561185d57600080fd5b611866856115a7565b9350602085013567ffffffffffffffff8082111561188357600080fd5b61188f888389016117b6565b945060408701359150808211156118a557600080fd5b6118b1888389016117b6565b935060608701359150808211156118c757600080fd5b506118d487828801611827565b91505092959194509250565b600080600080600060a086880312156118f857600080fd5b611901866115a7565b945061190f602087016115a7565b9350604086013567ffffffffffffffff8082111561192c57600080fd5b61193889838a016117b6565b9450606088013591508082111561194e57600080fd5b61195a89838a016117b6565b9350608088013591508082111561197057600080fd5b5061197d88828901611827565b9150509295509295909350565b6000806040838503121561199d57600080fd5b823567ffffffffffffffff808211156119b557600080fd5b818501915085601f8301126119c957600080fd5b813560206119d682611792565b6040516119e3828261163d565b83815260059390931b8501820192828101915089841115611a0357600080fd5b948201945b83861015611a2857611a19866115a7565b82529482019490820190611a08565b96505086013592505080821115611a3e57600080fd5b50611a4b858286016117b6565b9150509250929050565b600081518084526020808501945080840160005b83811015611a8557815187529582019590820190600101611a69565b509495945050505050565b6020815260006116206020830184611a55565b600080600060608486031215611ab857600080fd5b611ac1846115a7565b9250602084013567ffffffffffffffff80821115611ade57600080fd5b611aea878388016117b6565b93506040860135915080821115611b0057600080fd5b50611b0d868287016117b6565b9150509250925092565b60008060008060808587031215611b2d57600080fd5b611b36856115a7565b93506020850135925060408501359150606085013567ffffffffffffffff811115611b6057600080fd5b6118d487828801611827565b60008060408385031215611b7f57600080fd5b611b88836115a7565b915060208301358015158114611b9d57600080fd5b809150509250929050565b60008060408385031215611bbb57600080fd5b611bc4836115a7565b9150611bd2602084016115a7565b90509250929050565b600080600080600060a08688031215611bf357600080fd5b611bfc866115a7565b9450611c0a602087016115a7565b93506040860135925060608601359150608086013567ffffffffffffffff811115611c3457600080fd5b61197d88828901611827565b600060208284031215611c5257600080fd5b611620826115a7565b600080600060608486031215611c7057600080fd5b611c79846115a7565b95602085013595506040909401359392505050565b600181811c90821680611ca257607f821691505b60208210811415611cc357634e487b7160e01b600052602260045260246000fd5b50919050565b6020808252602f908201527f455243313135353a2063616c6c6572206973206e6f7420746f6b656e206f776e60408201526e195c881b9bdc88185c1c1c9bdd9959608a1b606082015260800190565b634e487b7160e01b600052603260045260246000fd5b634e487b7160e01b600052601160045260246000fd5b6000600019821415611d5857611d58611d2e565b5060010190565b60208082526021908201527f455243313135353a206d696e7420746f20746865207a65726f206164647265736040820152607360f81b606082015260800190565b60208082526028908201527f455243313135353a2069647320616e6420616d6f756e7473206c656e677468206040820152670dad2e6dac2e8c6d60c31b606082015260800190565b60008219821115611dfb57611dfb611d2e565b500190565b604081526000611e136040830185611a55565b8281036020840152611e258185611a55565b95945050505050565b60208082526025908201527f455243313135353a207472616e7366657220746f20746865207a65726f206164604082015264647265737360d81b606082015260800190565b6020808252602a908201527f455243313135353a20696e73756666696369656e742062616c616e636520666f60408201526939103a3930b739b332b960b11b606082015260800190565b60208082526023908201527f455243313135353a206275726e2066726f6d20746865207a65726f206164647260408201526265737360e81b606082015260800190565b60208082526024908201527f455243313135353a206275726e20616d6f756e7420657863656564732062616c604082015263616e636560e01b606082015260800190565b6001600160a01b0386811682528516602082015260a060408201819052600090611f7090830186611a55565b8281036060840152611f828186611a55565b90508281036080840152611f968185611732565b98975050505050505050565b600060208284031215611fb457600080fd5b8151611620816115ed565b600060033d1115611fd85760046000803e5060005160e01c5b90565b600060443d1015611fe95790565b6040516003193d81016004833e81513d67ffffffffffffffff816024840111818411171561201957505050505090565b82850191508151818111156120315750505050505090565b843d870101602082850101111561204b5750505050505090565b61205a6020828601018761163d565b509095945050505050565b60208082526028908201527f455243313135353a204552433131353552656365697665722072656a656374656040820152676420746f6b656e7360c01b606082015260800190565b6001600160a01b03868116825285166020820152604081018490526060810183905260a0608082018190526000906120e790830184611732565b97965050505050505056fea2646970667358221220b0d4726a2bd3c37e94d6836247dd1598d56502ea0cfcf1abb9f1dbd49da5320864736f6c63430008090033",
  "linkReferences": {},
  "deployedLinkReferences": {}
}