{
  "_format": "hh-sol-artifact-1",
  "contractName": "AssetWrapper",
  "sourceName": "contracts/AssetWrapper.sol",
  "abi": [
    {
      "inputs": [
        {
          "internalType": "string",
          "name": "name",
          "type": "string"
        },
        {
          "internalType": "string",
          "name": "symbol",
          "type": "string"
        },
        {
          "internalType": "address",
          "name": "_verifier",
          "type": "address"
        },
        {
          "internalType": "uint8",
          "name": "_treeDepth",
          "type": "uint8"
        }
      ],
      "stateMutability": "nonpayable",
      "type": "constructor"
    },
    {
      "anonymous": false,
      "inputs": [
        {
          "indexed": true,
          "internalType": "address",
          "name": "owner",
          "type": "address"
        },
        {
          "indexed": true,
          "internalType": "address",
          "name": "approved",
          "type": "address"
        },
        {
          "indexed": true,
          "internalType": "uint256",
          "name": "tokenId",
          "type": "uint256"
        }
      ],
      "name": "Approval",
      "type": "event"
    },
    {
      "anonymous": false,
      "inputs": [
        {
          "indexed": true,
          "internalType": "address",
          "name": "owner",
          "type": "address"
        },
        {
          "indexed": true,
          "internalType": "address",
          "name": "operator",
          "type": "address"
        },
        {
          "indexed": false,
          "internalType": "bool",
          "name": "approved",
          "type": "bool"
        }
      ],
      "name": "ApprovalForAll",
      "type": "event"
    },
    {
      "anonymous": false,
      "inputs": [
        {
          "indexed": true,
          "internalType": "address",
          "name": "buyer",
          "type": "address"
        },
        {
          "indexed": true,
          "internalType": "uint256",
          "name": "bundleId",
          "type": "uint256"
        },
        {
          "indexed": false,
          "internalType": "uint256",
          "name": "price",
          "type": "uint256"
        },
        {
          "indexed": false,
          "internalType": "address",
          "name": "nodeAddress",
          "type": "address"
        }
      ],
      "name": "Buy",
      "type": "event"
    },
    {
      "anonymous": false,
      "inputs": [
        {
          "indexed": true,
          "internalType": "address",
          "name": "depositor",
          "type": "address"
        },
        {
          "indexed": true,
          "internalType": "uint256",
          "name": "bundleId",
          "type": "uint256"
        },
        {
          "indexed": false,
          "internalType": "address",
          "name": "tokenAddress",
          "type": "address"
        },
        {
          "indexed": false,
          "internalType": "uint256",
          "name": "tokenId",
          "type": "uint256"
        },
        {
          "indexed": false,
          "internalType": "uint256",
          "name": "amount",
          "type": "uint256"
        },
        {
          "indexed": false,
          "internalType": "string",
          "name": "title",
          "type": "string"
        }
      ],
      "name": "DepositERC1155",
      "type": "event"
    },
    {
      "anonymous": false,
      "inputs": [
        {
          "indexed": true,
          "internalType": "address",
          "name": "depositor",
          "type": "address"
        },
        {
          "indexed": true,
          "internalType": "uint256",
          "name": "bundleId",
          "type": "uint256"
        },
        {
          "indexed": false,
          "internalType": "address",
          "name": "tokenAddress",
          "type": "address"
        },
        {
          "indexed": false,
          "internalType": "uint256",
          "name": "amount",
          "type": "uint256"
        },
        {
          "indexed": false,
          "internalType": "string",
          "name": "title",
          "type": "string"
        }
      ],
      "name": "DepositERC20",
      "type": "event"
    },
    {
      "anonymous": false,
      "inputs": [
        {
          "indexed": true,
          "internalType": "address",
          "name": "depositor",
          "type": "address"
        },
        {
          "indexed": true,
          "internalType": "uint256",
          "name": "bundleId",
          "type": "uint256"
        },
        {
          "indexed": false,
          "internalType": "address",
          "name": "tokenAddress",
          "type": "address"
        },
        {
          "indexed": false,
          "internalType": "uint256",
          "name": "tokenId",
          "type": "uint256"
        },
        {
          "indexed": false,
          "internalType": "string",
          "name": "title",
          "type": "string"
        }
      ],
      "name": "DepositERC721",
      "type": "event"
    },
    {
      "anonymous": false,
      "inputs": [
        {
          "indexed": true,
          "internalType": "uint256",
          "name": "groupId",
          "type": "uint256"
        },
        {
          "indexed": false,
          "internalType": "uint8",
          "name": "depth",
          "type": "uint8"
        },
        {
          "indexed": false,
          "internalType": "uint256",
          "name": "zeroValue",
          "type": "uint256"
        }
      ],
      "name": "GroupCreated",
      "type": "event"
    },
    {
      "anonymous": false,
      "inputs": [
        {
          "indexed": true,
          "internalType": "uint256",
          "name": "groupId",
          "type": "uint256"
        },
        {
          "indexed": false,
          "internalType": "uint256",
          "name": "identityCommitment",
          "type": "uint256"
        },
        {
          "indexed": false,
          "internalType": "uint256",
          "name": "root",
          "type": "uint256"
        }
      ],
      "name": "MemberAdded",
      "type": "event"
    },
    {
      "anonymous": false,
      "inputs": [
        {
          "indexed": true,
          "internalType": "uint256",
          "name": "groupId",
          "type": "uint256"
        },
        {
          "indexed": false,
          "internalType": "uint256",
          "name": "identityCommitment",
          "type": "uint256"
        },
        {
          "indexed": false,
          "internalType": "uint256",
          "name": "root",
          "type": "uint256"
        }
      ],
      "name": "MemberRemoved",
      "type": "event"
    },
    {
      "anonymous": false,
      "inputs": [
        {
          "indexed": false,
          "internalType": "uint256",
          "name": "nullifierHash",
          "type": "uint256"
        }
      ],
      "name": "NullifierHashAdded",
      "type": "event"
    },
    {
      "anonymous": false,
      "inputs": [
        {
          "indexed": true,
          "internalType": "address",
          "name": "previousOwner",
          "type": "address"
        },
        {
          "indexed": true,
          "internalType": "address",
          "name": "newOwner",
          "type": "address"
        }
      ],
      "name": "OwnershipTransferred",
      "type": "event"
    },
    {
      "anonymous": false,
      "inputs": [
        {
          "indexed": true,
          "internalType": "uint256",
          "name": "groupId",
          "type": "uint256"
        },
        {
          "indexed": false,
          "internalType": "bytes32",
          "name": "signal",
          "type": "bytes32"
        }
      ],
      "name": "ProofVerified",
      "type": "event"
    },
    {
      "anonymous": false,
      "inputs": [
        {
          "indexed": true,
          "internalType": "address",
          "name": "seller",
          "type": "address"
        },
        {
          "indexed": true,
          "internalType": "uint256",
          "name": "bundleId",
          "type": "uint256"
        },
        {
          "indexed": false,
          "internalType": "uint256",
          "name": "price",
          "type": "uint256"
        },
        {
          "indexed": false,
          "internalType": "address",
          "name": "nodeAddress",
          "type": "address"
        }
      ],
      "name": "Sell",
      "type": "event"
    },
    {
      "anonymous": false,
      "inputs": [
        {
          "indexed": true,
          "internalType": "uint256",
          "name": "groupId",
          "type": "uint256"
        },
        {
          "indexed": false,
          "internalType": "bytes32",
          "name": "subscriptionName",
          "type": "bytes32"
        }
      ],
      "name": "SubscriptionCreated",
      "type": "event"
    },
    {
      "anonymous": false,
      "inputs": [
        {
          "indexed": true,
          "internalType": "address",
          "name": "from",
          "type": "address"
        },
        {
          "indexed": true,
          "internalType": "address",
          "name": "to",
          "type": "address"
        },
        {
          "indexed": true,
          "internalType": "uint256",
          "name": "tokenId",
          "type": "uint256"
        }
      ],
      "name": "Transfer",
      "type": "event"
    },
    {
      "anonymous": false,
      "inputs": [
        {
          "indexed": true,
          "internalType": "address",
          "name": "withdrawer",
          "type": "address"
        },
        {
          "indexed": true,
          "internalType": "uint256",
          "name": "bundleId",
          "type": "uint256"
        }
      ],
      "name": "Withdraw",
      "type": "event"
    },
    {
      "inputs": [],
      "name": "DOMAIN_SEPARATOR",
      "outputs": [
        {
          "internalType": "bytes32",
          "name": "",
          "type": "bytes32"
        }
      ],
      "stateMutability": "view",
      "type": "function"
    },
    {
      "inputs": [
        {
          "internalType": "uint256",
          "name": "groupId",
          "type": "uint256"
        },
        {
          "internalType": "uint256",
          "name": "identityCommitment",
          "type": "uint256"
        }
      ],
      "name": "addMember",
      "outputs": [],
      "stateMutability": "nonpayable",
      "type": "function"
    },
    {
      "inputs": [
        {
          "internalType": "address",
          "name": "to",
          "type": "address"
        },
        {
          "internalType": "uint256",
          "name": "tokenId",
          "type": "uint256"
        }
      ],
      "name": "approve",
      "outputs": [],
      "stateMutability": "nonpayable",
      "type": "function"
    },
    {
      "inputs": [
        {
          "internalType": "address",
          "name": "owner",
          "type": "address"
        }
      ],
      "name": "balanceOf",
      "outputs": [
        {
          "internalType": "uint256",
          "name": "",
          "type": "uint256"
        }
      ],
      "stateMutability": "view",
      "type": "function"
    },
    {
      "inputs": [
        {
          "internalType": "uint256",
          "name": "",
          "type": "uint256"
        },
        {
          "internalType": "uint256",
          "name": "",
          "type": "uint256"
        }
      ],
      "name": "bundleERC1155Holdings",
      "outputs": [
        {
          "internalType": "address",
          "name": "tokenAddress",
          "type": "address"
        },
        {
          "internalType": "uint256",
          "name": "tokenId",
          "type": "uint256"
        },
        {
          "internalType": "uint256",
          "name": "amount",
          "type": "uint256"
        },
        {
          "internalType": "string",
          "name": "title",
          "type": "string"
        }
      ],
      "stateMutability": "view",
      "type": "function"
    },
    {
      "inputs": [
        {
          "internalType": "uint256",
          "name": "",
          "type": "uint256"
        },
        {
          "internalType": "uint256",
          "name": "",
          "type": "uint256"
        }
      ],
      "name": "bundleERC20Holdings",
      "outputs": [
        {
          "internalType": "address",
          "name": "tokenAddress",
          "type": "address"
        },
        {
          "internalType": "uint256",
          "name": "amount",
          "type": "uint256"
        },
        {
          "internalType": "string",
          "name": "title",
          "type": "string"
        }
      ],
      "stateMutability": "view",
      "type": "function"
    },
    {
      "inputs": [
        {
          "internalType": "uint256",
          "name": "",
          "type": "uint256"
        },
        {
          "internalType": "uint256",
          "name": "",
          "type": "uint256"
        }
      ],
      "name": "bundleERC721Holdings",
      "outputs": [
        {
          "internalType": "address",
          "name": "tokenAddress",
          "type": "address"
        },
        {
          "internalType": "uint256",
          "name": "tokenId",
          "type": "uint256"
        },
        {
          "internalType": "string",
          "name": "title",
          "type": "string"
        }
      ],
      "stateMutability": "view",
      "type": "function"
    },
    {
      "inputs": [
        {
          "internalType": "address",
          "name": "",
          "type": "address"
        },
        {
          "internalType": "uint256",
          "name": "",
          "type": "uint256"
        }
      ],
      "name": "bundleIdsByAddress",
      "outputs": [
        {
          "internalType": "uint256",
          "name": "",
          "type": "uint256"
        }
      ],
      "stateMutability": "view",
      "type": "function"
    },
    {
      "inputs": [
        {
          "internalType": "uint256",
          "name": "",
          "type": "uint256"
        }
      ],
      "name": "bundles",
      "outputs": [
        {
          "internalType": "address",
          "name": "owner",
          "type": "address"
        },
        {
          "internalType": "uint256",
          "name": "bundleId",
          "type": "uint256"
        },
        {
          "internalType": "address",
          "name": "nodeAddress",
          "type": "address"
        },
        {
          "internalType": "uint256",
          "name": "price",
          "type": "uint256"
        }
      ],
      "stateMutability": "view",
      "type": "function"
    },
    {
      "inputs": [
        {
          "internalType": "uint256",
          "name": "tokenId",
          "type": "uint256"
        }
      ],
      "name": "burn",
      "outputs": [],
      "stateMutability": "nonpayable",
      "type": "function"
    },
    {
      "inputs": [
        {
          "internalType": "uint256",
          "name": "bundleId",
          "type": "uint256"
        }
      ],
      "name": "buy",
      "outputs": [],
      "stateMutability": "payable",
      "type": "function"
    },
    {
      "inputs": [
        {
          "internalType": "bytes32",
          "name": "subscriptionName",
          "type": "bytes32"
        }
      ],
      "name": "createSubscription",
      "outputs": [],
      "stateMutability": "nonpayable",
      "type": "function"
    },
    {
      "inputs": [
        {
          "internalType": "address",
          "name": "tokenAddress",
          "type": "address"
        },
        {
          "internalType": "uint256",
          "name": "tokenId",
          "type": "uint256"
        },
        {
          "internalType": "uint256",
          "name": "amount",
          "type": "uint256"
        },
        {
          "internalType": "uint256",
          "name": "bundleId",
          "type": "uint256"
        },
        {
          "internalType": "string",
          "name": "title",
          "type": "string"
        }
      ],
      "name": "depositERC1155",
      "outputs": [],
      "stateMutability": "nonpayable",
      "type": "function"
    },
    {
      "inputs": [
        {
          "internalType": "address",
          "name": "tokenAddress",
          "type": "address"
        },
        {
          "internalType": "uint256",
          "name": "amount",
          "type": "uint256"
        },
        {
          "internalType": "uint256",
          "name": "bundleId",
          "type": "uint256"
        },
        {
          "internalType": "string",
          "name": "title",
          "type": "string"
        }
      ],
      "name": "depositERC20",
      "outputs": [],
      "stateMutability": "nonpayable",
      "type": "function"
    },
    {
      "inputs": [
        {
          "internalType": "address",
          "name": "tokenAddress",
          "type": "address"
        },
        {
          "internalType": "uint256",
          "name": "tokenId",
          "type": "uint256"
        },
        {
          "internalType": "uint256",
          "name": "bundleId",
          "type": "uint256"
        },
        {
          "internalType": "string",
          "name": "title",
          "type": "string"
        }
      ],
      "name": "depositERC721",
      "outputs": [],
      "stateMutability": "nonpayable",
      "type": "function"
    },
    {
      "inputs": [
        {
          "internalType": "uint256",
          "name": "tokenId",
          "type": "uint256"
        }
      ],
      "name": "getApproved",
      "outputs": [
        {
          "internalType": "address",
          "name": "",
          "type": "address"
        }
      ],
      "stateMutability": "view",
      "type": "function"
    },
    {
      "inputs": [
        {
          "internalType": "address",
          "name": "seller",
          "type": "address"
        }
      ],
      "name": "getBundleIdsByAddress",
      "outputs": [
        {
          "internalType": "uint256[]",
          "name": "",
          "type": "uint256[]"
        }
      ],
      "stateMutability": "view",
      "type": "function"
    },
    {
      "inputs": [
        {
          "internalType": "uint256",
          "name": "tokenId",
          "type": "uint256"
        }
      ],
      "name": "getBundles",
      "outputs": [
        {
          "components": [
            {
              "internalType": "address",
              "name": "owner",
              "type": "address"
            },
            {
              "internalType": "uint256",
              "name": "bundleId",
              "type": "uint256"
            },
            {
              "internalType": "address",
              "name": "nodeAddress",
              "type": "address"
            },
            {
              "internalType": "uint256",
              "name": "price",
              "type": "uint256"
            },
            {
              "components": [
                {
                  "internalType": "address",
                  "name": "tokenAddress",
                  "type": "address"
                },
                {
                  "internalType": "uint256",
                  "name": "tokenId",
                  "type": "uint256"
                },
                {
                  "internalType": "string",
                  "name": "title",
                  "type": "string"
                }
              ],
              "internalType": "struct AssetWrapper.ERC721Holding[]",
              "name": "bundleERC721",
              "type": "tuple[]"
            },
            {
              "components": [
                {
                  "internalType": "address",
                  "name": "tokenAddress",
                  "type": "address"
                },
                {
                  "internalType": "uint256",
                  "name": "tokenId",
                  "type": "uint256"
                },
                {
                  "internalType": "uint256",
                  "name": "amount",
                  "type": "uint256"
                },
                {
                  "internalType": "string",
                  "name": "title",
                  "type": "string"
                }
              ],
              "internalType": "struct AssetWrapper.ERC1155Holding[]",
              "name": "bundleERC1155",
              "type": "tuple[]"
            },
            {
              "components": [
                {
                  "internalType": "address",
                  "name": "tokenAddress",
                  "type": "address"
                },
                {
                  "internalType": "uint256",
                  "name": "amount",
                  "type": "uint256"
                },
                {
                  "internalType": "string",
                  "name": "title",
                  "type": "string"
                }
              ],
              "internalType": "struct AssetWrapper.ERC20Holding[]",
              "name": "bundleERC20",
              "type": "tuple[]"
            }
          ],
          "internalType": "struct AssetWrapper.Bundle",
          "name": "",
          "type": "tuple"
        }
      ],
      "stateMutability": "view",
      "type": "function"
    },
    {
      "inputs": [
        {
          "internalType": "uint256",
          "name": "groupId",
          "type": "uint256"
        }
      ],
      "name": "getDepth",
      "outputs": [
        {
          "internalType": "uint8",
          "name": "",
          "type": "uint8"
        }
      ],
      "stateMutability": "view",
      "type": "function"
    },
    {
      "inputs": [
        {
          "internalType": "uint256",
          "name": "groupId",
          "type": "uint256"
        }
      ],
      "name": "getNumberOfLeaves",
      "outputs": [
        {
          "internalType": "uint256",
          "name": "",
          "type": "uint256"
        }
      ],
      "stateMutability": "view",
      "type": "function"
    },
    {
      "inputs": [
        {
          "internalType": "uint256",
          "name": "groupId",
          "type": "uint256"
        }
      ],
      "name": "getRoot",
      "outputs": [
        {
          "internalType": "uint256",
          "name": "",
          "type": "uint256"
        }
      ],
      "stateMutability": "view",
      "type": "function"
    },
    {
      "inputs": [
        {
          "internalType": "address",
          "name": "to",
          "type": "address"
        },
        {
          "internalType": "uint256",
          "name": "groupId",
          "type": "uint256"
        },
        {
          "internalType": "bytes32",
          "name": "signal",
          "type": "bytes32"
        },
        {
          "internalType": "uint256",
          "name": "_nullifierHash",
          "type": "uint256"
        },
        {
          "internalType": "uint256[8]",
          "name": "_proof",
          "type": "uint256[8]"
        }
      ],
      "name": "initializeBundle",
      "outputs": [
        {
          "internalType": "uint256",
          "name": "",
          "type": "uint256"
        }
      ],
      "stateMutability": "nonpayable",
      "type": "function"
    },
    {
      "inputs": [
        {
          "internalType": "address",
          "name": "owner",
          "type": "address"
        },
        {
          "internalType": "address",
          "name": "operator",
          "type": "address"
        }
      ],
      "name": "isApprovedForAll",
      "outputs": [
        {
          "internalType": "bool",
          "name": "",
          "type": "bool"
        }
      ],
      "stateMutability": "view",
      "type": "function"
    },
    {
      "inputs": [],
      "name": "name",
      "outputs": [
        {
          "internalType": "string",
          "name": "",
          "type": "string"
        }
      ],
      "stateMutability": "view",
      "type": "function"
    },
    {
      "inputs": [
        {
          "internalType": "address",
          "name": "owner",
          "type": "address"
        }
      ],
      "name": "nonces",
      "outputs": [
        {
          "internalType": "uint256",
          "name": "",
          "type": "uint256"
        }
      ],
      "stateMutability": "view",
      "type": "function"
    },
    {
      "inputs": [
        {
          "internalType": "address",
          "name": "",
          "type": "address"
        },
        {
          "internalType": "address",
          "name": "",
          "type": "address"
        },
        {
          "internalType": "uint256[]",
          "name": "",
          "type": "uint256[]"
        },
        {
          "internalType": "uint256[]",
          "name": "",
          "type": "uint256[]"
        },
        {
          "internalType": "bytes",
          "name": "",
          "type": "bytes"
        }
      ],
      "name": "onERC1155BatchReceived",
      "outputs": [
        {
          "internalType": "bytes4",
          "name": "",
          "type": "bytes4"
        }
      ],
      "stateMutability": "nonpayable",
      "type": "function"
    },
    {
      "inputs": [
        {
          "internalType": "address",
          "name": "",
          "type": "address"
        },
        {
          "internalType": "address",
          "name": "",
          "type": "address"
        },
        {
          "internalType": "uint256",
          "name": "",
          "type": "uint256"
        },
        {
          "internalType": "uint256",
          "name": "",
          "type": "uint256"
        },
        {
          "internalType": "bytes",
          "name": "",
          "type": "bytes"
        }
      ],
      "name": "onERC1155Received",
      "outputs": [
        {
          "internalType": "bytes4",
          "name": "",
          "type": "bytes4"
        }
      ],
      "stateMutability": "nonpayable",
      "type": "function"
    },
    {
      "inputs": [
        {
          "internalType": "address",
          "name": "",
          "type": "address"
        },
        {
          "internalType": "address",
          "name": "",
          "type": "address"
        },
        {
          "internalType": "uint256",
          "name": "",
          "type": "uint256"
        },
        {
          "internalType": "bytes",
          "name": "",
          "type": "bytes"
        }
      ],
      "name": "onERC721Received",
      "outputs": [
        {
          "internalType": "bytes4",
          "name": "",
          "type": "bytes4"
        }
      ],
      "stateMutability": "nonpayable",
      "type": "function"
    },
    {
      "inputs": [],
      "name": "owner",
      "outputs": [
        {
          "internalType": "address",
          "name": "",
          "type": "address"
        }
      ],
      "stateMutability": "view",
      "type": "function"
    },
    {
      "inputs": [
        {
          "internalType": "uint256",
          "name": "tokenId",
          "type": "uint256"
        }
      ],
      "name": "ownerOf",
      "outputs": [
        {
          "internalType": "address",
          "name": "",
          "type": "address"
        }
      ],
      "stateMutability": "view",
      "type": "function"
    },
    {
      "inputs": [
        {
          "internalType": "address",
          "name": "owner",
          "type": "address"
        },
        {
          "internalType": "address",
          "name": "spender",
          "type": "address"
        },
        {
          "internalType": "uint256",
          "name": "tokenId",
          "type": "uint256"
        },
        {
          "internalType": "uint256",
          "name": "deadline",
          "type": "uint256"
        },
        {
          "internalType": "uint8",
          "name": "v",
          "type": "uint8"
        },
        {
          "internalType": "bytes32",
          "name": "r",
          "type": "bytes32"
        },
        {
          "internalType": "bytes32",
          "name": "s",
          "type": "bytes32"
        }
      ],
      "name": "permit",
      "outputs": [],
      "stateMutability": "nonpayable",
      "type": "function"
    },
    {
      "inputs": [],
      "name": "renounceOwnership",
      "outputs": [],
      "stateMutability": "nonpayable",
      "type": "function"
    },
    {
      "inputs": [
        {
          "internalType": "address",
          "name": "from",
          "type": "address"
        },
        {
          "internalType": "address",
          "name": "to",
          "type": "address"
        },
        {
          "internalType": "uint256",
          "name": "tokenId",
          "type": "uint256"
        }
      ],
      "name": "safeTransferFrom",
      "outputs": [],
      "stateMutability": "nonpayable",
      "type": "function"
    },
    {
      "inputs": [
        {
          "internalType": "address",
          "name": "from",
          "type": "address"
        },
        {
          "internalType": "address",
          "name": "to",
          "type": "address"
        },
        {
          "internalType": "uint256",
          "name": "tokenId",
          "type": "uint256"
        },
        {
          "internalType": "bytes",
          "name": "data",
          "type": "bytes"
        }
      ],
      "name": "safeTransferFrom",
      "outputs": [],
      "stateMutability": "nonpayable",
      "type": "function"
    },
    {
      "inputs": [
        {
          "internalType": "uint256",
          "name": "bundleId",
          "type": "uint256"
        },
        {
          "internalType": "uint256",
          "name": "price",
          "type": "uint256"
        },
        {
          "internalType": "address",
          "name": "nodeAddress",
          "type": "address"
        }
      ],
      "name": "sell",
      "outputs": [],
      "stateMutability": "nonpayable",
      "type": "function"
    },
    {
      "inputs": [
        {
          "internalType": "address",
          "name": "operator",
          "type": "address"
        },
        {
          "internalType": "bool",
          "name": "approved",
          "type": "bool"
        }
      ],
      "name": "setApprovalForAll",
      "outputs": [],
      "stateMutability": "nonpayable",
      "type": "function"
    },
    {
      "inputs": [
        {
          "internalType": "bytes4",
          "name": "interfaceId",
          "type": "bytes4"
        }
      ],
      "name": "supportsInterface",
      "outputs": [
        {
          "internalType": "bool",
          "name": "",
          "type": "bool"
        }
      ],
      "stateMutability": "view",
      "type": "function"
    },
    {
      "inputs": [],
      "name": "symbol",
      "outputs": [
        {
          "internalType": "string",
          "name": "",
          "type": "string"
        }
      ],
      "stateMutability": "view",
      "type": "function"
    },
    {
      "inputs": [
        {
          "internalType": "uint256",
          "name": "index",
          "type": "uint256"
        }
      ],
      "name": "tokenByIndex",
      "outputs": [
        {
          "internalType": "uint256",
          "name": "",
          "type": "uint256"
        }
      ],
      "stateMutability": "view",
      "type": "function"
    },
    {
      "inputs": [
        {
          "internalType": "address",
          "name": "owner",
          "type": "address"
        },
        {
          "internalType": "uint256",
          "name": "index",
          "type": "uint256"
        }
      ],
      "name": "tokenOfOwnerByIndex",
      "outputs": [
        {
          "internalType": "uint256",
          "name": "",
          "type": "uint256"
        }
      ],
      "stateMutability": "view",
      "type": "function"
    },
    {
      "inputs": [
        {
          "internalType": "uint256",
          "name": "tokenId",
          "type": "uint256"
        }
      ],
      "name": "tokenURI",
      "outputs": [
        {
          "internalType": "string",
          "name": "",
          "type": "string"
        }
      ],
      "stateMutability": "view",
      "type": "function"
    },
    {
      "inputs": [],
      "name": "totalSupply",
      "outputs": [
        {
          "internalType": "uint256",
          "name": "",
          "type": "uint256"
        }
      ],
      "stateMutability": "view",
      "type": "function"
    },
    {
      "inputs": [
        {
          "internalType": "address",
          "name": "from",
          "type": "address"
        },
        {
          "internalType": "address",
          "name": "to",
          "type": "address"
        },
        {
          "internalType": "uint256",
          "name": "tokenId",
          "type": "uint256"
        }
      ],
      "name": "transferFrom",
      "outputs": [],
      "stateMutability": "nonpayable",
      "type": "function"
    },
    {
      "inputs": [
        {
          "internalType": "address",
          "name": "newOwner",
          "type": "address"
        }
      ],
      "name": "transferOwnership",
      "outputs": [],
      "stateMutability": "nonpayable",
      "type": "function"
    },
    {
      "inputs": [],
      "name": "treeDepth",
      "outputs": [
        {
          "internalType": "uint8",
          "name": "",
          "type": "uint8"
        }
      ],
      "stateMutability": "view",
      "type": "function"
    },
    {
      "inputs": [],
      "name": "verifier",
      "outputs": [
        {
          "internalType": "contract IVerifier",
          "name": "",
          "type": "address"
        }
      ],
      "stateMutability": "view",
      "type": "function"
    },
    {
      "inputs": [
        {
          "internalType": "uint256",
          "name": "bundleId",
          "type": "uint256"
        }
      ],
      "name": "withdraw",
      "outputs": [],
      "stateMutability": "nonpayable",
      "type": "function"
    }
  ],
  "bytecode": "0x6101606040527f48d39b37a35214940203bbbd4f383519797769b13d936f387d89430afef27688610140523480156200003757600080fd5b5060405162005bd838038062005bd88339810160408190526200005a9162000340565b8380604051806040016040528060018152602001603160f81b8152508686816000908051906020019062000090929190620001cd565b508051620000a6906001906020840190620001cd565b5050825160209384012082519284019290922060e08390526101008190524660a0818152604080517f8b73c3c69bb8fe3d512ecc4cf759cc79239f7b179b0ffacaa9a75d522b39400f818901819052818301979097526060810194909452608080850193909352308483018190528151808603909301835260c0948501909152815191909601209052929092526101205250620001459050336200017b565b6014805460ff909216600160a01b026001600160a81b03199092166001600160a01b039093169290921717905550620004239050565b600b80546001600160a01b038381166001600160a01b0319831681179093556040519116919082907f8be0079c531659141344cd1fd0a4f28419497f9722a3daafe3b4186f6b6457e090600090a35050565b828054620001db90620003e6565b90600052602060002090601f016020900481019282620001ff57600085556200024a565b82601f106200021a57805160ff19168380011785556200024a565b828001600101855582156200024a579182015b828111156200024a5782518255916020019190600101906200022d565b50620002589291506200025c565b5090565b5b808211156200025857600081556001016200025d565b634e487b7160e01b600052604160045260246000fd5b600082601f8301126200029b57600080fd5b81516001600160401b0380821115620002b857620002b862000273565b604051601f8301601f19908116603f01168101908282118183101715620002e357620002e362000273565b816040528381526020925086838588010111156200030057600080fd5b600091505b8382101562000324578582018301518183018401529082019062000305565b83821115620003365760008385830101525b9695505050505050565b600080600080608085870312156200035757600080fd5b84516001600160401b03808211156200036f57600080fd5b6200037d8883890162000289565b955060208701519150808211156200039457600080fd5b50620003a38782880162000289565b604087015190945090506001600160a01b0381168114620003c357600080fd5b606086015190925060ff81168114620003db57600080fd5b939692955090935050565b600181811c90821680620003fb57607f821691505b602082108114156200041d57634e487b7160e01b600052602260045260246000fd5b50919050565b60805160a05160c05160e05161010051610120516101405161575a6200047e60003960006122f30152600061372b0152600061377a01526000613755015260006136ae015260006136d801526000613702015261575a6000f3fe6080604052600436106102885760003560e01c8063715018a61161015a578063c87b56dd116100c1578063e985e9c51161007a578063e985e9c5146108a6578063ee131360146108ef578063f23a6e611461090f578063f2fde38b1461093b578063fc6bf1331461095b578063fcd500771461097b57600080fd5b8063c87b56dd1461077f578063cf19384b1461079f578063d04c698314610824578063d505accf14610844578063d96a094a14610864578063dcca39601461087757600080fd5b80639b24b3b0116101135780639b24b3b014610693578063a22cb465146106c3578063b8382b76146106e3578063b88d4fde14610703578063b9c78c2b14610723578063bc197c811461075357600080fd5b8063715018a6146105ce5780637216902b146105e357806375e618c9146106105780637ecebe00146106405780638da5cb5b1461066057806395d89b411461067e57600080fd5b80632b7ac3f3116101fe5780634df7f535116101b75780634df7f535146104fe5780634f6ccce71461051e5780636352211e1461053e5780636d5442c21461055e57806370a082311461058e57806370d407e2146105ae57600080fd5b80632b7ac3f3146104495780632e1a7d4d146104695780632f745c59146104895780633644e515146104a957806342842e0e146104be57806342966c68146104de57600080fd5b806309a8740b1161025057806309a8740b1461035e578063150b7a021461037e57806316a56c41146103b75780631783efc3146103ea57806318160ddd1461040a57806323b872dd1461042957600080fd5b806301ffc9a71461028d57806306fdde03146102c2578063081812fc146102e45780630857fc771461031c578063095ea7b31461033e575b600080fd5b34801561029957600080fd5b506102ad6102a8366004614b3c565b6109a8565b60405190151581526020015b60405180910390f35b3480156102ce57600080fd5b506102d76109b9565b6040516102b99190614bb1565b3480156102f057600080fd5b506103046102ff366004614bc4565b610a4b565b6040516001600160a01b0390911681526020016102b9565b34801561032857600080fd5b5061033c610337366004614cb0565b610a72565b005b34801561034a57600080fd5b5061033c610359366004614d11565b610b86565b34801561036a57600080fd5b5061033c610379366004614d3b565b610c9c565b34801561038a57600080fd5b5061039e610399366004614da6565b610e0f565b6040516001600160e01b031990911681526020016102b9565b3480156103c357600080fd5b506014546103d890600160a01b900460ff1681565b60405160ff90911681526020016102b9565b3480156103f657600080fd5b5061033c610405366004614df6565b610e20565b34801561041657600080fd5b506008545b6040519081526020016102b9565b34801561043557600080fd5b5061033c610444366004614e18565b610e36565b34801561045557600080fd5b50601454610304906001600160a01b031681565b34801561047557600080fd5b5061033c610484366004614bc4565b610e68565b34801561049557600080fd5b5061041b6104a4366004614d11565b61152f565b3480156104b557600080fd5b5061041b6115c5565b3480156104ca57600080fd5b5061033c6104d9366004614e18565b6115d4565b3480156104ea57600080fd5b5061033c6104f9366004614bc4565b6115ef565b34801561050a57600080fd5b5061041b610519366004614d11565b611620565b34801561052a57600080fd5b5061041b610539366004614bc4565b611651565b34801561054a57600080fd5b50610304610559366004614bc4565b6116e4565b34801561056a57600080fd5b5061057e610579366004614df6565b611744565b6040516102b99493929190614e54565b34801561059a57600080fd5b5061041b6105a9366004614e8b565b611820565b3480156105ba57600080fd5b5061033c6105c9366004614bc4565b6118a6565b3480156105da57600080fd5b5061033c611912565b3480156105ef57600080fd5b506106036105fe366004614e8b565b611926565b6040516102b99190614ea6565b34801561061c57600080fd5b506103d861062b366004614bc4565b6000908152600d602052604090205460ff1690565b34801561064c57600080fd5b5061041b61065b366004614e8b565b611992565b34801561066c57600080fd5b50600b546001600160a01b0316610304565b34801561068a57600080fd5b506102d76119b0565b34801561069f57600080fd5b5061041b6106ae366004614bc4565b6000908152600d602052604090206001015490565b3480156106cf57600080fd5b5061033c6106de366004614ef8565b6119bf565b3480156106ef57600080fd5b5061041b6106fe366004614f2f565b6119ca565b34801561070f57600080fd5b5061033c61071e366004614da6565b611aae565b34801561072f57600080fd5b5061041b61073e366004614bc4565b6000908152600d602052604090206002015490565b34801561075f57600080fd5b5061039e61076e366004614ffe565b63bc197c8160e01b95945050505050565b34801561078b57600080fd5b506102d761079a366004614bc4565b611ae6565b3480156107ab57600080fd5b506107ef6107ba366004614bc4565b60126020526000908152604090208054600182015460028301546003909301546001600160a01b039283169391929091169084565b6040516102b994939291906001600160a01b039485168152602081019390935292166040820152606081019190915260800190565b34801561083057600080fd5b5061033c61083f36600461509b565b611b5a565b34801561085057600080fd5b5061033c61085f3660046150d0565b612236565b61033c610872366004614bc4565b612402565b34801561088357600080fd5b50610897610892366004614df6565b612af8565b6040516102b993929190615143565b3480156108b257600080fd5b506102ad6108c1366004615173565b6001600160a01b03918216600090815260056020908152604080832093909416825291909152205460ff1690565b3480156108fb57600080fd5b5061033c61090a366004614cb0565b612bce565b34801561091b57600080fd5b5061039e61092a3660046151a6565b63f23a6e6160e01b95945050505050565b34801561094757600080fd5b5061033c610956366004614e8b565b612d21565b34801561096757600080fd5b50610897610976366004614df6565b612d97565b34801561098757600080fd5b5061099b610996366004614bc4565b612db3565b6040516102b991906152f8565b60006109b38261318f565b92915050565b6060600080546109c890615385565b80601f01602080910402602001604051908101604052809291908181526020018280546109f490615385565b8015610a415780601f10610a1657610100808354040283529160200191610a41565b820191906000526020600020905b815481529060010190602001808311610a2457829003601f168201915b5050505050905090565b6000610a56826131b4565b506000908152600460205260409020546001600160a01b031690565b610a7b82613204565b610aa05760405162461bcd60e51b8152600401610a97906153ba565b60405180910390fd5b610aac84333086613221565b600082815260126020908152604080832081516060810183526001600160a01b038981168252818501898152938201878152600690930180546001808201835591885296869020835160039098020180546001600160a01b031916979092169690961781559251948301949094555180519192610b319260028501929091019061494a565b50505081610b3c3390565b6001600160a01b03167f2c38d402da79dffac27851109f33fb0250ccce9f92a27a47c01bb7ba0246f970868685604051610b7893929190615143565b60405180910390a350505050565b6000610b91826116e4565b9050806001600160a01b0316836001600160a01b03161415610bff5760405162461bcd60e51b815260206004820152602160248201527f4552433732313a20617070726f76616c20746f2063757272656e74206f776e656044820152603960f91b6064820152608401610a97565b336001600160a01b0382161480610c1b5750610c1b81336108c1565b610c8d5760405162461bcd60e51b815260206004820152603e60248201527f4552433732313a20617070726f76652063616c6c6572206973206e6f7420746f60448201527f6b656e206f776e6572206e6f7220617070726f76656420666f7220616c6c00006064820152608401610a97565b610c978383613279565b505050565b610ca582613204565b610cc15760405162461bcd60e51b8152600401610a97906153ba565b604051637921219560e11b81526001600160a01b0386169063f242432a90610cf39033903090899089906004016153e9565b600060405180830381600087803b158015610d0d57600080fd5b505af1158015610d21573d6000803e3d6000fd5b505050600083815260126020908152604080832081516080810183526001600160a01b038b811682528185018b81529382018a815260608301898152600590940180546001808201835591895297879020845160049099020180546001600160a01b0319169890931697909717825593519581019590955591516002850155518051919450610db792600385019291019061494a565b50505081610dc23390565b6001600160a01b03167fe7b3cd57fa937d857f83b1d092f8cc31d2af32485f15c753dc9f6a78a36756ef87878786604051610e009493929190614e54565b60405180910390a35050505050565b630a85bd0160e11b5b949350505050565b610e286132e7565b610e328282613341565b5050565b610e41335b8261347c565b610e5d5760405162461bcd60e51b8152600401610a9790615421565b610c978383836134fa565b610e7133610e3b565b610ec85760405162461bcd60e51b815260206004820152602260248201527f4173736574577261707065723a204e6f6e2d6f776e6572207769746864726177604482015261185b60f21b6064820152608401610a97565b610ed1816115ef565b600081815260126020908152604080832060060180548251818502810185019093528083529192909190849084015b82821015610fe4576000848152602090819020604080516060810182526003860290920180546001600160a01b0316835260018101549383019390935260028301805492939291840191610f5390615385565b80601f0160208091040260200160405190810160405280929190818152602001828054610f7f90615385565b8015610fcc5780601f10610fa157610100808354040283529160200191610fcc565b820191906000526020600020905b815481529060010190602001808311610faf57829003601f168201915b50505050508152505081526020019060010190610f00565b50505050905060005b81518110156110705761105e82828151811061100b5761100b61546f565b60200260200101516000015161101e3390565b60008681526012602052604090205485516001600160a01b039091169086908690811061104d5761104d61546f565b602002602001015160200151613221565b806110688161549b565b915050610fed565b50600082815260126020908152604080832060040180548251818502810185019093528083529192909190849084015b82821015611184576000848152602090819020604080516060810182526003860290920180546001600160a01b03168352600181015493830193909352600283018054929392918401916110f390615385565b80601f016020809104026020016040519081016040528092919081815260200182805461111f90615385565b801561116c5780601f106111415761010080835404028352916020019161116c565b820191906000526020600020905b81548152906001019060200180831161114f57829003601f168201915b505050505081525050815260200190600101906110a0565b50505050905060005b8151811015611267578181815181106111a8576111a861546f565b6020026020010151600001516001600160a01b03166342842e0e6111c93390565b60008781526012602052604090205485516001600160a01b03909116908690869081106111f8576111f861546f565b6020026020010151602001516040518463ffffffff1660e01b8152600401611222939291906154b6565b600060405180830381600087803b15801561123c57600080fd5b505af1158015611250573d6000803e3d6000fd5b50505050808061125f9061549b565b91505061118d565b50600083815260126020908152604080832060050180548251818502810185019093528083529192909190849084015b82821015611386576000848152602090819020604080516080810182526004860290920180546001600160a01b031683526001810154938301939093526002830154908201526003820180549192916060840191906112f590615385565b80601f016020809104026020016040519081016040528092919081815260200182805461132190615385565b801561136e5780601f106113435761010080835404028352916020019161136e565b820191906000526020600020905b81548152906001019060200180831161135157829003601f168201915b50505050508152505081526020019060010190611297565b50505050905060005b8151811015611488578181815181106113aa576113aa61546f565b6020026020010151600001516001600160a01b031663f242432a6113cb3390565b60008881526012602052604090205485516001600160a01b03909116908690869081106113fa576113fa61546f565b6020026020010151602001518686815181106114185761141861546f565b6020026020010151604001516040518563ffffffff1660e01b815260040161144394939291906153e9565b600060405180830381600087803b15801561145d57600080fd5b505af1158015611471573d6000803e3d6000fd5b5050505080806114809061549b565b91505061138f565b50600084815260126020526040812080546001600160a01b0319908116825560018201839055600282018054909116905560038101829055906114ce60048301826149ce565b6114dc6005830160006149ef565b6114ea600683016000614a10565b5050836114f43390565b6001600160a01b03167f884edad9ce6fa2440d8a54cc123490eb96d2768479d49ff9c7366125a942436460405160405180910390a350505050565b600061153a83611820565b821061159c5760405162461bcd60e51b815260206004820152602b60248201527f455243373231456e756d657261626c653a206f776e657220696e646578206f7560448201526a74206f6620626f756e647360a81b6064820152608401610a97565b506001600160a01b03919091166000908152600660209081526040808320938352929052205490565b60006115cf6136a1565b905090565b610c9783838360405180602001604052806000815250611aae565b6115f833610e3b565b6116145760405162461bcd60e51b8152600401610a9790615421565b61161d816137c8565b50565b6013602052816000526040600020818154811061163c57600080fd5b90600052602060002001600091509150505481565b600061165c60085490565b82106116bf5760405162461bcd60e51b815260206004820152602c60248201527f455243373231456e756d657261626c653a20676c6f62616c20696e646578206f60448201526b7574206f6620626f756e647360a01b6064820152608401610a97565b600882815481106116d2576116d261546f565b90600052602060002001549050919050565b6000818152600260205260408120546001600160a01b0316806109b35760405162461bcd60e51b8152602060048201526018602482015277115490cdcc8c4e881a5b9d985b1a59081d1bdad95b88125160421b6044820152606401610a97565b6011602052816000526040600020818154811061176057600080fd5b600091825260209091206004909102018054600182015460028301546003840180546001600160a01b039094169650919450929161179d90615385565b80601f01602080910402602001604051908101604052809291908181526020018280546117c990615385565b80156118165780601f106117eb57610100808354040283529160200191611816565b820191906000526020600020905b8154815290600101906020018083116117f957829003601f168201915b5050505050905084565b60006001600160a01b03821661188a5760405162461bcd60e51b815260206004820152602960248201527f4552433732313a2061646472657373207a65726f206973206e6f7420612076616044820152683634b21037bbb732b960b91b6064820152608401610a97565b506001600160a01b031660009081526003602052604090205490565b6118ae6132e7565b60006118b98261386f565b90506118d48160148054906101000a900460ff1660006138a6565b807f98993bc5c28e3f8cc425fe5bdc2a74485bb4a8761cc410000535820567616e078360405161190691815260200190565b60405180910390a25050565b61191a6132e7565b6119246000613a5f565b565b6001600160a01b03811660009081526013602090815260409182902080548351818402810184019094528084526060939283018282801561198657602002820191906000526020600020905b815481526020019060010190808311611972575b50505050509050919050565b6001600160a01b0381166000908152600a60205260408120546109b3565b6060600180546109c890615385565b610e32338383613ab1565b6000848152600d60205260408120600101546014546119fb908690839087908a9088906001600160a01b0316613b80565b6000611a06600e5490565b9050611a128882613d77565b611a20600e80546001019055565b6001600160a01b038816600081815260136020908152604080832080546001808201835591855283852001869055858452601283529281902080546001600160a01b031916909417845592909101839055905187815288917f102229041138505f4cecdadc8e3ac1cd92c55870c17371050fc00bdb08889801910160405180910390a2979650505050505050565b611ab8338361347c565b611ad45760405162461bcd60e51b8152600401610a9790615421565b611ae084848484613eb6565b50505050565b6060611af1826131b4565b6000611b0860408051602081019091526000815290565b90506000815111611b285760405180602001604052806000815250611b53565b80611b3284613ee9565b604051602001611b439291906154da565b6040516020818303038152906040525b9392505050565b611b6383613204565b611ba05760405162461bcd60e51b815260206004820152600e60248201526d139bc8185cdcd95d08199bdd5b9960921b6044820152606401610a97565b6000838152601260205260409020546001600160a01b03163314611bfa5760405162461bcd60e51b81526020600482015260116024820152704e6f6e2d6f776e65722073656c6c696e6760781b6044820152606401610a97565b60008381526012602052604090206003810183905560020180546001600160a01b0319166001600160a01b038316179055611c363382856134fa565b600083815260126020908152604080832060060180548251818502810185019093528083529192909190849084015b82821015611d49576000848152602090819020604080516060810182526003860290920180546001600160a01b0316835260018101549383019390935260028301805492939291840191611cb890615385565b80601f0160208091040260200160405190810160405280929190818152602001828054611ce490615385565b8015611d315780601f10611d0657610100808354040283529160200191611d31565b820191906000526020600020905b815481529060010190602001808311611d1457829003601f168201915b50505050508152505081526020019060010190611c65565b50505050905060005b8151811015611dc257611db0828281518110611d7057611d7061546f565b6020908102919091018101515160008881526012909252604090912060020154845130916001600160a01b03169086908690811061104d5761104d61546f565b80611dba8161549b565b915050611d52565b50600084815260126020908152604080832060040180548251818502810185019093528083529192909190849084015b82821015611ed6576000848152602090819020604080516060810182526003860290920180546001600160a01b0316835260018101549383019390935260028301805492939291840191611e4590615385565b80601f0160208091040260200160405190810160405280929190818152602001828054611e7190615385565b8015611ebe5780601f10611e9357610100808354040283529160200191611ebe565b820191906000526020600020905b815481529060010190602001808311611ea157829003601f168201915b50505050508152505081526020019060010190611df2565b50505050905060005b8151811015611fc057818181518110611efa57611efa61546f565b6020026020010151600001516001600160a01b03166342842e0e30601260008a815260200190815260200160002060020160009054906101000a90046001600160a01b0316858581518110611f5157611f5161546f565b6020026020010151602001516040518463ffffffff1660e01b8152600401611f7b939291906154b6565b600060405180830381600087803b158015611f9557600080fd5b505af1158015611fa9573d6000803e3d6000fd5b505050508080611fb89061549b565b915050611edf565b50600085815260126020908152604080832060050180548251818502810185019093528083529192909190849084015b828210156120df576000848152602090819020604080516080810182526004860290920180546001600160a01b0316835260018101549383019390935260028301549082015260038201805491929160608401919061204e90615385565b80601f016020809104026020016040519081016040528092919081815260200182805461207a90615385565b80156120c75780601f1061209c576101008083540402835291602001916120c7565b820191906000526020600020905b8154815290600101906020018083116120aa57829003601f168201915b50505050508152505081526020019060010190611ff0565b50505050905060005b81518110156121e8578181815181106121035761210361546f565b6020026020010151600001516001600160a01b031663f242432a30601260008b815260200190815260200160002060020160009054906101000a90046001600160a01b031685858151811061215a5761215a61546f565b6020026020010151602001518686815181106121785761217861546f565b6020026020010151604001516040518563ffffffff1660e01b81526004016121a394939291906153e9565b600060405180830381600087803b1580156121bd57600080fd5b505af11580156121d1573d6000803e3d6000fd5b5050505080806121e09061549b565b9150506120e8565b50604080518681526001600160a01b0386166020820152879133917fa6d85d74c0cd12545d70d9fc97faa33f913191cbd39f3785815c095c76f82822910160405180910390a3505050505050565b834211156122865760405162461bcd60e51b815260206004820152601e60248201527f4552433732315065726d69743a206578706972656420646561646c696e6500006044820152606401610a97565b61228f856116e4565b6001600160a01b0316876001600160a01b0316146122ef5760405162461bcd60e51b815260206004820152601760248201527f4552433732315065726d69743a206e6f74206f776e65720000000000000000006044820152606401610a97565b60007f000000000000000000000000000000000000000000000000000000000000000088888861231e8c613fe7565b6040805160208101969096526001600160a01b0394851690860152929091166060840152608083015260a082015260c0810186905260e00160405160208183030381529060405280519060200120905060006123798261400f565b905060006123898287878761405d565b9050896001600160a01b0316816001600160a01b0316146123ec5760405162461bcd60e51b815260206004820152601f60248201527f4552433732315065726d69743a20696e76616c6964207369676e6174757265006044820152606401610a97565b6123f68989613279565b50505050505050505050565b61240b81613204565b6124485760405162461bcd60e51b815260206004820152600e60248201526d139bc8185cdcd95d08199bdd5b9960921b6044820152606401610a97565b60008181526012602052604090206003015434101561249e5760405162461bcd60e51b8152602060048201526012602482015271496e73756666696369656e7420707269636560701b6044820152606401610a97565b600081815260126020908152604080832060060180548251818502810185019093528083529192909190849084015b828210156125b1576000848152602090819020604080516060810182526003860290920180546001600160a01b031683526001810154938301939093526002830180549293929184019161252090615385565b80601f016020809104026020016040519081016040528092919081815260200182805461254c90615385565b80156125995780601f1061256e57610100808354040283529160200191612599565b820191906000526020600020905b81548152906001019060200180831161257c57829003601f168201915b505050505081525050815260200190600101906124cd565b50505050905060005b8151811015612626576126148282815181106125d8576125d861546f565b60209081029190910181015151600086815260129092526040909120600201546001600160a01b03163385858151811061104d5761104d61546f565b8061261e8161549b565b9150506125ba565b50600082815260126020908152604080832060040180548251818502810185019093528083529192909190849084015b8282101561273a576000848152602090819020604080516060810182526003860290920180546001600160a01b03168352600181015493830193909352600283018054929392918401916126a990615385565b80601f01602080910402602001604051908101604052809291908181526020018280546126d590615385565b80156127225780601f106126f757610100808354040283529160200191612722565b820191906000526020600020905b81548152906001019060200180831161270557829003601f168201915b50505050508152505081526020019060010190612656565b50505050905060005b81518110156128135781818151811061275e5761275e61546f565b60209081029190910181015151600086815260129092526040909120600201546001600160a01b03918216916342842e0e9116338585815181106127a4576127a461546f565b6020026020010151602001516040518463ffffffff1660e01b81526004016127ce939291906154b6565b600060405180830381600087803b1580156127e857600080fd5b505af11580156127fc573d6000803e3d6000fd5b50505050808061280b9061549b565b915050612743565b50600083815260126020908152604080832060050180548251818502810185019093528083529192909190849084015b82821015612932576000848152602090819020604080516080810182526004860290920180546001600160a01b031683526001810154938301939093526002830154908201526003820180549192916060840191906128a190615385565b80601f01602080910402602001604051908101604052809291908181526020018280546128cd90615385565b801561291a5780601f106128ef5761010080835404028352916020019161291a565b820191906000526020600020905b8154815290600101906020018083116128fd57829003601f168201915b50505050508152505081526020019060010190612843565b50505050905060005b8151811015612a2a578181815181106129565761295661546f565b60209081029190910181015151600087815260129092526040909120600201546001600160a01b039182169163f242432a91163385858151811061299c5761299c61546f565b6020026020010151602001518686815181106129ba576129ba61546f565b6020026020010151604001516040518563ffffffff1660e01b81526004016129e594939291906153e9565b600060405180830381600087803b1580156129ff57600080fd5b505af1158015612a13573d6000803e3d6000fd5b505050508080612a229061549b565b91505061293b565b508333600086815260126020908152604091829020600381015460029091015483519182526001600160a01b03908116928201929092529216917ff152feb5fe7641aae5c7f8e8187c26eef1a9d970f7c3794ac442f0842282d93f910160405180910390a3600084815260126020526040812080546001600160a01b031990811682556001820183905560028201805490911690556003810182905590612ad460048301826149ce565b612ae26005830160006149ef565b612af0600683016000614a10565b505050505050565b60106020528160005260406000208181548110612b1457600080fd5b60009182526020909120600390910201805460018201546002830180546001600160a01b03909316955090935090612b4b90615385565b80601f0160208091040260200160405190810160405280929190818152602001828054612b7790615385565b8015612bc45780601f10612b9957610100808354040283529160200191612bc4565b820191906000526020600020905b815481529060010190602001808311612ba757829003601f168201915b5050505050905083565b612bd782613204565b612bf35760405162461bcd60e51b8152600401610a97906153ba565b6040516323b872dd60e01b81526001600160a01b038516906323b872dd90612c23903390309088906004016154b6565b600060405180830381600087803b158015612c3d57600080fd5b505af1158015612c51573d6000803e3d6000fd5b505050600083815260126020908152604080832081516060810183526001600160a01b038a811682528185018a8152938201888152600490930180546001808201835591885296869020835160039098020180546001600160a01b031916979092169690961781559251948301949094555180519394509092612cda926002850192019061494a565b50505081612ce53390565b6001600160a01b03167f2596f64312234704338b66b3e65dd18b9bebcf90abe754c052376d6dff2fa477868685604051610b7893929190615143565b612d296132e7565b6001600160a01b038116612d8e5760405162461bcd60e51b815260206004820152602660248201527f4f776e61626c653a206e6577206f776e657220697320746865207a65726f206160448201526564647265737360d01b6064820152608401610a97565b61161d81613a5f565b600f6020528160005260406000208181548110612b1457600080fd5b612e056040518060e0016040528060006001600160a01b031681526020016000815260200160006001600160a01b03168152602001600081526020016060815260200160608152602001606081525090565b6000828152601260209081526040808320815160e08101835281546001600160a01b0390811682526001830154828601526002830154168184015260038201546060820152600482018054845181870281018701909552808552919592946080870194939192919084015b82821015612f54576000848152602090819020604080516060810182526003860290920180546001600160a01b0316835260018101549383019390935260028301805492939291840191612ec390615385565b80601f0160208091040260200160405190810160405280929190818152602001828054612eef90615385565b8015612f3c5780601f10612f1157610100808354040283529160200191612f3c565b820191906000526020600020905b815481529060010190602001808311612f1f57829003601f168201915b50505050508152505081526020019060010190612e70565b50505050815260200160058201805480602002602001604051908101604052809291908181526020016000905b82821015613070576000848152602090819020604080516080810182526004860290920180546001600160a01b03168352600181015493830193909352600283015490820152600382018054919291606084019190612fdf90615385565b80601f016020809104026020016040519081016040528092919081815260200182805461300b90615385565b80156130585780601f1061302d57610100808354040283529160200191613058565b820191906000526020600020905b81548152906001019060200180831161303b57829003601f168201915b50505050508152505081526020019060010190612f81565b50505050815260200160068201805480602002602001604051908101604052809291908181526020016000905b82821015613181576000848152602090819020604080516060810182526003860290920180546001600160a01b03168352600181015493830193909352600283018054929392918401916130f090615385565b80601f016020809104026020016040519081016040528092919081815260200182805461311c90615385565b80156131695780601f1061313e57610100808354040283529160200191613169565b820191906000526020600020905b81548152906001019060200180831161314c57829003601f168201915b5050505050815250508152602001906001019061309d565b505050915250909392505050565b60006001600160e01b03198216630271189760e51b14806109b357506109b382614085565b6131bd81613204565b61161d5760405162461bcd60e51b8152602060048201526018602482015277115490cdcc8c4e881a5b9d985b1a59081d1bdad95b88125160421b6044820152606401610a97565b6000908152600260205260409020546001600160a01b0316151590565b611ae0846323b872dd60e01b858585604051602401613242939291906154b6565b60408051601f198184030181529190526020810180516001600160e01b03166001600160e01b0319909316929092179091526140aa565b600081815260046020526040902080546001600160a01b0319166001600160a01b03841690811790915581906132ae826116e4565b6001600160a01b03167f8c5be1e5ebec7d5bd14f71427d1e84f3dd0314c0f7b2291e5b200ac8c7c3b92560405160405180910390a45050565b600b546001600160a01b031633146119245760405162461bcd60e51b815260206004820181905260248201527f4f776e61626c653a2063616c6c6572206973206e6f7420746865206f776e65726044820152606401610a97565b6000828152600d602052604090205460ff166133ad5760405162461bcd60e51b815260206004820152602560248201527f53656d6170686f726547726f7570733a2067726f757020646f6573206e6f7420604482015264195e1a5cdd60da1b6064820152608401610a97565b6000828152600d6020526040908190209051630b4381fd60e11b815260048101919091526024810182905273__$4c0484323457fe1a856f46a4759b553fe4$__9063168703fa9060440160006040518083038186803b15801561340f57600080fd5b505af4158015613423573d6000803e3d6000fd5b5050506000838152600d6020908152604091829020600101548251858152918201819052925084917f03fd27265b7dd1f55558bedc22a58fa3b10afb1be776e614bd5a7ba7b949940691015b60405180910390a2505050565b600080613488836116e4565b9050806001600160a01b0316846001600160a01b031614806134cf57506001600160a01b0380821660009081526005602090815260408083209388168352929052205460ff165b80610e185750836001600160a01b03166134e884610a4b565b6001600160a01b031614949350505050565b826001600160a01b031661350d826116e4565b6001600160a01b0316146135715760405162461bcd60e51b815260206004820152602560248201527f4552433732313a207472616e736665722066726f6d20696e636f72726563742060448201526437bbb732b960d91b6064820152608401610a97565b6001600160a01b0382166135d35760405162461bcd60e51b8152602060048201526024808201527f4552433732313a207472616e7366657220746f20746865207a65726f206164646044820152637265737360e01b6064820152608401610a97565b6135de83838361417c565b6135e9600082613279565b6001600160a01b0383166000908152600360205260408120805460019290613612908490615509565b90915550506001600160a01b0382166000908152600360205260408120805460019290613640908490615520565b909155505060008181526002602052604080822080546001600160a01b0319166001600160a01b0386811691821790925591518493918716917fddf252ad1be2c89b69c2b068fc378daa952ba7f163c4a11628f55a4df523b3ef91a4505050565b6000306001600160a01b037f0000000000000000000000000000000000000000000000000000000000000000161480156136fa57507f000000000000000000000000000000000000000000000000000000000000000046145b1561372457507f000000000000000000000000000000000000000000000000000000000000000090565b50604080517f00000000000000000000000000000000000000000000000000000000000000006020808301919091527f0000000000000000000000000000000000000000000000000000000000000000828401527f000000000000000000000000000000000000000000000000000000000000000060608301524660808301523060a0808401919091528351808403909101815260c0909201909252805191012090565b60006137d3826116e4565b90506137e18160008461417c565b6137ec600083613279565b6001600160a01b0381166000908152600360205260408120805460019290613815908490615509565b909155505060008281526002602052604080822080546001600160a01b0319169055518391906001600160a01b038416907fddf252ad1be2c89b69c2b068fc378daa952ba7f163c4a11628f55a4df523b3ef908390a45050565b600060088260405160200161388691815260200190565b60408051601f198184030181529190528051602090910120901c92915050565b7f30644e72e131a029b85045b68181585d2833e84879b9709143e1f593f000000183106139345760405162461bcd60e51b815260206004820152603660248201527f53656d6170686f726547726f7570733a2067726f7570206964206d757374206260448201527519480f0814d3905492d7d4d0d053105497d19251531160521b6064820152608401610a97565b6000838152600d602052604090205460ff16156139a15760405162461bcd60e51b815260206004820152602560248201527f53656d6170686f726547726f7570733a2067726f757020616c72656164792065604482015264786973747360d81b6064820152608401610a97565b6000838152600d602052604090819020905163b4bdd11760e01b8152600481019190915260ff831660248201526044810182905273__$4c0484323457fe1a856f46a4759b553fe4$__9063b4bdd1179060640160006040518083038186803b158015613a0c57600080fd5b505af4158015613a20573d6000803e3d6000fd5b50506040805160ff86168152602081018590528693507fc3082aa494e9088c2c9f0fb62a0b6bd46e6699acb94cfba35be29b95a93f68c892500161346f565b600b80546001600160a01b038381166001600160a01b0319831681179093556040519116919082907f8be0079c531659141344cd1fd0a4f28419497f9722a3daafe3b4186f6b6457e090600090a35050565b816001600160a01b0316836001600160a01b03161415613b135760405162461bcd60e51b815260206004820152601960248201527f4552433732313a20617070726f766520746f2063616c6c6572000000000000006044820152606401610a97565b6001600160a01b03838116600081815260056020908152604080832094871680845294825291829020805460ff191686151590811790915591519182527f17307eab39ab6107e8899845ad3d59bd9653f200f220920489ca2b5937696c31910160405180910390a3505050565b6000848152600c602052604090205460ff1615613bfe5760405162461bcd60e51b815260206004820152603660248201527f53656d6170686f7265436f72653a20796f752063616e6e6f7420757365207468604482015275652073616d65206e756c6c696669657220747769636560501b6064820152608401610a97565b6000613c098761386f565b9050816001600160a01b0316635fe8c13b604051806040016040528086600060088110613c3857613c3861546f565b6020020135815260200186600160088110613c5557613c5561546f565b6020020135905260408051608081018252878201359181019182529081906060820189600360200201358152508152602001604051806040016040528089600460088110613ca557613ca561546f565b6020020135815260200189600560088110613cc257613cc261546f565b60200201359052905260408051808201909152808860066020020135815260200188600760088110613cf657613cf661546f565b602002013581525060405180608001604052808c81526020018b81526020018781526020018a8152506040518563ffffffff1660e01b8152600401613d3e949392919061555b565b60006040518083038186803b158015613d5657600080fd5b505afa158015613d6a573d6000803e3d6000fd5b5050505050505050505050565b6001600160a01b038216613dcd5760405162461bcd60e51b815260206004820181905260248201527f4552433732313a206d696e7420746f20746865207a65726f20616464726573736044820152606401610a97565b613dd681613204565b15613e235760405162461bcd60e51b815260206004820152601c60248201527f4552433732313a20746f6b656e20616c7265616479206d696e746564000000006044820152606401610a97565b613e2f6000838361417c565b6001600160a01b0382166000908152600360205260408120805460019290613e58908490615520565b909155505060008181526002602052604080822080546001600160a01b0319166001600160a01b03861690811790915590518392907fddf252ad1be2c89b69c2b068fc378daa952ba7f163c4a11628f55a4df523b3ef908290a45050565b613ec18484846134fa565b613ecd84848484614187565b611ae05760405162461bcd60e51b8152600401610a97906155df565b606081613f0d5750506040805180820190915260018152600360fc1b602082015290565b8160005b8115613f375780613f218161549b565b9150613f309050600a83615647565b9150613f11565b60008167ffffffffffffffff811115613f5257613f52614bf9565b6040519080825280601f01601f191660200182016040528015613f7c576020820181803683370190505b5090505b8415610e1857613f91600183615509565b9150613f9e600a8661565b565b613fa9906030615520565b60f81b818381518110613fbe57613fbe61546f565b60200101906001600160f81b031916908160001a905350613fe0600a86615647565b9450613f80565b6001600160a01b0381166000908152600a602052604090208054600181018255905b50919050565b60006109b361401c6136a1565b8360405161190160f01b6020820152602281018390526042810182905260009060620160405160208183030381529060405280519060200120905092915050565b600080600061406e87878787614291565b9150915061407b8161437e565b5095945050505050565b60006001600160e01b0319821663780e9d6360e01b14806109b357506109b382614539565b60006140ff826040518060400160405280602081526020017f5361666545524332303a206c6f772d6c6576656c2063616c6c206661696c6564815250856001600160a01b03166145899092919063ffffffff16565b805190915015610c97578080602001905181019061411d919061566f565b610c975760405162461bcd60e51b815260206004820152602a60248201527f5361666545524332303a204552433230206f7065726174696f6e20646964206e6044820152691bdd081cdd58d8d9595960b21b6064820152608401610a97565b610c97838383614598565b60006001600160a01b0384163b1561428957604051630a85bd0160e11b81526001600160a01b0385169063150b7a02906141cb90339089908890889060040161568c565b602060405180830381600087803b1580156141e557600080fd5b505af1925050508015614215575060408051601f3d908101601f19168201909252614212918101906156bf565b60015b61426f573d808015614243576040519150601f19603f3d011682016040523d82523d6000602084013e614248565b606091505b5080516142675760405162461bcd60e51b8152600401610a97906155df565b805181602001fd5b6001600160e01b031916630a85bd0160e11b149050610e18565b506001610e18565b6000807f7fffffffffffffffffffffffffffffff5d576e7357a4501ddfe92f46681b20a08311156142c85750600090506003614375565b8460ff16601b141580156142e057508460ff16601c14155b156142f15750600090506004614375565b6040805160008082526020820180845289905260ff881692820192909252606081018690526080810185905260019060a0016020604051602081039080840390855afa158015614345573d6000803e3d6000fd5b5050604051601f1901519150506001600160a01b03811661436e57600060019250925050614375565b9150600090505b94509492505050565b6000816004811115614392576143926156dc565b141561439b5750565b60018160048111156143af576143af6156dc565b14156143fd5760405162461bcd60e51b815260206004820152601860248201527f45434453413a20696e76616c6964207369676e617475726500000000000000006044820152606401610a97565b6002816004811115614411576144116156dc565b141561445f5760405162461bcd60e51b815260206004820152601f60248201527f45434453413a20696e76616c6964207369676e6174757265206c656e677468006044820152606401610a97565b6003816004811115614473576144736156dc565b14156144cc5760405162461bcd60e51b815260206004820152602260248201527f45434453413a20696e76616c6964207369676e6174757265202773272076616c604482015261756560f01b6064820152608401610a97565b60048160048111156144e0576144e06156dc565b141561161d5760405162461bcd60e51b815260206004820152602260248201527f45434453413a20696e76616c6964207369676e6174757265202776272076616c604482015261756560f01b6064820152608401610a97565b60006001600160e01b031982166380ac58cd60e01b148061456a57506001600160e01b03198216635b5e139f60e01b145b806109b357506301ffc9a760e01b6001600160e01b03198316146109b3565b6060610e188484600085614650565b6001600160a01b0383166145f3576145ee81600880546000838152600960205260408120829055600182018355919091527ff3f7a9fe364faab93b216da50a3214154f22a0a2b415b23a84c8169e8b636ee30155565b614616565b816001600160a01b0316836001600160a01b031614614616576146168382614781565b6001600160a01b03821661462d57610c978161481e565b826001600160a01b0316826001600160a01b031614610c9757610c9782826148cd565b6060824710156146b15760405162461bcd60e51b815260206004820152602660248201527f416464726573733a20696e73756666696369656e742062616c616e636520666f6044820152651c8818d85b1b60d21b6064820152608401610a97565b6001600160a01b0385163b6147085760405162461bcd60e51b815260206004820152601d60248201527f416464726573733a2063616c6c20746f206e6f6e2d636f6e74726163740000006044820152606401610a97565b600080866001600160a01b0316858760405161472491906156f2565b60006040518083038185875af1925050503d8060008114614761576040519150601f19603f3d011682016040523d82523d6000602084013e614766565b606091505b5091509150614776828286614911565b979650505050505050565b6000600161478e84611820565b6147989190615509565b6000838152600760205260409020549091508082146147eb576001600160a01b03841660009081526006602090815260408083208584528252808320548484528184208190558352600790915290208190555b5060009182526007602090815260408084208490556001600160a01b039094168352600681528383209183525290812055565b60085460009061483090600190615509565b600083815260096020526040812054600880549394509092849081106148585761485861546f565b9060005260206000200154905080600883815481106148795761487961546f565b60009182526020808320909101929092558281526009909152604080822084905585825281205560088054806148b1576148b161570e565b6001900381819060005260206000200160009055905550505050565b60006148d883611820565b6001600160a01b039093166000908152600660209081526040808320868452825280832085905593825260079052919091209190915550565b60608315614920575081611b53565b8251156149305782518084602001fd5b8160405162461bcd60e51b8152600401610a979190614bb1565b82805461495690615385565b90600052602060002090601f01602090048101928261497857600085556149be565b82601f1061499157805160ff19168380011785556149be565b828001600101855582156149be579182015b828111156149be5782518255916020019190600101906149a3565b506149ca929150614a31565b5090565b508054600082556003029060005260206000209081019061161d9190614a46565b508054600082556004029060005260206000209081019061161d9190614a7b565b508054600082556003029060005260206000209081019061161d9190614ab7565b5b808211156149ca5760008155600101614a32565b808211156149ca5780546001600160a01b0319168155600060018201819055614a726002830182614aec565b50600301614a46565b808211156149ca5780546001600160a01b031916815560006001820181905560028201819055614aae6003830182614aec565b50600401614a7b565b808211156149ca5780546001600160a01b0319168155600060018201819055614ae36002830182614aec565b50600301614ab7565b508054614af890615385565b6000825580601f10614b08575050565b601f01602090049060005260206000209081019061161d9190614a31565b6001600160e01b03198116811461161d57600080fd5b600060208284031215614b4e57600080fd5b8135611b5381614b26565b60005b83811015614b74578181015183820152602001614b5c565b83811115611ae05750506000910152565b60008151808452614b9d816020860160208601614b59565b601f01601f19169290920160200192915050565b602081526000611b536020830184614b85565b600060208284031215614bd657600080fd5b5035919050565b80356001600160a01b0381168114614bf457600080fd5b919050565b634e487b7160e01b600052604160045260246000fd5b604051601f8201601f1916810167ffffffffffffffff81118282101715614c3857614c38614bf9565b604052919050565b600082601f830112614c5157600080fd5b813567ffffffffffffffff811115614c6b57614c6b614bf9565b614c7e601f8201601f1916602001614c0f565b818152846020838601011115614c9357600080fd5b816020850160208301376000918101602001919091529392505050565b60008060008060808587031215614cc657600080fd5b614ccf85614bdd565b93506020850135925060408501359150606085013567ffffffffffffffff811115614cf957600080fd5b614d0587828801614c40565b91505092959194509250565b60008060408385031215614d2457600080fd5b614d2d83614bdd565b946020939093013593505050565b600080600080600060a08688031215614d5357600080fd5b614d5c86614bdd565b9450602086013593506040860135925060608601359150608086013567ffffffffffffffff811115614d8d57600080fd5b614d9988828901614c40565b9150509295509295909350565b60008060008060808587031215614dbc57600080fd5b614dc585614bdd565b9350614dd360208601614bdd565b925060408501359150606085013567ffffffffffffffff811115614cf957600080fd5b60008060408385031215614e0957600080fd5b50508035926020909101359150565b600080600060608486031215614e2d57600080fd5b614e3684614bdd565b9250614e4460208501614bdd565b9150604084013590509250925092565b60018060a01b0385168152836020820152826040820152608060608201526000614e816080830184614b85565b9695505050505050565b600060208284031215614e9d57600080fd5b611b5382614bdd565b6020808252825182820181905260009190848201906040850190845b81811015614ede57835183529284019291840191600101614ec2565b50909695505050505050565b801515811461161d57600080fd5b60008060408385031215614f0b57600080fd5b614f1483614bdd565b91506020830135614f2481614eea565b809150509250929050565b6000806000806000610180808789031215614f4957600080fd5b614f5287614bdd565b9550602087013594506040870135935060608701359250878188011115614f7857600080fd5b506080860190509295509295909350565b600082601f830112614f9a57600080fd5b8135602067ffffffffffffffff821115614fb657614fb6614bf9565b8160051b614fc5828201614c0f565b9283528481018201928281019087851115614fdf57600080fd5b83870192505b8483101561477657823582529183019190830190614fe5565b600080600080600060a0868803121561501657600080fd5b61501f86614bdd565b945061502d60208701614bdd565b9350604086013567ffffffffffffffff8082111561504a57600080fd5b61505689838a01614f89565b9450606088013591508082111561506c57600080fd5b61507889838a01614f89565b9350608088013591508082111561508e57600080fd5b50614d9988828901614c40565b6000806000606084860312156150b057600080fd5b83359250602084013591506150c760408501614bdd565b90509250925092565b600080600080600080600060e0888a0312156150eb57600080fd5b6150f488614bdd565b965061510260208901614bdd565b95506040880135945060608801359350608088013560ff8116811461512657600080fd5b9699959850939692959460a0840135945060c09093013592915050565b60018060a01b038416815282602082015260606040820152600061516a6060830184614b85565b95945050505050565b6000806040838503121561518657600080fd5b61518f83614bdd565b915061519d60208401614bdd565b90509250929050565b600080600080600060a086880312156151be57600080fd5b6151c786614bdd565b94506151d560208701614bdd565b93506040860135925060608601359150608086013567ffffffffffffffff811115614d8d57600080fd5b600081518084526020808501808196508360051b8101915082860160005b85811015615270578284038952815180516001600160a01b03168552858101518686015260409081015160609186018290529061525c81870183614b85565b9a87019a955050509084019060010161521d565b5091979650505050505050565b600081518084526020808501808196508360051b8101915082860160005b85811015615270578284038952815180516001600160a01b031685528581015186860152604080820151908601526060908101516080918601829052906152e481870183614b85565b9a87019a955050509084019060010161529b565b60208152600060018060a01b03808451166020840152602084015160408401528060408501511660608401525060608301516080830152608083015160e060a08401526153496101008401826151ff565b905060a0840151601f19808584030160c0860152615367838361527d565b925060c08601519150808584030160e08601525061516a82826151ff565b600181811c9082168061539957607f821691505b6020821081141561400957634e487b7160e01b600052602260045260246000fd5b602080825260159082015274109d5b991b1948191bd95cc81b9bdd08195e1a5cdd605a1b604082015260600190565b6001600160a01b0394851681529290931660208301526040820152606081019190915260a06080820181905260009082015260c00190565b6020808252602e908201527f4552433732313a2063616c6c6572206973206e6f7420746f6b656e206f776e6560408201526d1c881b9bdc88185c1c1c9bdd995960921b606082015260800190565b634e487b7160e01b600052603260045260246000fd5b634e487b7160e01b600052601160045260246000fd5b60006000198214156154af576154af615485565b5060010190565b6001600160a01b039384168152919092166020820152604081019190915260600190565b600083516154ec818460208801614b59565b835190830190615500818360208801614b59565b01949350505050565b60008282101561551b5761551b615485565b500390565b6000821982111561553357615533615485565b500190565b8060005b6002811015611ae057815184526020938401939091019060010161553c565b610180810161556a8287615538565b60408083018660005b600281101561559a57615587838351615538565b9183019160209190910190600101615573565b505050506155ab60c0830185615538565b61010082018360005b60048110156155d35781518352602092830192909101906001016155b4565b50505095945050505050565b60208082526032908201527f4552433732313a207472616e7366657220746f206e6f6e20455243373231526560408201527131b2b4bb32b91034b6b83632b6b2b73a32b960711b606082015260800190565b634e487b7160e01b600052601260045260246000fd5b60008261565657615656615631565b500490565b60008261566a5761566a615631565b500690565b60006020828403121561568157600080fd5b8151611b5381614eea565b6001600160a01b0385811682528416602082015260408101839052608060608201819052600090614e8190830184614b85565b6000602082840312156156d157600080fd5b8151611b5381614b26565b634e487b7160e01b600052602160045260246000fd5b60008251615704818460208701614b59565b9190910192915050565b634e487b7160e01b600052603160045260246000fdfea26469706673582212204ac1c82bdaee2ab7ecad8800642571587ad8b797620a7787064543dfee64e40e64736f6c63430008090033",
  "linkReferences": {
    "@zk-kit/incremental-merkle-tree.sol/contracts/IncrementalBinaryTree.sol": {
      "IncrementalBinaryTree": [
        {
          "length": 20,
          "start": 14424
        },
        {
          "length": 20,
          "start": 15957
        }
      ]
    }
  },
  "deployedLinkReferences": {
    "@zk-kit/incremental-merkle-tree.sol/contracts/IncrementalBinaryTree.sol": {
      "IncrementalBinaryTree": [
        {
          "length": 20,
          "start": 13274
        },
        {
          "length": 20,
          "start": 14807
        }
      ]
    }
  }
}