{
  "_format": "hh-sol-artifact-1",
  "contractName": "AssetWrapper",
  "sourceName": "contracts/AssetWrapper.sol",
  "abi": [
    {
      "inputs": [
        {
          "internalType": "string",
          "name": "name",
          "type": "string"
        },
        {
          "internalType": "string",
          "name": "symbol",
          "type": "string"
        },
        {
          "internalType": "address",
          "name": "_verifier",
          "type": "address"
        },
        {
          "internalType": "uint8",
          "name": "_treeDepth",
          "type": "uint8"
        }
      ],
      "stateMutability": "nonpayable",
      "type": "constructor"
    },
    {
      "anonymous": false,
      "inputs": [
        {
          "indexed": true,
          "internalType": "address",
          "name": "owner",
          "type": "address"
        },
        {
          "indexed": true,
          "internalType": "address",
          "name": "approved",
          "type": "address"
        },
        {
          "indexed": true,
          "internalType": "uint256",
          "name": "tokenId",
          "type": "uint256"
        }
      ],
      "name": "Approval",
      "type": "event"
    },
    {
      "anonymous": false,
      "inputs": [
        {
          "indexed": true,
          "internalType": "address",
          "name": "owner",
          "type": "address"
        },
        {
          "indexed": true,
          "internalType": "address",
          "name": "operator",
          "type": "address"
        },
        {
          "indexed": false,
          "internalType": "bool",
          "name": "approved",
          "type": "bool"
        }
      ],
      "name": "ApprovalForAll",
      "type": "event"
    },
    {
      "anonymous": false,
      "inputs": [
        {
          "indexed": true,
          "internalType": "address",
          "name": "buyer",
          "type": "address"
        },
        {
          "indexed": true,
          "internalType": "uint256",
          "name": "bundleId",
          "type": "uint256"
        },
        {
          "indexed": false,
          "internalType": "uint256",
          "name": "price",
          "type": "uint256"
        },
        {
          "indexed": false,
          "internalType": "address",
          "name": "nodeAddress",
          "type": "address"
        }
      ],
      "name": "Buy",
      "type": "event"
    },
    {
      "anonymous": false,
      "inputs": [
        {
          "indexed": true,
          "internalType": "address",
          "name": "depositor",
          "type": "address"
        },
        {
          "indexed": true,
          "internalType": "uint256",
          "name": "bundleId",
          "type": "uint256"
        },
        {
          "indexed": false,
          "internalType": "address",
          "name": "tokenAddress",
          "type": "address"
        },
        {
          "indexed": false,
          "internalType": "uint256",
          "name": "tokenId",
          "type": "uint256"
        },
        {
          "indexed": false,
          "internalType": "uint256",
          "name": "amount",
          "type": "uint256"
        },
        {
          "indexed": false,
          "internalType": "string",
          "name": "title",
          "type": "string"
        }
      ],
      "name": "DepositERC1155",
      "type": "event"
    },
    {
      "anonymous": false,
      "inputs": [
        {
          "indexed": true,
          "internalType": "address",
          "name": "depositor",
          "type": "address"
        },
        {
          "indexed": true,
          "internalType": "uint256",
          "name": "bundleId",
          "type": "uint256"
        },
        {
          "indexed": false,
          "internalType": "address",
          "name": "tokenAddress",
          "type": "address"
        },
        {
          "indexed": false,
          "internalType": "uint256",
          "name": "amount",
          "type": "uint256"
        },
        {
          "indexed": false,
          "internalType": "string",
          "name": "title",
          "type": "string"
        }
      ],
      "name": "DepositERC20",
      "type": "event"
    },
    {
      "anonymous": false,
      "inputs": [
        {
          "indexed": true,
          "internalType": "address",
          "name": "depositor",
          "type": "address"
        },
        {
          "indexed": true,
          "internalType": "uint256",
          "name": "bundleId",
          "type": "uint256"
        },
        {
          "indexed": false,
          "internalType": "address",
          "name": "tokenAddress",
          "type": "address"
        },
        {
          "indexed": false,
          "internalType": "uint256",
          "name": "tokenId",
          "type": "uint256"
        },
        {
          "indexed": false,
          "internalType": "string",
          "name": "title",
          "type": "string"
        }
      ],
      "name": "DepositERC721",
      "type": "event"
    },
    {
      "anonymous": false,
      "inputs": [
        {
          "indexed": true,
          "internalType": "uint256",
          "name": "groupId",
          "type": "uint256"
        },
        {
          "indexed": false,
          "internalType": "uint8",
          "name": "depth",
          "type": "uint8"
        },
        {
          "indexed": false,
          "internalType": "uint256",
          "name": "zeroValue",
          "type": "uint256"
        }
      ],
      "name": "GroupCreated",
      "type": "event"
    },
    {
      "anonymous": false,
      "inputs": [
        {
          "indexed": true,
          "internalType": "uint256",
          "name": "groupId",
          "type": "uint256"
        },
        {
          "indexed": false,
          "internalType": "uint256",
          "name": "identityCommitment",
          "type": "uint256"
        },
        {
          "indexed": false,
          "internalType": "uint256",
          "name": "root",
          "type": "uint256"
        }
      ],
      "name": "MemberAdded",
      "type": "event"
    },
    {
      "anonymous": false,
      "inputs": [
        {
          "indexed": true,
          "internalType": "uint256",
          "name": "groupId",
          "type": "uint256"
        },
        {
          "indexed": false,
          "internalType": "uint256",
          "name": "identityCommitment",
          "type": "uint256"
        },
        {
          "indexed": false,
          "internalType": "uint256",
          "name": "root",
          "type": "uint256"
        }
      ],
      "name": "MemberRemoved",
      "type": "event"
    },
    {
      "anonymous": false,
      "inputs": [
        {
          "indexed": false,
          "internalType": "uint256",
          "name": "nullifierHash",
          "type": "uint256"
        }
      ],
      "name": "NullifierHashAdded",
      "type": "event"
    },
    {
      "anonymous": false,
      "inputs": [
        {
          "indexed": true,
          "internalType": "address",
          "name": "previousOwner",
          "type": "address"
        },
        {
          "indexed": true,
          "internalType": "address",
          "name": "newOwner",
          "type": "address"
        }
      ],
      "name": "OwnershipTransferred",
      "type": "event"
    },
    {
      "anonymous": false,
      "inputs": [
        {
          "indexed": true,
          "internalType": "uint256",
          "name": "groupId",
          "type": "uint256"
        },
        {
          "indexed": false,
          "internalType": "bytes32",
          "name": "signal",
          "type": "bytes32"
        }
      ],
      "name": "ProofVerified",
      "type": "event"
    },
    {
      "anonymous": false,
      "inputs": [
        {
          "indexed": true,
          "internalType": "address",
          "name": "seller",
          "type": "address"
        },
        {
          "indexed": true,
          "internalType": "uint256",
          "name": "bundleId",
          "type": "uint256"
        },
        {
          "indexed": false,
          "internalType": "uint256",
          "name": "price",
          "type": "uint256"
        },
        {
          "indexed": false,
          "internalType": "address",
          "name": "nodeAddress",
          "type": "address"
        }
      ],
      "name": "Sell",
      "type": "event"
    },
    {
      "anonymous": false,
      "inputs": [
        {
          "indexed": true,
          "internalType": "uint256",
          "name": "groupId",
          "type": "uint256"
        },
        {
          "indexed": false,
          "internalType": "bytes32",
          "name": "subscriptionName",
          "type": "bytes32"
        }
      ],
      "name": "SubscriptionCreated",
      "type": "event"
    },
    {
      "anonymous": false,
      "inputs": [
        {
          "indexed": true,
          "internalType": "address",
          "name": "from",
          "type": "address"
        },
        {
          "indexed": true,
          "internalType": "address",
          "name": "to",
          "type": "address"
        },
        {
          "indexed": true,
          "internalType": "uint256",
          "name": "tokenId",
          "type": "uint256"
        }
      ],
      "name": "Transfer",
      "type": "event"
    },
    {
      "anonymous": false,
      "inputs": [
        {
          "indexed": true,
          "internalType": "address",
          "name": "withdrawer",
          "type": "address"
        },
        {
          "indexed": true,
          "internalType": "uint256",
          "name": "bundleId",
          "type": "uint256"
        }
      ],
      "name": "Withdraw",
      "type": "event"
    },
    {
      "inputs": [],
      "name": "DOMAIN_SEPARATOR",
      "outputs": [
        {
          "internalType": "bytes32",
          "name": "",
          "type": "bytes32"
        }
      ],
      "stateMutability": "view",
      "type": "function"
    },
    {
      "inputs": [
        {
          "internalType": "uint256",
          "name": "groupId",
          "type": "uint256"
        },
        {
          "internalType": "uint256",
          "name": "identityCommitment",
          "type": "uint256"
        }
      ],
      "name": "addMember",
      "outputs": [],
      "stateMutability": "nonpayable",
      "type": "function"
    },
    {
      "inputs": [
        {
          "internalType": "address",
          "name": "to",
          "type": "address"
        },
        {
          "internalType": "uint256",
          "name": "tokenId",
          "type": "uint256"
        }
      ],
      "name": "approve",
      "outputs": [],
      "stateMutability": "nonpayable",
      "type": "function"
    },
    {
      "inputs": [
        {
          "internalType": "address",
          "name": "owner",
          "type": "address"
        }
      ],
      "name": "balanceOf",
      "outputs": [
        {
          "internalType": "uint256",
          "name": "",
          "type": "uint256"
        }
      ],
      "stateMutability": "view",
      "type": "function"
    },
    {
      "inputs": [
        {
          "internalType": "address",
          "name": "",
          "type": "address"
        },
        {
          "internalType": "uint256",
          "name": "",
          "type": "uint256"
        }
      ],
      "name": "bundleIdsByAddress",
      "outputs": [
        {
          "internalType": "uint256",
          "name": "",
          "type": "uint256"
        }
      ],
      "stateMutability": "view",
      "type": "function"
    },
    {
      "inputs": [
        {
          "internalType": "uint256",
          "name": "",
          "type": "uint256"
        }
      ],
      "name": "bundles",
      "outputs": [
        {
          "internalType": "address",
          "name": "owner",
          "type": "address"
        },
        {
          "internalType": "uint256",
          "name": "bundleId",
          "type": "uint256"
        },
        {
          "internalType": "address",
          "name": "nodeAddress",
          "type": "address"
        },
        {
          "internalType": "uint256",
          "name": "price",
          "type": "uint256"
        },
        {
          "internalType": "string",
          "name": "title",
          "type": "string"
        },
        {
          "internalType": "string",
          "name": "description",
          "type": "string"
        },
        {
          "internalType": "bool",
          "name": "isSelling",
          "type": "bool"
        }
      ],
      "stateMutability": "view",
      "type": "function"
    },
    {
      "inputs": [
        {
          "internalType": "uint256",
          "name": "tokenId",
          "type": "uint256"
        }
      ],
      "name": "burn",
      "outputs": [],
      "stateMutability": "nonpayable",
      "type": "function"
    },
    {
      "inputs": [
        {
          "internalType": "uint256",
          "name": "bundleId",
          "type": "uint256"
        }
      ],
      "name": "buy",
      "outputs": [],
      "stateMutability": "payable",
      "type": "function"
    },
    {
      "inputs": [
        {
          "internalType": "bytes32",
          "name": "subscriptionName",
          "type": "bytes32"
        }
      ],
      "name": "createSubscription",
      "outputs": [],
      "stateMutability": "nonpayable",
      "type": "function"
    },
    {
      "inputs": [
        {
          "internalType": "address",
          "name": "tokenAddress",
          "type": "address"
        },
        {
          "internalType": "uint256",
          "name": "tokenId",
          "type": "uint256"
        },
        {
          "internalType": "uint256",
          "name": "amount",
          "type": "uint256"
        },
        {
          "internalType": "uint256",
          "name": "bundleId",
          "type": "uint256"
        },
        {
          "internalType": "string",
          "name": "title",
          "type": "string"
        }
      ],
      "name": "depositERC1155",
      "outputs": [],
      "stateMutability": "nonpayable",
      "type": "function"
    },
    {
      "inputs": [
        {
          "internalType": "address",
          "name": "tokenAddress",
          "type": "address"
        },
        {
          "internalType": "uint256",
          "name": "amount",
          "type": "uint256"
        },
        {
          "internalType": "uint256",
          "name": "bundleId",
          "type": "uint256"
        },
        {
          "internalType": "string",
          "name": "title",
          "type": "string"
        }
      ],
      "name": "depositERC20",
      "outputs": [],
      "stateMutability": "nonpayable",
      "type": "function"
    },
    {
      "inputs": [
        {
          "internalType": "address",
          "name": "tokenAddress",
          "type": "address"
        },
        {
          "internalType": "uint256",
          "name": "tokenId",
          "type": "uint256"
        },
        {
          "internalType": "uint256",
          "name": "bundleId",
          "type": "uint256"
        },
        {
          "internalType": "string",
          "name": "title",
          "type": "string"
        }
      ],
      "name": "depositERC721",
      "outputs": [],
      "stateMutability": "nonpayable",
      "type": "function"
    },
    {
      "inputs": [
        {
          "internalType": "uint256",
          "name": "tokenId",
          "type": "uint256"
        }
      ],
      "name": "getApproved",
      "outputs": [
        {
          "internalType": "address",
          "name": "",
          "type": "address"
        }
      ],
      "stateMutability": "view",
      "type": "function"
    },
    {
      "inputs": [
        {
          "internalType": "address",
          "name": "seller",
          "type": "address"
        }
      ],
      "name": "getBundleIdsByAddress",
      "outputs": [
        {
          "internalType": "uint256[]",
          "name": "",
          "type": "uint256[]"
        }
      ],
      "stateMutability": "view",
      "type": "function"
    },
    {
      "inputs": [
        {
          "internalType": "uint256",
          "name": "tokenId",
          "type": "uint256"
        }
      ],
      "name": "getBundles",
      "outputs": [
        {
          "components": [
            {
              "internalType": "address",
              "name": "owner",
              "type": "address"
            },
            {
              "internalType": "uint256",
              "name": "bundleId",
              "type": "uint256"
            },
            {
              "internalType": "address",
              "name": "nodeAddress",
              "type": "address"
            },
            {
              "internalType": "uint256",
              "name": "price",
              "type": "uint256"
            },
            {
              "internalType": "string",
              "name": "title",
              "type": "string"
            },
            {
              "internalType": "string",
              "name": "description",
              "type": "string"
            },
            {
              "internalType": "bool",
              "name": "isSelling",
              "type": "bool"
            },
            {
              "components": [
                {
                  "internalType": "address",
                  "name": "tokenAddress",
                  "type": "address"
                },
                {
                  "internalType": "uint256",
                  "name": "tokenId",
                  "type": "uint256"
                },
                {
                  "internalType": "string",
                  "name": "title",
                  "type": "string"
                }
              ],
              "internalType": "struct AssetWrapper.ERC721Holding[]",
              "name": "bundleERC721",
              "type": "tuple[]"
            },
            {
              "components": [
                {
                  "internalType": "address",
                  "name": "tokenAddress",
                  "type": "address"
                },
                {
                  "internalType": "uint256",
                  "name": "tokenId",
                  "type": "uint256"
                },
                {
                  "internalType": "uint256",
                  "name": "amount",
                  "type": "uint256"
                },
                {
                  "internalType": "string",
                  "name": "title",
                  "type": "string"
                }
              ],
              "internalType": "struct AssetWrapper.ERC1155Holding[]",
              "name": "bundleERC1155",
              "type": "tuple[]"
            },
            {
              "components": [
                {
                  "internalType": "address",
                  "name": "tokenAddress",
                  "type": "address"
                },
                {
                  "internalType": "uint256",
                  "name": "amount",
                  "type": "uint256"
                },
                {
                  "internalType": "string",
                  "name": "title",
                  "type": "string"
                }
              ],
              "internalType": "struct AssetWrapper.ERC20Holding[]",
              "name": "bundleERC20",
              "type": "tuple[]"
            }
          ],
          "internalType": "struct AssetWrapper.Bundle",
          "name": "",
          "type": "tuple"
        }
      ],
      "stateMutability": "view",
      "type": "function"
    },
    {
      "inputs": [
        {
          "internalType": "uint256",
          "name": "groupId",
          "type": "uint256"
        }
      ],
      "name": "getDepth",
      "outputs": [
        {
          "internalType": "uint8",
          "name": "",
          "type": "uint8"
        }
      ],
      "stateMutability": "view",
      "type": "function"
    },
    {
      "inputs": [
        {
          "internalType": "uint256",
          "name": "groupId",
          "type": "uint256"
        }
      ],
      "name": "getNumberOfLeaves",
      "outputs": [
        {
          "internalType": "uint256",
          "name": "",
          "type": "uint256"
        }
      ],
      "stateMutability": "view",
      "type": "function"
    },
    {
      "inputs": [
        {
          "internalType": "uint256",
          "name": "groupId",
          "type": "uint256"
        }
      ],
      "name": "getRoot",
      "outputs": [
        {
          "internalType": "uint256",
          "name": "",
          "type": "uint256"
        }
      ],
      "stateMutability": "view",
      "type": "function"
    },
    {
      "inputs": [
        {
          "internalType": "address",
          "name": "to",
          "type": "address"
        },
        {
          "internalType": "uint256",
          "name": "groupId",
          "type": "uint256"
        },
        {
          "internalType": "string",
          "name": "title",
          "type": "string"
        },
        {
          "internalType": "string",
          "name": "description",
          "type": "string"
        },
        {
          "internalType": "bytes32",
          "name": "signal",
          "type": "bytes32"
        },
        {
          "internalType": "uint256",
          "name": "_nullifierHash",
          "type": "uint256"
        },
        {
          "internalType": "uint256[8]",
          "name": "_proof",
          "type": "uint256[8]"
        }
      ],
      "name": "initializeBundle",
      "outputs": [
        {
          "internalType": "uint256",
          "name": "",
          "type": "uint256"
        }
      ],
      "stateMutability": "nonpayable",
      "type": "function"
    },
    {
      "inputs": [
        {
          "internalType": "address",
          "name": "owner",
          "type": "address"
        },
        {
          "internalType": "address",
          "name": "operator",
          "type": "address"
        }
      ],
      "name": "isApprovedForAll",
      "outputs": [
        {
          "internalType": "bool",
          "name": "",
          "type": "bool"
        }
      ],
      "stateMutability": "view",
      "type": "function"
    },
    {
      "inputs": [],
      "name": "name",
      "outputs": [
        {
          "internalType": "string",
          "name": "",
          "type": "string"
        }
      ],
      "stateMutability": "view",
      "type": "function"
    },
    {
      "inputs": [
        {
          "internalType": "address",
          "name": "owner",
          "type": "address"
        }
      ],
      "name": "nonces",
      "outputs": [
        {
          "internalType": "uint256",
          "name": "",
          "type": "uint256"
        }
      ],
      "stateMutability": "view",
      "type": "function"
    },
    {
      "inputs": [
        {
          "internalType": "address",
          "name": "",
          "type": "address"
        },
        {
          "internalType": "address",
          "name": "",
          "type": "address"
        },
        {
          "internalType": "uint256[]",
          "name": "",
          "type": "uint256[]"
        },
        {
          "internalType": "uint256[]",
          "name": "",
          "type": "uint256[]"
        },
        {
          "internalType": "bytes",
          "name": "",
          "type": "bytes"
        }
      ],
      "name": "onERC1155BatchReceived",
      "outputs": [
        {
          "internalType": "bytes4",
          "name": "",
          "type": "bytes4"
        }
      ],
      "stateMutability": "nonpayable",
      "type": "function"
    },
    {
      "inputs": [
        {
          "internalType": "address",
          "name": "",
          "type": "address"
        },
        {
          "internalType": "address",
          "name": "",
          "type": "address"
        },
        {
          "internalType": "uint256",
          "name": "",
          "type": "uint256"
        },
        {
          "internalType": "uint256",
          "name": "",
          "type": "uint256"
        },
        {
          "internalType": "bytes",
          "name": "",
          "type": "bytes"
        }
      ],
      "name": "onERC1155Received",
      "outputs": [
        {
          "internalType": "bytes4",
          "name": "",
          "type": "bytes4"
        }
      ],
      "stateMutability": "nonpayable",
      "type": "function"
    },
    {
      "inputs": [
        {
          "internalType": "address",
          "name": "",
          "type": "address"
        },
        {
          "internalType": "address",
          "name": "",
          "type": "address"
        },
        {
          "internalType": "uint256",
          "name": "",
          "type": "uint256"
        },
        {
          "internalType": "bytes",
          "name": "",
          "type": "bytes"
        }
      ],
      "name": "onERC721Received",
      "outputs": [
        {
          "internalType": "bytes4",
          "name": "",
          "type": "bytes4"
        }
      ],
      "stateMutability": "nonpayable",
      "type": "function"
    },
    {
      "inputs": [],
      "name": "owner",
      "outputs": [
        {
          "internalType": "address",
          "name": "",
          "type": "address"
        }
      ],
      "stateMutability": "view",
      "type": "function"
    },
    {
      "inputs": [
        {
          "internalType": "uint256",
          "name": "tokenId",
          "type": "uint256"
        }
      ],
      "name": "ownerOf",
      "outputs": [
        {
          "internalType": "address",
          "name": "",
          "type": "address"
        }
      ],
      "stateMutability": "view",
      "type": "function"
    },
    {
      "inputs": [
        {
          "internalType": "address",
          "name": "owner",
          "type": "address"
        },
        {
          "internalType": "address",
          "name": "spender",
          "type": "address"
        },
        {
          "internalType": "uint256",
          "name": "tokenId",
          "type": "uint256"
        },
        {
          "internalType": "uint256",
          "name": "deadline",
          "type": "uint256"
        },
        {
          "internalType": "uint8",
          "name": "v",
          "type": "uint8"
        },
        {
          "internalType": "bytes32",
          "name": "r",
          "type": "bytes32"
        },
        {
          "internalType": "bytes32",
          "name": "s",
          "type": "bytes32"
        }
      ],
      "name": "permit",
      "outputs": [],
      "stateMutability": "nonpayable",
      "type": "function"
    },
    {
      "inputs": [],
      "name": "renounceOwnership",
      "outputs": [],
      "stateMutability": "nonpayable",
      "type": "function"
    },
    {
      "inputs": [
        {
          "internalType": "address",
          "name": "from",
          "type": "address"
        },
        {
          "internalType": "address",
          "name": "to",
          "type": "address"
        },
        {
          "internalType": "uint256",
          "name": "tokenId",
          "type": "uint256"
        }
      ],
      "name": "safeTransferFrom",
      "outputs": [],
      "stateMutability": "nonpayable",
      "type": "function"
    },
    {
      "inputs": [
        {
          "internalType": "address",
          "name": "from",
          "type": "address"
        },
        {
          "internalType": "address",
          "name": "to",
          "type": "address"
        },
        {
          "internalType": "uint256",
          "name": "tokenId",
          "type": "uint256"
        },
        {
          "internalType": "bytes",
          "name": "data",
          "type": "bytes"
        }
      ],
      "name": "safeTransferFrom",
      "outputs": [],
      "stateMutability": "nonpayable",
      "type": "function"
    },
    {
      "inputs": [
        {
          "internalType": "uint256",
          "name": "bundleId",
          "type": "uint256"
        },
        {
          "internalType": "uint256",
          "name": "price",
          "type": "uint256"
        },
        {
          "internalType": "address",
          "name": "nodeAddress",
          "type": "address"
        }
      ],
      "name": "sell",
      "outputs": [],
      "stateMutability": "nonpayable",
      "type": "function"
    },
    {
      "inputs": [
        {
          "internalType": "address",
          "name": "operator",
          "type": "address"
        },
        {
          "internalType": "bool",
          "name": "approved",
          "type": "bool"
        }
      ],
      "name": "setApprovalForAll",
      "outputs": [],
      "stateMutability": "nonpayable",
      "type": "function"
    },
    {
      "inputs": [
        {
          "internalType": "bytes4",
          "name": "interfaceId",
          "type": "bytes4"
        }
      ],
      "name": "supportsInterface",
      "outputs": [
        {
          "internalType": "bool",
          "name": "",
          "type": "bool"
        }
      ],
      "stateMutability": "view",
      "type": "function"
    },
    {
      "inputs": [],
      "name": "symbol",
      "outputs": [
        {
          "internalType": "string",
          "name": "",
          "type": "string"
        }
      ],
      "stateMutability": "view",
      "type": "function"
    },
    {
      "inputs": [
        {
          "internalType": "uint256",
          "name": "index",
          "type": "uint256"
        }
      ],
      "name": "tokenByIndex",
      "outputs": [
        {
          "internalType": "uint256",
          "name": "",
          "type": "uint256"
        }
      ],
      "stateMutability": "view",
      "type": "function"
    },
    {
      "inputs": [
        {
          "internalType": "address",
          "name": "owner",
          "type": "address"
        },
        {
          "internalType": "uint256",
          "name": "index",
          "type": "uint256"
        }
      ],
      "name": "tokenOfOwnerByIndex",
      "outputs": [
        {
          "internalType": "uint256",
          "name": "",
          "type": "uint256"
        }
      ],
      "stateMutability": "view",
      "type": "function"
    },
    {
      "inputs": [
        {
          "internalType": "uint256",
          "name": "tokenId",
          "type": "uint256"
        }
      ],
      "name": "tokenURI",
      "outputs": [
        {
          "internalType": "string",
          "name": "",
          "type": "string"
        }
      ],
      "stateMutability": "view",
      "type": "function"
    },
    {
      "inputs": [],
      "name": "totalSupply",
      "outputs": [
        {
          "internalType": "uint256",
          "name": "",
          "type": "uint256"
        }
      ],
      "stateMutability": "view",
      "type": "function"
    },
    {
      "inputs": [
        {
          "internalType": "address",
          "name": "from",
          "type": "address"
        },
        {
          "internalType": "address",
          "name": "to",
          "type": "address"
        },
        {
          "internalType": "uint256",
          "name": "tokenId",
          "type": "uint256"
        }
      ],
      "name": "transferFrom",
      "outputs": [],
      "stateMutability": "nonpayable",
      "type": "function"
    },
    {
      "inputs": [
        {
          "internalType": "address",
          "name": "newOwner",
          "type": "address"
        }
      ],
      "name": "transferOwnership",
      "outputs": [],
      "stateMutability": "nonpayable",
      "type": "function"
    },
    {
      "inputs": [],
      "name": "treeDepth",
      "outputs": [
        {
          "internalType": "uint8",
          "name": "",
          "type": "uint8"
        }
      ],
      "stateMutability": "view",
      "type": "function"
    },
    {
      "inputs": [],
      "name": "verifier",
      "outputs": [
        {
          "internalType": "contract IVerifier",
          "name": "",
          "type": "address"
        }
      ],
      "stateMutability": "view",
      "type": "function"
    },
    {
      "inputs": [
        {
          "internalType": "uint256",
          "name": "bundleId",
          "type": "uint256"
        }
      ],
      "name": "withdraw",
      "outputs": [],
      "stateMutability": "nonpayable",
      "type": "function"
    }
  ],
  "bytecode": "0x6101606040527f48d39b37a35214940203bbbd4f383519797769b13d936f387d89430afef27688610140523480156200003757600080fd5b5060405162005f0338038062005f038339810160408190526200005a9162000340565b8380604051806040016040528060018152602001603160f81b8152508686816000908051906020019062000090929190620001cd565b508051620000a6906001906020840190620001cd565b5050825160209384012082519284019290922060e08390526101008190524660a0818152604080517f8b73c3c69bb8fe3d512ecc4cf759cc79239f7b179b0ffacaa9a75d522b39400f818901819052818301979097526060810194909452608080850193909352308483018190528151808603909301835260c0948501909152815191909601209052929092526101205250620001459050336200017b565b6011805460ff909216600160a01b026001600160a81b03199092166001600160a01b039093169290921717905550620004239050565b600b80546001600160a01b038381166001600160a01b0319831681179093556040519116919082907f8be0079c531659141344cd1fd0a4f28419497f9722a3daafe3b4186f6b6457e090600090a35050565b828054620001db90620003e6565b90600052602060002090601f016020900481019282620001ff57600085556200024a565b82601f106200021a57805160ff19168380011785556200024a565b828001600101855582156200024a579182015b828111156200024a5782518255916020019190600101906200022d565b50620002589291506200025c565b5090565b5b808211156200025857600081556001016200025d565b634e487b7160e01b600052604160045260246000fd5b600082601f8301126200029b57600080fd5b81516001600160401b0380821115620002b857620002b862000273565b604051601f8301601f19908116603f01168101908282118183101715620002e357620002e362000273565b816040528381526020925086838588010111156200030057600080fd5b600091505b8382101562000324578582018301518183018401529082019062000305565b83821115620003365760008385830101525b9695505050505050565b600080600080608085870312156200035757600080fd5b84516001600160401b03808211156200036f57600080fd5b6200037d8883890162000289565b955060208701519150808211156200039457600080fd5b50620003a38782880162000289565b604087015190945090506001600160a01b0381168114620003c357600080fd5b606086015190925060ff81168114620003db57600080fd5b939692955090935050565b600181811c90821680620003fb57607f821691505b602082108114156200041d57634e487b7160e01b600052602260045260246000fd5b50919050565b60805160a05160c05160e051610100516101205161014051615a856200047e60003960006122a50152600061393a0152600061398901526000613964015260006138bd015260006138e7015260006139110152615a856000f3fe6080604052600436106102675760003560e01c8063715018a611610144578063c87b56dd116100b6578063e985e9c51161007a578063e985e9c5146107b4578063ee131360146107fd578063f12e9d561461081d578063f23a6e611461083d578063f2fde38b14610869578063fcd500771461088957600080fd5b8063c87b56dd1461070e578063cf19384b1461072e578063d04c698314610761578063d505accf14610781578063d96a094a146107a157600080fd5b806395d89b411161010857806395d89b411461062d5780639b24b3b014610642578063a22cb46514610672578063b88d4fde14610692578063b9c78c2b146106b2578063bc197c81146106e257600080fd5b8063715018a61461057d5780637216902b1461059257806375e618c9146105bf5780637ecebe00146105ef5780638da5cb5b1461060f57600080fd5b80632b7ac3f3116101dd57806342966c68116101a157806342966c68146104bd5780634df7f535146104dd5780634f6ccce7146104fd5780636352211e1461051d57806370a082311461053d57806370d407e21461055d57600080fd5b80632b7ac3f3146104285780632e1a7d4d146104485780632f745c59146104685780633644e5151461048857806342842e0e1461049d57600080fd5b806309a8740b1161022f57806309a8740b1461033d578063150b7a021461035d57806316a56c41146103965780631783efc3146103c957806318160ddd146103e957806323b872dd1461040857600080fd5b806301ffc9a71461026c57806306fdde03146102a1578063081812fc146102c35780630857fc77146102fb578063095ea7b31461031d575b600080fd5b34801561027857600080fd5b5061028c610287366004614d4b565b6108b6565b60405190151581526020015b60405180910390f35b3480156102ad57600080fd5b506102b66108c7565b6040516102989190614dc0565b3480156102cf57600080fd5b506102e36102de366004614dd3565b610959565b6040516001600160a01b039091168152602001610298565b34801561030757600080fd5b5061031b610316366004614ebf565b610980565b005b34801561032957600080fd5b5061031b610338366004614f20565b610a94565b34801561034957600080fd5b5061031b610358366004614f4a565b610baa565b34801561036957600080fd5b5061037d610378366004614fb5565b610d1d565b6040516001600160e01b03199091168152602001610298565b3480156103a257600080fd5b506011546103b790600160a01b900460ff1681565b60405160ff9091168152602001610298565b3480156103d557600080fd5b5061031b6103e4366004615005565b610d2e565b3480156103f557600080fd5b506008545b604051908152602001610298565b34801561041457600080fd5b5061031b610423366004615027565b610d44565b34801561043457600080fd5b506011546102e3906001600160a01b031681565b34801561045457600080fd5b5061031b610463366004614dd3565b610d76565b34801561047457600080fd5b506103fa610483366004614f20565b611465565b34801561049457600080fd5b506103fa6114fb565b3480156104a957600080fd5b5061031b6104b8366004615027565b61150a565b3480156104c957600080fd5b5061031b6104d8366004614dd3565b611525565b3480156104e957600080fd5b506103fa6104f8366004614f20565b611556565b34801561050957600080fd5b506103fa610518366004614dd3565b611587565b34801561052957600080fd5b506102e3610538366004614dd3565b61161a565b34801561054957600080fd5b506103fa610558366004615063565b61167a565b34801561056957600080fd5b5061031b610578366004614dd3565b611700565b34801561058957600080fd5b5061031b61176e565b34801561059e57600080fd5b506105b26105ad366004615063565b611782565b604051610298919061507e565b3480156105cb57600080fd5b506103b76105da366004614dd3565b6000908152600d602052604090205460ff1690565b3480156105fb57600080fd5b506103fa61060a366004615063565b6117ee565b34801561061b57600080fd5b50600b546001600160a01b03166102e3565b34801561063957600080fd5b506102b661180c565b34801561064e57600080fd5b506103fa61065d366004614dd3565b6000908152600d602052604090206001015490565b34801561067e57600080fd5b5061031b61068d3660046150d0565b61181b565b34801561069e57600080fd5b5061031b6106ad366004614fb5565b611826565b3480156106be57600080fd5b506103fa6106cd366004614dd3565b6000908152600d602052604090206002015490565b3480156106ee57600080fd5b5061037d6106fd36600461517c565b63bc197c8160e01b95945050505050565b34801561071a57600080fd5b506102b6610729366004614dd3565b61185e565b34801561073a57600080fd5b5061074e610749366004614dd3565b6118d2565b6040516102989796959493929190615219565b34801561076d57600080fd5b5061031b61077c36600461527c565b611a2e565b34801561078d57600080fd5b5061031b61079c3660046152b1565b6121e8565b61031b6107af366004614dd3565b6123b4565b3480156107c057600080fd5b5061028c6107cf366004615324565b6001600160a01b03918216600090815260056020908152604080832093909416825291909152205460ff1690565b34801561080957600080fd5b5061031b610818366004614ebf565b612ba1565b34801561082957600080fd5b506103fa610838366004615357565b612cf4565b34801561084957600080fd5b5061037d610858366004615403565b63f23a6e6160e01b95945050505050565b34801561087557600080fd5b5061031b610884366004615063565b612df2565b34801561089557600080fd5b506108a96108a4366004614dd3565b612e68565b6040516102989190615555565b60006108c18261339e565b92915050565b6060600080546108d690615653565b80601f016020809104026020016040519081016040528092919081815260200182805461090290615653565b801561094f5780601f106109245761010080835404028352916020019161094f565b820191906000526020600020905b81548152906001019060200180831161093257829003601f168201915b5050505050905090565b6000610964826133c3565b506000908152600460205260409020546001600160a01b031690565b61098982613413565b6109ae5760405162461bcd60e51b81526004016109a590615688565b60405180910390fd5b6109ba84333086613430565b6000828152600f6020908152604080832081516060810183526001600160a01b038981168252818501898152938201878152600990930180546001808201835591885296869020835160039098020180546001600160a01b031916979092169690961781559251948301949094555180519192610a3f92600285019290910190614b59565b50505081610a4a3390565b6001600160a01b03167f2c38d402da79dffac27851109f33fb0250ccce9f92a27a47c01bb7ba0246f970868685604051610a86939291906156b7565b60405180910390a350505050565b6000610a9f8261161a565b9050806001600160a01b0316836001600160a01b03161415610b0d5760405162461bcd60e51b815260206004820152602160248201527f4552433732313a20617070726f76616c20746f2063757272656e74206f776e656044820152603960f91b60648201526084016109a5565b336001600160a01b0382161480610b295750610b2981336107cf565b610b9b5760405162461bcd60e51b815260206004820152603e60248201527f4552433732313a20617070726f76652063616c6c6572206973206e6f7420746f60448201527f6b656e206f776e6572206e6f7220617070726f76656420666f7220616c6c000060648201526084016109a5565b610ba58383613488565b505050565b610bb382613413565b610bcf5760405162461bcd60e51b81526004016109a590615688565b604051637921219560e11b81526001600160a01b0386169063f242432a90610c019033903090899089906004016156e7565b600060405180830381600087803b158015610c1b57600080fd5b505af1158015610c2f573d6000803e3d6000fd5b5050506000838152600f6020908152604080832081516080810183526001600160a01b038b811682528185018b81529382018a815260608301898152600890940180546001808201835591895297879020845160049099020180546001600160a01b0319169890931697909717825593519581019590955591516002850155518051919450610cc5926003850192910190614b59565b50505081610cd03390565b6001600160a01b03167fe7b3cd57fa937d857f83b1d092f8cc31d2af32485f15c753dc9f6a78a36756ef87878786604051610d0e949392919061571f565b60405180910390a35050505050565b630a85bd0160e11b5b949350505050565b610d366134f6565b610d408282613550565b5050565b610d4f335b8261368b565b610d6b5760405162461bcd60e51b81526004016109a59061574c565b610ba5838383613709565b610d7f33610d49565b610dd65760405162461bcd60e51b815260206004820152602260248201527f4173736574577261707065723a204e6f6e2d6f776e6572207769746864726177604482015261185b60f21b60648201526084016109a5565b610ddf81611525565b6000818152600f6020908152604080832060090180548251818502810185019093528083529192909190849084015b82821015610ef2576000848152602090819020604080516060810182526003860290920180546001600160a01b0316835260018101549383019390935260028301805492939291840191610e6190615653565b80601f0160208091040260200160405190810160405280929190818152602001828054610e8d90615653565b8015610eda5780601f10610eaf57610100808354040283529160200191610eda565b820191906000526020600020905b815481529060010190602001808311610ebd57829003601f168201915b50505050508152505081526020019060010190610e0e565b50505050905060005b8151811015610f7e57610f6c828281518110610f1957610f1961579a565b602002602001015160000151610f2c3390565b6000868152600f602052604090205485516001600160a01b0390911690869086908110610f5b57610f5b61579a565b602002602001015160200151613430565b80610f76816157c6565b915050610efb565b506000828152600f6020908152604080832060070180548251818502810185019093528083529192909190849084015b82821015611092576000848152602090819020604080516060810182526003860290920180546001600160a01b031683526001810154938301939093526002830180549293929184019161100190615653565b80601f016020809104026020016040519081016040528092919081815260200182805461102d90615653565b801561107a5780601f1061104f5761010080835404028352916020019161107a565b820191906000526020600020905b81548152906001019060200180831161105d57829003601f168201915b50505050508152505081526020019060010190610fae565b50505050905060005b8151811015611175578181815181106110b6576110b661579a565b6020026020010151600001516001600160a01b03166342842e0e6110d73390565b6000878152600f602052604090205485516001600160a01b03909116908690869081106111065761110661579a565b6020026020010151602001516040518463ffffffff1660e01b8152600401611130939291906157e1565b600060405180830381600087803b15801561114a57600080fd5b505af115801561115e573d6000803e3d6000fd5b50505050808061116d906157c6565b91505061109b565b506000838152600f6020908152604080832060080180548251818502810185019093528083529192909190849084015b82821015611294576000848152602090819020604080516080810182526004860290920180546001600160a01b0316835260018101549383019390935260028301549082015260038201805491929160608401919061120390615653565b80601f016020809104026020016040519081016040528092919081815260200182805461122f90615653565b801561127c5780601f106112515761010080835404028352916020019161127c565b820191906000526020600020905b81548152906001019060200180831161125f57829003601f168201915b505050505081525050815260200190600101906111a5565b50505050905060005b8151811015611396578181815181106112b8576112b861579a565b6020026020010151600001516001600160a01b031663f242432a6112d93390565b6000888152600f602052604090205485516001600160a01b03909116908690869081106113085761130861579a565b6020026020010151602001518686815181106113265761132661579a565b6020026020010151604001516040518563ffffffff1660e01b815260040161135194939291906156e7565b600060405180830381600087803b15801561136b57600080fd5b505af115801561137f573d6000803e3d6000fd5b50505050808061138e906157c6565b91505061129d565b506000848152600f6020526040812080546001600160a01b0319908116825560018201839055600282018054909116905560038101829055906113dc6004830182614bdd565b6113ea600583016000614bdd565b60068201805460ff19169055611404600783016000614c17565b611412600883016000614c38565b611420600983016000614c59565b50508361142a3390565b6001600160a01b03167f884edad9ce6fa2440d8a54cc123490eb96d2768479d49ff9c7366125a942436460405160405180910390a350505050565b60006114708361167a565b82106114d25760405162461bcd60e51b815260206004820152602b60248201527f455243373231456e756d657261626c653a206f776e657220696e646578206f7560448201526a74206f6620626f756e647360a81b60648201526084016109a5565b506001600160a01b03919091166000908152600660209081526040808320938352929052205490565b60006115056138b0565b905090565b610ba583838360405180602001604052806000815250611826565b61152e33610d49565b61154a5760405162461bcd60e51b81526004016109a59061574c565b611553816139d7565b50565b6010602052816000526040600020818154811061157257600080fd5b90600052602060002001600091509150505481565b600061159260085490565b82106115f55760405162461bcd60e51b815260206004820152602c60248201527f455243373231456e756d657261626c653a20676c6f62616c20696e646578206f60448201526b7574206f6620626f756e647360a01b60648201526084016109a5565b600882815481106116085761160861579a565b90600052602060002001549050919050565b6000818152600260205260408120546001600160a01b0316806108c15760405162461bcd60e51b8152602060048201526018602482015277115490cdcc8c4e881a5b9d985b1a59081d1bdad95b88125160421b60448201526064016109a5565b60006001600160a01b0382166116e45760405162461bcd60e51b815260206004820152602960248201527f4552433732313a2061646472657373207a65726f206973206e6f7420612076616044820152683634b21037bbb732b960b91b60648201526084016109a5565b506001600160a01b031660009081526003602052604090205490565b6117086134f6565b600061171382613a7e565b905061173081601160149054906101000a900460ff166000613ab5565b807f98993bc5c28e3f8cc425fe5bdc2a74485bb4a8761cc410000535820567616e078360405161176291815260200190565b60405180910390a25050565b6117766134f6565b6117806000613c6e565b565b6001600160a01b0381166000908152601060209081526040918290208054835181840281018401909452808452606093928301828280156117e257602002820191906000526020600020905b8154815260200190600101908083116117ce575b50505050509050919050565b6001600160a01b0381166000908152600a60205260408120546108c1565b6060600180546108d690615653565b610d40338383613cc0565b611830338361368b565b61184c5760405162461bcd60e51b81526004016109a59061574c565b61185884848484613d8f565b50505050565b6060611869826133c3565b600061188060408051602081019091526000815290565b905060008151116118a057604051806020016040528060008152506118cb565b806118aa84613dc2565b6040516020016118bb929190615805565b6040516020818303038152906040525b9392505050565b600f60205260009081526040902080546001820154600283015460038401546004850180546001600160a01b0395861696949590931693919261191490615653565b80601f016020809104026020016040519081016040528092919081815260200182805461194090615653565b801561198d5780601f106119625761010080835404028352916020019161198d565b820191906000526020600020905b81548152906001019060200180831161197057829003601f168201915b5050505050908060050180546119a290615653565b80601f01602080910402602001604051908101604052809291908181526020018280546119ce90615653565b8015611a1b5780601f106119f057610100808354040283529160200191611a1b565b820191906000526020600020905b8154815290600101906020018083116119fe57829003601f168201915b5050506006909301549192505060ff1687565b611a3783613413565b611a745760405162461bcd60e51b815260206004820152600e60248201526d139bc8185cdcd95d08199bdd5b9960921b60448201526064016109a5565b6000838152600f60205260409020546001600160a01b03163314611ace5760405162461bcd60e51b81526020600482015260116024820152704e6f6e2d6f776e65722073656c6c696e6760781b60448201526064016109a5565b6000838152600f60205260409020600381018390556002810180546001600160a01b0319166001600160a01b038416179055600601805460ff19166001179055611b19338285613709565b6000838152600f6020908152604080832060090180548251818502810185019093528083529192909190849084015b82821015611c2c576000848152602090819020604080516060810182526003860290920180546001600160a01b0316835260018101549383019390935260028301805492939291840191611b9b90615653565b80601f0160208091040260200160405190810160405280929190818152602001828054611bc790615653565b8015611c145780601f10611be957610100808354040283529160200191611c14565b820191906000526020600020905b815481529060010190602001808311611bf757829003601f168201915b50505050508152505081526020019060010190611b48565b50505050905060005b8151811015611d7457818181518110611c5057611c5061579a565b6020026020010151600001516001600160a01b031663095ea7b330848481518110611c7d57611c7d61579a565b6020026020010151602001516040518363ffffffff1660e01b8152600401611cba9291906001600160a01b03929092168252602082015260400190565b602060405180830381600087803b158015611cd457600080fd5b505af1158015611ce8573d6000803e3d6000fd5b505050506040513d601f19601f82011682018060405250810190611d0c9190615834565b50611d62828281518110611d2257611d2261579a565b602090810291909101810151516000888152600f909252604090912060020154845130916001600160a01b031690869086908110610f5b57610f5b61579a565b80611d6c816157c6565b915050611c35565b506000848152600f6020908152604080832060070180548251818502810185019093528083529192909190849084015b82821015611e88576000848152602090819020604080516060810182526003860290920180546001600160a01b0316835260018101549383019390935260028301805492939291840191611df790615653565b80601f0160208091040260200160405190810160405280929190818152602001828054611e2390615653565b8015611e705780601f10611e4557610100808354040283529160200191611e70565b820191906000526020600020905b815481529060010190602001808311611e5357829003601f168201915b50505050508152505081526020019060010190611da4565b50505050905060005b8151811015611f7257818181518110611eac57611eac61579a565b6020026020010151600001516001600160a01b03166342842e0e30600f60008a815260200190815260200160002060020160009054906101000a90046001600160a01b0316858581518110611f0357611f0361579a565b6020026020010151602001516040518463ffffffff1660e01b8152600401611f2d939291906157e1565b600060405180830381600087803b158015611f4757600080fd5b505af1158015611f5b573d6000803e3d6000fd5b505050508080611f6a906157c6565b915050611e91565b506000858152600f6020908152604080832060080180548251818502810185019093528083529192909190849084015b82821015612091576000848152602090819020604080516080810182526004860290920180546001600160a01b0316835260018101549383019390935260028301549082015260038201805491929160608401919061200090615653565b80601f016020809104026020016040519081016040528092919081815260200182805461202c90615653565b80156120795780601f1061204e57610100808354040283529160200191612079565b820191906000526020600020905b81548152906001019060200180831161205c57829003601f168201915b50505050508152505081526020019060010190611fa2565b50505050905060005b815181101561219a578181815181106120b5576120b561579a565b6020026020010151600001516001600160a01b031663f242432a30600f60008b815260200190815260200160002060020160009054906101000a90046001600160a01b031685858151811061210c5761210c61579a565b60200260200101516020015186868151811061212a5761212a61579a565b6020026020010151604001516040518563ffffffff1660e01b815260040161215594939291906156e7565b600060405180830381600087803b15801561216f57600080fd5b505af1158015612183573d6000803e3d6000fd5b505050508080612192906157c6565b91505061209a565b50604080518681526001600160a01b0386166020820152879133917fa6d85d74c0cd12545d70d9fc97faa33f913191cbd39f3785815c095c76f82822910160405180910390a3505050505050565b834211156122385760405162461bcd60e51b815260206004820152601e60248201527f4552433732315065726d69743a206578706972656420646561646c696e65000060448201526064016109a5565b6122418561161a565b6001600160a01b0316876001600160a01b0316146122a15760405162461bcd60e51b815260206004820152601760248201527f4552433732315065726d69743a206e6f74206f776e657200000000000000000060448201526064016109a5565b60007f00000000000000000000000000000000000000000000000000000000000000008888886122d08c613ec0565b6040805160208101969096526001600160a01b0394851690860152929091166060840152608083015260a082015260c0810186905260e001604051602081830303815290604052805190602001209050600061232b82613ee8565b9050600061233b82878787613f36565b9050896001600160a01b0316816001600160a01b03161461239e5760405162461bcd60e51b815260206004820152601f60248201527f4552433732315065726d69743a20696e76616c6964207369676e61747572650060448201526064016109a5565b6123a88989613488565b50505050505050505050565b6123bd81613413565b6123fa5760405162461bcd60e51b815260206004820152600e60248201526d139bc8185cdcd95d08199bdd5b9960921b60448201526064016109a5565b6000818152600f60205260409020600301543410156124505760405162461bcd60e51b8152602060048201526012602482015271496e73756666696369656e7420707269636560701b60448201526064016109a5565b6000818152600f6020908152604080832060090180548251818502810185019093528083529192909190849084015b82821015612563576000848152602090819020604080516060810182526003860290920180546001600160a01b03168352600181015493830193909352600283018054929392918401916124d290615653565b80601f01602080910402602001604051908101604052809291908181526020018280546124fe90615653565b801561254b5780601f106125205761010080835404028352916020019161254b565b820191906000526020600020905b81548152906001019060200180831161252e57829003601f168201915b5050505050815250508152602001906001019061247f565b50505050905060005b81518110156126a7578181815181106125875761258761579a565b6020026020010151600001516001600160a01b031663095ea7b3308484815181106125b4576125b461579a565b6020026020010151602001516040518363ffffffff1660e01b81526004016125f19291906001600160a01b03929092168252602082015260400190565b602060405180830381600087803b15801561260b57600080fd5b505af115801561261f573d6000803e3d6000fd5b505050506040513d601f19601f820116820180604052508101906126439190615834565b506126958282815181106126595761265961579a565b602090810291909101810151516000868152600f9092526040909120600201546001600160a01b031633858581518110610f5b57610f5b61579a565b8061269f816157c6565b91505061256c565b506000828152600f6020908152604080832060070180548251818502810185019093528083529192909190849084015b828210156127bb576000848152602090819020604080516060810182526003860290920180546001600160a01b031683526001810154938301939093526002830180549293929184019161272a90615653565b80601f016020809104026020016040519081016040528092919081815260200182805461275690615653565b80156127a35780601f10612778576101008083540402835291602001916127a3565b820191906000526020600020905b81548152906001019060200180831161278657829003601f168201915b505050505081525050815260200190600101906126d7565b50505050905060005b8151811015612894578181815181106127df576127df61579a565b602090810291909101810151516000868152600f9092526040909120600201546001600160a01b03918216916342842e0e9116338585815181106128255761282561579a565b6020026020010151602001516040518463ffffffff1660e01b815260040161284f939291906157e1565b600060405180830381600087803b15801561286957600080fd5b505af115801561287d573d6000803e3d6000fd5b50505050808061288c906157c6565b9150506127c4565b506000838152600f6020908152604080832060080180548251818502810185019093528083529192909190849084015b828210156129b3576000848152602090819020604080516080810182526004860290920180546001600160a01b0316835260018101549383019390935260028301549082015260038201805491929160608401919061292290615653565b80601f016020809104026020016040519081016040528092919081815260200182805461294e90615653565b801561299b5780601f106129705761010080835404028352916020019161299b565b820191906000526020600020905b81548152906001019060200180831161297e57829003601f168201915b505050505081525050815260200190600101906128c4565b50505050905060005b8151811015612aab578181815181106129d7576129d761579a565b602090810291909101810151516000878152600f9092526040909120600201546001600160a01b039182169163f242432a911633858581518110612a1d57612a1d61579a565b602002602001015160200151868681518110612a3b57612a3b61579a565b6020026020010151604001516040518563ffffffff1660e01b8152600401612a6694939291906156e7565b600060405180830381600087803b158015612a8057600080fd5b505af1158015612a94573d6000803e3d6000fd5b505050508080612aa3906157c6565b9150506129bc565b5083336000868152600f6020908152604091829020600381015460029091015483519182526001600160a01b03908116928201929092529216917ff152feb5fe7641aae5c7f8e8187c26eef1a9d970f7c3794ac442f0842282d93f910160405180910390a36000848152600f6020526040812080546001600160a01b031990811682556001820183905560028201805490911690556003810182905590612b556004830182614bdd565b612b63600583016000614bdd565b60068201805460ff19169055612b7d600783016000614c17565b612b8b600883016000614c38565b612b99600983016000614c59565b505050505050565b612baa82613413565b612bc65760405162461bcd60e51b81526004016109a590615688565b6040516323b872dd60e01b81526001600160a01b038516906323b872dd90612bf6903390309088906004016157e1565b600060405180830381600087803b158015612c1057600080fd5b505af1158015612c24573d6000803e3d6000fd5b5050506000838152600f6020908152604080832081516060810183526001600160a01b038a811682528185018a8152938201888152600790930180546001808201835591885296869020835160039098020180546001600160a01b031916979092169690961781559251948301949094555180519394509092612cad9260028501920190614b59565b50505081612cb83390565b6001600160a01b03167f2596f64312234704338b66b3e65dd18b9bebcf90abe754c052376d6dff2fa477868685604051610a86939291906156b7565b6000868152600d6020526040812060010154601154612d25908690839087908c9088906001600160a01b0316613f5e565b6000612d30600e5490565b9050612d3c8a82614155565b612d4a600e80546001019055565b6001600160a01b038a16600081815260106020908152604080832080546001818101835591855283852001869055858452600f8352922080546001600160a01b03191690931783559082018390558951612daa92600401918b0190614b59565b50887f102229041138505f4cecdadc8e3ac1cd92c55870c17371050fc00bdb0888980187604051612ddd91815260200190565b60405180910390a29998505050505050505050565b612dfa6134f6565b6001600160a01b038116612e5f5760405162461bcd60e51b815260206004820152602660248201527f4f776e61626c653a206e6577206f776e657220697320746865207a65726f206160448201526564647265737360d01b60648201526084016109a5565b61155381613c6e565b612ed260405180610140016040528060006001600160a01b031681526020016000815260200160006001600160a01b031681526020016000815260200160608152602001606081526020016000151581526020016060815260200160608152602001606081525090565b6000828152600f602090815260409182902082516101408101845281546001600160a01b03908116825260018301549382019390935260028201549092169282019290925260038201546060820152600482018054919291608084019190612f3990615653565b80601f0160208091040260200160405190810160405280929190818152602001828054612f6590615653565b8015612fb25780601f10612f8757610100808354040283529160200191612fb2565b820191906000526020600020905b815481529060010190602001808311612f9557829003601f168201915b50505050508152602001600582018054612fcb90615653565b80601f0160208091040260200160405190810160405280929190818152602001828054612ff790615653565b80156130445780601f1061301957610100808354040283529160200191613044565b820191906000526020600020905b81548152906001019060200180831161302757829003601f168201915b5050509183525050600682015460ff161515602080830191909152600783018054604080518285028101850182528281529401939260009084015b82821015613163576000848152602090819020604080516060810182526003860290920180546001600160a01b03168352600181015493830193909352600283018054929392918401916130d290615653565b80601f01602080910402602001604051908101604052809291908181526020018280546130fe90615653565b801561314b5780601f106131205761010080835404028352916020019161314b565b820191906000526020600020905b81548152906001019060200180831161312e57829003601f168201915b5050505050815250508152602001906001019061307f565b50505050815260200160088201805480602002602001604051908101604052809291908181526020016000905b8282101561327f576000848152602090819020604080516080810182526004860290920180546001600160a01b031683526001810154938301939093526002830154908201526003820180549192916060840191906131ee90615653565b80601f016020809104026020016040519081016040528092919081815260200182805461321a90615653565b80156132675780601f1061323c57610100808354040283529160200191613267565b820191906000526020600020905b81548152906001019060200180831161324a57829003601f168201915b50505050508152505081526020019060010190613190565b50505050815260200160098201805480602002602001604051908101604052809291908181526020016000905b82821015613390576000848152602090819020604080516060810182526003860290920180546001600160a01b03168352600181015493830193909352600283018054929392918401916132ff90615653565b80601f016020809104026020016040519081016040528092919081815260200182805461332b90615653565b80156133785780601f1061334d57610100808354040283529160200191613378565b820191906000526020600020905b81548152906001019060200180831161335b57829003601f168201915b505050505081525050815260200190600101906132ac565b505050915250909392505050565b60006001600160e01b03198216630271189760e51b14806108c157506108c182614294565b6133cc81613413565b6115535760405162461bcd60e51b8152602060048201526018602482015277115490cdcc8c4e881a5b9d985b1a59081d1bdad95b88125160421b60448201526064016109a5565b6000908152600260205260409020546001600160a01b0316151590565b611858846323b872dd60e01b858585604051602401613451939291906157e1565b60408051601f198184030181529190526020810180516001600160e01b03166001600160e01b0319909316929092179091526142b9565b600081815260046020526040902080546001600160a01b0319166001600160a01b03841690811790915581906134bd8261161a565b6001600160a01b03167f8c5be1e5ebec7d5bd14f71427d1e84f3dd0314c0f7b2291e5b200ac8c7c3b92560405160405180910390a45050565b600b546001600160a01b031633146117805760405162461bcd60e51b815260206004820181905260248201527f4f776e61626c653a2063616c6c6572206973206e6f7420746865206f776e657260448201526064016109a5565b6000828152600d602052604090205460ff166135bc5760405162461bcd60e51b815260206004820152602560248201527f53656d6170686f726547726f7570733a2067726f757020646f6573206e6f7420604482015264195e1a5cdd60da1b60648201526084016109a5565b6000828152600d6020526040908190209051630b4381fd60e11b815260048101919091526024810182905273__$4c0484323457fe1a856f46a4759b553fe4$__9063168703fa9060440160006040518083038186803b15801561361e57600080fd5b505af4158015613632573d6000803e3d6000fd5b5050506000838152600d6020908152604091829020600101548251858152918201819052925084917f03fd27265b7dd1f55558bedc22a58fa3b10afb1be776e614bd5a7ba7b949940691015b60405180910390a2505050565b6000806136978361161a565b9050806001600160a01b0316846001600160a01b031614806136de57506001600160a01b0380821660009081526005602090815260408083209388168352929052205460ff165b80610d265750836001600160a01b03166136f784610959565b6001600160a01b031614949350505050565b826001600160a01b031661371c8261161a565b6001600160a01b0316146137805760405162461bcd60e51b815260206004820152602560248201527f4552433732313a207472616e736665722066726f6d20696e636f72726563742060448201526437bbb732b960d91b60648201526084016109a5565b6001600160a01b0382166137e25760405162461bcd60e51b8152602060048201526024808201527f4552433732313a207472616e7366657220746f20746865207a65726f206164646044820152637265737360e01b60648201526084016109a5565b6137ed83838361438b565b6137f8600082613488565b6001600160a01b0383166000908152600360205260408120805460019290613821908490615851565b90915550506001600160a01b038216600090815260036020526040812080546001929061384f908490615868565b909155505060008181526002602052604080822080546001600160a01b0319166001600160a01b0386811691821790925591518493918716917fddf252ad1be2c89b69c2b068fc378daa952ba7f163c4a11628f55a4df523b3ef91a4505050565b6000306001600160a01b037f00000000000000000000000000000000000000000000000000000000000000001614801561390957507f000000000000000000000000000000000000000000000000000000000000000046145b1561393357507f000000000000000000000000000000000000000000000000000000000000000090565b50604080517f00000000000000000000000000000000000000000000000000000000000000006020808301919091527f0000000000000000000000000000000000000000000000000000000000000000828401527f000000000000000000000000000000000000000000000000000000000000000060608301524660808301523060a0808401919091528351808403909101815260c0909201909252805191012090565b60006139e28261161a565b90506139f08160008461438b565b6139fb600083613488565b6001600160a01b0381166000908152600360205260408120805460019290613a24908490615851565b909155505060008281526002602052604080822080546001600160a01b0319169055518391906001600160a01b038416907fddf252ad1be2c89b69c2b068fc378daa952ba7f163c4a11628f55a4df523b3ef908390a45050565b6000600882604051602001613a9591815260200190565b60408051601f198184030181529190528051602090910120901c92915050565b7f30644e72e131a029b85045b68181585d2833e84879b9709143e1f593f00000018310613b435760405162461bcd60e51b815260206004820152603660248201527f53656d6170686f726547726f7570733a2067726f7570206964206d757374206260448201527519480f0814d3905492d7d4d0d053105497d19251531160521b60648201526084016109a5565b6000838152600d602052604090205460ff1615613bb05760405162461bcd60e51b815260206004820152602560248201527f53656d6170686f726547726f7570733a2067726f757020616c72656164792065604482015264786973747360d81b60648201526084016109a5565b6000838152600d602052604090819020905163b4bdd11760e01b8152600481019190915260ff831660248201526044810182905273__$4c0484323457fe1a856f46a4759b553fe4$__9063b4bdd1179060640160006040518083038186803b158015613c1b57600080fd5b505af4158015613c2f573d6000803e3d6000fd5b50506040805160ff86168152602081018590528693507fc3082aa494e9088c2c9f0fb62a0b6bd46e6699acb94cfba35be29b95a93f68c892500161367e565b600b80546001600160a01b038381166001600160a01b0319831681179093556040519116919082907f8be0079c531659141344cd1fd0a4f28419497f9722a3daafe3b4186f6b6457e090600090a35050565b816001600160a01b0316836001600160a01b03161415613d225760405162461bcd60e51b815260206004820152601960248201527f4552433732313a20617070726f766520746f2063616c6c65720000000000000060448201526064016109a5565b6001600160a01b03838116600081815260056020908152604080832094871680845294825291829020805460ff191686151590811790915591519182527f17307eab39ab6107e8899845ad3d59bd9653f200f220920489ca2b5937696c31910160405180910390a3505050565b613d9a848484613709565b613da684848484614396565b6118585760405162461bcd60e51b81526004016109a590615880565b606081613de65750506040805180820190915260018152600360fc1b602082015290565b8160005b8115613e105780613dfa816157c6565b9150613e099050600a836158e8565b9150613dea565b60008167ffffffffffffffff811115613e2b57613e2b614e08565b6040519080825280601f01601f191660200182016040528015613e55576020820181803683370190505b5090505b8415610d2657613e6a600183615851565b9150613e77600a866158fc565b613e82906030615868565b60f81b818381518110613e9757613e9761579a565b60200101906001600160f81b031916908160001a905350613eb9600a866158e8565b9450613e59565b6001600160a01b0381166000908152600a602052604090208054600181018255905b50919050565b60006108c1613ef56138b0565b8360405161190160f01b6020820152602281018390526042810182905260009060620160405160208183030381529060405280519060200120905092915050565b6000806000613f47878787876144a0565b91509150613f548161458d565b5095945050505050565b6000848152600c602052604090205460ff1615613fdc5760405162461bcd60e51b815260206004820152603660248201527f53656d6170686f7265436f72653a20796f752063616e6e6f7420757365207468604482015275652073616d65206e756c6c696669657220747769636560501b60648201526084016109a5565b6000613fe787613a7e565b9050816001600160a01b0316635fe8c13b6040518060400160405280866000600881106140165761401661579a565b60200201358152602001866001600881106140335761403361579a565b60200201359052604080516080810182528782013591810191825290819060608201896003602002013581525081526020016040518060400160405280896004600881106140835761408361579a565b60200201358152602001896005600881106140a0576140a061579a565b602002013590529052604080518082019091528088600660200201358152602001886007600881106140d4576140d461579a565b602002013581525060405180608001604052808c81526020018b81526020018781526020018a8152506040518563ffffffff1660e01b815260040161411c9493929190615933565b60006040518083038186803b15801561413457600080fd5b505afa158015614148573d6000803e3d6000fd5b5050505050505050505050565b6001600160a01b0382166141ab5760405162461bcd60e51b815260206004820181905260248201527f4552433732313a206d696e7420746f20746865207a65726f206164647265737360448201526064016109a5565b6141b481613413565b156142015760405162461bcd60e51b815260206004820152601c60248201527f4552433732313a20746f6b656e20616c7265616479206d696e7465640000000060448201526064016109a5565b61420d6000838361438b565b6001600160a01b0382166000908152600360205260408120805460019290614236908490615868565b909155505060008181526002602052604080822080546001600160a01b0319166001600160a01b03861690811790915590518392907fddf252ad1be2c89b69c2b068fc378daa952ba7f163c4a11628f55a4df523b3ef908290a45050565b60006001600160e01b0319821663780e9d6360e01b14806108c157506108c182614748565b600061430e826040518060400160405280602081526020017f5361666545524332303a206c6f772d6c6576656c2063616c6c206661696c6564815250856001600160a01b03166147989092919063ffffffff16565b805190915015610ba5578080602001905181019061432c9190615834565b610ba55760405162461bcd60e51b815260206004820152602a60248201527f5361666545524332303a204552433230206f7065726174696f6e20646964206e6044820152691bdd081cdd58d8d9595960b21b60648201526084016109a5565b610ba58383836147a7565b60006001600160a01b0384163b1561449857604051630a85bd0160e11b81526001600160a01b0385169063150b7a02906143da9033908990889088906004016159b7565b602060405180830381600087803b1580156143f457600080fd5b505af1925050508015614424575060408051601f3d908101601f19168201909252614421918101906159ea565b60015b61447e573d808015614452576040519150601f19603f3d011682016040523d82523d6000602084013e614457565b606091505b5080516144765760405162461bcd60e51b81526004016109a590615880565b805181602001fd5b6001600160e01b031916630a85bd0160e11b149050610d26565b506001610d26565b6000807f7fffffffffffffffffffffffffffffff5d576e7357a4501ddfe92f46681b20a08311156144d75750600090506003614584565b8460ff16601b141580156144ef57508460ff16601c14155b156145005750600090506004614584565b6040805160008082526020820180845289905260ff881692820192909252606081018690526080810185905260019060a0016020604051602081039080840390855afa158015614554573d6000803e3d6000fd5b5050604051601f1901519150506001600160a01b03811661457d57600060019250925050614584565b9150600090505b94509492505050565b60008160048111156145a1576145a1615a07565b14156145aa5750565b60018160048111156145be576145be615a07565b141561460c5760405162461bcd60e51b815260206004820152601860248201527f45434453413a20696e76616c6964207369676e6174757265000000000000000060448201526064016109a5565b600281600481111561462057614620615a07565b141561466e5760405162461bcd60e51b815260206004820152601f60248201527f45434453413a20696e76616c6964207369676e6174757265206c656e6774680060448201526064016109a5565b600381600481111561468257614682615a07565b14156146db5760405162461bcd60e51b815260206004820152602260248201527f45434453413a20696e76616c6964207369676e6174757265202773272076616c604482015261756560f01b60648201526084016109a5565b60048160048111156146ef576146ef615a07565b14156115535760405162461bcd60e51b815260206004820152602260248201527f45434453413a20696e76616c6964207369676e6174757265202776272076616c604482015261756560f01b60648201526084016109a5565b60006001600160e01b031982166380ac58cd60e01b148061477957506001600160e01b03198216635b5e139f60e01b145b806108c157506301ffc9a760e01b6001600160e01b03198316146108c1565b6060610d26848460008561485f565b6001600160a01b038316614802576147fd81600880546000838152600960205260408120829055600182018355919091527ff3f7a9fe364faab93b216da50a3214154f22a0a2b415b23a84c8169e8b636ee30155565b614825565b816001600160a01b0316836001600160a01b031614614825576148258382614990565b6001600160a01b03821661483c57610ba581614a2d565b826001600160a01b0316826001600160a01b031614610ba557610ba58282614adc565b6060824710156148c05760405162461bcd60e51b815260206004820152602660248201527f416464726573733a20696e73756666696369656e742062616c616e636520666f6044820152651c8818d85b1b60d21b60648201526084016109a5565b6001600160a01b0385163b6149175760405162461bcd60e51b815260206004820152601d60248201527f416464726573733a2063616c6c20746f206e6f6e2d636f6e747261637400000060448201526064016109a5565b600080866001600160a01b031685876040516149339190615a1d565b60006040518083038185875af1925050503d8060008114614970576040519150601f19603f3d011682016040523d82523d6000602084013e614975565b606091505b5091509150614985828286614b20565b979650505050505050565b6000600161499d8461167a565b6149a79190615851565b6000838152600760205260409020549091508082146149fa576001600160a01b03841660009081526006602090815260408083208584528252808320548484528184208190558352600790915290208190555b5060009182526007602090815260408084208490556001600160a01b039094168352600681528383209183525290812055565b600854600090614a3f90600190615851565b60008381526009602052604081205460088054939450909284908110614a6757614a6761579a565b906000526020600020015490508060088381548110614a8857614a8861579a565b6000918252602080832090910192909255828152600990915260408082208490558582528120556008805480614ac057614ac0615a39565b6001900381819060005260206000200160009055905550505050565b6000614ae78361167a565b6001600160a01b039093166000908152600660209081526040808320868452825280832085905593825260079052919091209190915550565b60608315614b2f5750816118cb565b825115614b3f5782518084602001fd5b8160405162461bcd60e51b81526004016109a59190614dc0565b828054614b6590615653565b90600052602060002090601f016020900481019282614b875760008555614bcd565b82601f10614ba057805160ff1916838001178555614bcd565b82800160010185558215614bcd579182015b82811115614bcd578251825591602001919060010190614bb2565b50614bd9929150614c7a565b5090565b508054614be990615653565b6000825580601f10614bf9575050565b601f0160209004906000526020600020908101906115539190614c7a565b50805460008255600302906000526020600020908101906115539190614c8f565b50805460008255600402906000526020600020908101906115539190614cc4565b50805460008255600302906000526020600020908101906115539190614d00565b5b80821115614bd95760008155600101614c7b565b80821115614bd95780546001600160a01b0319168155600060018201819055614cbb6002830182614bdd565b50600301614c8f565b80821115614bd95780546001600160a01b031916815560006001820181905560028201819055614cf76003830182614bdd565b50600401614cc4565b80821115614bd95780546001600160a01b0319168155600060018201819055614d2c6002830182614bdd565b50600301614d00565b6001600160e01b03198116811461155357600080fd5b600060208284031215614d5d57600080fd5b81356118cb81614d35565b60005b83811015614d83578181015183820152602001614d6b565b838111156118585750506000910152565b60008151808452614dac816020860160208601614d68565b601f01601f19169290920160200192915050565b6020815260006118cb6020830184614d94565b600060208284031215614de557600080fd5b5035919050565b80356001600160a01b0381168114614e0357600080fd5b919050565b634e487b7160e01b600052604160045260246000fd5b604051601f8201601f1916810167ffffffffffffffff81118282101715614e4757614e47614e08565b604052919050565b600082601f830112614e6057600080fd5b813567ffffffffffffffff811115614e7a57614e7a614e08565b614e8d601f8201601f1916602001614e1e565b818152846020838601011115614ea257600080fd5b816020850160208301376000918101602001919091529392505050565b60008060008060808587031215614ed557600080fd5b614ede85614dec565b93506020850135925060408501359150606085013567ffffffffffffffff811115614f0857600080fd5b614f1487828801614e4f565b91505092959194509250565b60008060408385031215614f3357600080fd5b614f3c83614dec565b946020939093013593505050565b600080600080600060a08688031215614f6257600080fd5b614f6b86614dec565b9450602086013593506040860135925060608601359150608086013567ffffffffffffffff811115614f9c57600080fd5b614fa888828901614e4f565b9150509295509295909350565b60008060008060808587031215614fcb57600080fd5b614fd485614dec565b9350614fe260208601614dec565b925060408501359150606085013567ffffffffffffffff811115614f0857600080fd5b6000806040838503121561501857600080fd5b50508035926020909101359150565b60008060006060848603121561503c57600080fd5b61504584614dec565b925061505360208501614dec565b9150604084013590509250925092565b60006020828403121561507557600080fd5b6118cb82614dec565b6020808252825182820181905260009190848201906040850190845b818110156150b65783518352928401929184019160010161509a565b50909695505050505050565b801515811461155357600080fd5b600080604083850312156150e357600080fd5b6150ec83614dec565b915060208301356150fc816150c2565b809150509250929050565b600082601f83011261511857600080fd5b8135602067ffffffffffffffff82111561513457615134614e08565b8160051b615143828201614e1e565b928352848101820192828101908785111561515d57600080fd5b83870192505b8483101561498557823582529183019190830190615163565b600080600080600060a0868803121561519457600080fd5b61519d86614dec565b94506151ab60208701614dec565b9350604086013567ffffffffffffffff808211156151c857600080fd5b6151d489838a01615107565b945060608801359150808211156151ea57600080fd5b6151f689838a01615107565b9350608088013591508082111561520c57600080fd5b50614fa888828901614e4f565b6001600160a01b03888116825260208201889052861660408201526060810185905260e06080820181905260009061525390830186614d94565b82810360a08401526152658186614d94565b91505082151560c083015298975050505050505050565b60008060006060848603121561529157600080fd5b83359250602084013591506152a860408501614dec565b90509250925092565b600080600080600080600060e0888a0312156152cc57600080fd5b6152d588614dec565b96506152e360208901614dec565b95506040880135945060608801359350608088013560ff8116811461530757600080fd5b9699959850939692959460a0840135945060c09093013592915050565b6000806040838503121561533757600080fd5b61534083614dec565b915061534e60208401614dec565b90509250929050565b60008060008060008060006101c080898b03121561537457600080fd5b61537d89614dec565b975060208901359650604089013567ffffffffffffffff808211156153a157600080fd5b6153ad8c838d01614e4f565b975060608b01359150808211156153c357600080fd5b506153d08b828c01614e4f565b9550506080890135935060a0890135925089818a0111156153f057600080fd5b5060c08801905092959891949750929550565b600080600080600060a0868803121561541b57600080fd5b61542486614dec565b945061543260208701614dec565b93506040860135925060608601359150608086013567ffffffffffffffff811115614f9c57600080fd5b600081518084526020808501808196508360051b8101915082860160005b858110156154cd578284038952815180516001600160a01b0316855285810151868601526040908101516060918601829052906154b981870183614d94565b9a87019a955050509084019060010161547a565b5091979650505050505050565b600081518084526020808501808196508360051b8101915082860160005b858110156154cd578284038952815180516001600160a01b0316855285810151868601526040808201519086015260609081015160809186018290529061554181870183614d94565b9a87019a95505050908401906001016154f8565b6020815261556f6020820183516001600160a01b03169052565b602082015160408201526000604083015161559560608401826001600160a01b03169052565b506060830151608083015260808301516101408060a08501526155bc610160850183614d94565b915060a0850151601f19808685030160c08701526155da8483614d94565b935060c087015191506155f160e087018315159052565b60e0870151915061010081878603018188015261560e858461545c565b94508088015192505061012081878603018188015261562d85846154da565b908801518782039092018488015293509050615649838261545c565b9695505050505050565b600181811c9082168061566757607f821691505b60208210811415613ee257634e487b7160e01b600052602260045260246000fd5b602080825260159082015274109d5b991b1948191bd95cc81b9bdd08195e1a5cdd605a1b604082015260600190565b60018060a01b03841681528260208201526060604082015260006156de6060830184614d94565b95945050505050565b6001600160a01b0394851681529290931660208301526040820152606081019190915260a06080820181905260009082015260c00190565b60018060a01b03851681528360208201528260408201526080606082015260006156496080830184614d94565b6020808252602e908201527f4552433732313a2063616c6c6572206973206e6f7420746f6b656e206f776e6560408201526d1c881b9bdc88185c1c1c9bdd995960921b606082015260800190565b634e487b7160e01b600052603260045260246000fd5b634e487b7160e01b600052601160045260246000fd5b60006000198214156157da576157da6157b0565b5060010190565b6001600160a01b039384168152919092166020820152604081019190915260600190565b60008351615817818460208801614d68565b83519083019061582b818360208801614d68565b01949350505050565b60006020828403121561584657600080fd5b81516118cb816150c2565b600082821015615863576158636157b0565b500390565b6000821982111561587b5761587b6157b0565b500190565b60208082526032908201527f4552433732313a207472616e7366657220746f206e6f6e20455243373231526560408201527131b2b4bb32b91034b6b83632b6b2b73a32b960711b606082015260800190565b634e487b7160e01b600052601260045260246000fd5b6000826158f7576158f76158d2565b500490565b60008261590b5761590b6158d2565b500690565b8060005b6002811015611858578151845260209384019390910190600101615914565b61018081016159428287615910565b60408083018660005b60028110156159725761595f838351615910565b918301916020919091019060010161594b565b5050505061598360c0830185615910565b61010082018360005b60048110156159ab57815183526020928301929091019060010161598c565b50505095945050505050565b6001600160a01b038581168252841660208201526040810183905260806060820181905260009061564990830184614d94565b6000602082840312156159fc57600080fd5b81516118cb81614d35565b634e487b7160e01b600052602160045260246000fd5b60008251615a2f818460208701614d68565b9190910192915050565b634e487b7160e01b600052603160045260246000fdfea264697066735822122053195c298bf1d96691156d29df75932363a3890ab16060002aa107a1a197af0064736f6c63430008090033",
  "linkReferences": {
    "@zk-kit/incremental-merkle-tree.sol/contracts/IncrementalBinaryTree.sol": {
      "IncrementalBinaryTree": [
        {
          "length": 20,
          "start": 14951
        },
        {
          "length": 20,
          "start": 16484
        }
      ]
    }
  },
  "deployedLinkReferences": {
    "@zk-kit/incremental-merkle-tree.sol/contracts/IncrementalBinaryTree.sol": {
      "IncrementalBinaryTree": [
        {
          "length": 20,
          "start": 13801
        },
        {
          "length": 20,
          "start": 15334
        }
      ]
    }
  }
}