{
  "_format": "hh-sol-artifact-1",
  "contractName": "DosaNFT",
  "sourceName": "contracts/DosaNFT.sol",
  "abi": [
    {
      "inputs": [],
      "stateMutability": "nonpayable",
      "type": "constructor"
    },
    {
      "anonymous": false,
      "inputs": [
        {
          "indexed": true,
          "internalType": "address",
          "name": "owner",
          "type": "address"
        },
        {
          "indexed": true,
          "internalType": "address",
          "name": "approved",
          "type": "address"
        },
        {
          "indexed": true,
          "internalType": "uint256",
          "name": "tokenId",
          "type": "uint256"
        }
      ],
      "name": "Approval",
      "type": "event"
    },
    {
      "anonymous": false,
      "inputs": [
        {
          "indexed": true,
          "internalType": "address",
          "name": "owner",
          "type": "address"
        },
        {
          "indexed": true,
          "internalType": "address",
          "name": "operator",
          "type": "address"
        },
        {
          "indexed": false,
          "internalType": "bool",
          "name": "approved",
          "type": "bool"
        }
      ],
      "name": "ApprovalForAll",
      "type": "event"
    },
    {
      "anonymous": false,
      "inputs": [
        {
          "indexed": true,
          "internalType": "address",
          "name": "previousOwner",
          "type": "address"
        },
        {
          "indexed": true,
          "internalType": "address",
          "name": "newOwner",
          "type": "address"
        }
      ],
      "name": "OwnershipTransferred",
      "type": "event"
    },
    {
      "anonymous": false,
      "inputs": [
        {
          "indexed": false,
          "internalType": "address",
          "name": "account",
          "type": "address"
        }
      ],
      "name": "Paused",
      "type": "event"
    },
    {
      "anonymous": false,
      "inputs": [
        {
          "indexed": true,
          "internalType": "address",
          "name": "from",
          "type": "address"
        },
        {
          "indexed": true,
          "internalType": "address",
          "name": "to",
          "type": "address"
        },
        {
          "indexed": true,
          "internalType": "uint256",
          "name": "tokenId",
          "type": "uint256"
        }
      ],
      "name": "Transfer",
      "type": "event"
    },
    {
      "anonymous": false,
      "inputs": [
        {
          "indexed": false,
          "internalType": "address",
          "name": "account",
          "type": "address"
        }
      ],
      "name": "Unpaused",
      "type": "event"
    },
    {
      "inputs": [
        {
          "internalType": "address",
          "name": "to",
          "type": "address"
        },
        {
          "internalType": "uint256",
          "name": "tokenId",
          "type": "uint256"
        }
      ],
      "name": "approve",
      "outputs": [],
      "stateMutability": "nonpayable",
      "type": "function"
    },
    {
      "inputs": [
        {
          "internalType": "address",
          "name": "owner",
          "type": "address"
        }
      ],
      "name": "balanceOf",
      "outputs": [
        {
          "internalType": "uint256",
          "name": "",
          "type": "uint256"
        }
      ],
      "stateMutability": "view",
      "type": "function"
    },
    {
      "inputs": [
        {
          "internalType": "uint256",
          "name": "tokenId",
          "type": "uint256"
        }
      ],
      "name": "burn",
      "outputs": [],
      "stateMutability": "nonpayable",
      "type": "function"
    },
    {
      "inputs": [
        {
          "internalType": "uint256",
          "name": "tokenId",
          "type": "uint256"
        }
      ],
      "name": "getApproved",
      "outputs": [
        {
          "internalType": "address",
          "name": "",
          "type": "address"
        }
      ],
      "stateMutability": "view",
      "type": "function"
    },
    {
      "inputs": [
        {
          "internalType": "address",
          "name": "owner",
          "type": "address"
        },
        {
          "internalType": "address",
          "name": "operator",
          "type": "address"
        }
      ],
      "name": "isApprovedForAll",
      "outputs": [
        {
          "internalType": "bool",
          "name": "",
          "type": "bool"
        }
      ],
      "stateMutability": "view",
      "type": "function"
    },
    {
      "inputs": [],
      "name": "name",
      "outputs": [
        {
          "internalType": "string",
          "name": "",
          "type": "string"
        }
      ],
      "stateMutability": "view",
      "type": "function"
    },
    {
      "inputs": [],
      "name": "owner",
      "outputs": [
        {
          "internalType": "address",
          "name": "",
          "type": "address"
        }
      ],
      "stateMutability": "view",
      "type": "function"
    },
    {
      "inputs": [
        {
          "internalType": "uint256",
          "name": "tokenId",
          "type": "uint256"
        }
      ],
      "name": "ownerOf",
      "outputs": [
        {
          "internalType": "address",
          "name": "",
          "type": "address"
        }
      ],
      "stateMutability": "view",
      "type": "function"
    },
    {
      "inputs": [],
      "name": "pause",
      "outputs": [],
      "stateMutability": "nonpayable",
      "type": "function"
    },
    {
      "inputs": [],
      "name": "paused",
      "outputs": [
        {
          "internalType": "bool",
          "name": "",
          "type": "bool"
        }
      ],
      "stateMutability": "view",
      "type": "function"
    },
    {
      "inputs": [],
      "name": "renounceOwnership",
      "outputs": [],
      "stateMutability": "nonpayable",
      "type": "function"
    },
    {
      "inputs": [
        {
          "internalType": "address",
          "name": "to",
          "type": "address"
        },
        {
          "internalType": "string",
          "name": "uri",
          "type": "string"
        }
      ],
      "name": "safeMint",
      "outputs": [],
      "stateMutability": "nonpayable",
      "type": "function"
    },
    {
      "inputs": [
        {
          "internalType": "address",
          "name": "from",
          "type": "address"
        },
        {
          "internalType": "address",
          "name": "to",
          "type": "address"
        },
        {
          "internalType": "uint256",
          "name": "tokenId",
          "type": "uint256"
        }
      ],
      "name": "safeTransferFrom",
      "outputs": [],
      "stateMutability": "nonpayable",
      "type": "function"
    },
    {
      "inputs": [
        {
          "internalType": "address",
          "name": "from",
          "type": "address"
        },
        {
          "internalType": "address",
          "name": "to",
          "type": "address"
        },
        {
          "internalType": "uint256",
          "name": "tokenId",
          "type": "uint256"
        },
        {
          "internalType": "bytes",
          "name": "data",
          "type": "bytes"
        }
      ],
      "name": "safeTransferFrom",
      "outputs": [],
      "stateMutability": "nonpayable",
      "type": "function"
    },
    {
      "inputs": [
        {
          "internalType": "address",
          "name": "operator",
          "type": "address"
        },
        {
          "internalType": "bool",
          "name": "approved",
          "type": "bool"
        }
      ],
      "name": "setApprovalForAll",
      "outputs": [],
      "stateMutability": "nonpayable",
      "type": "function"
    },
    {
      "inputs": [
        {
          "internalType": "bytes4",
          "name": "interfaceId",
          "type": "bytes4"
        }
      ],
      "name": "supportsInterface",
      "outputs": [
        {
          "internalType": "bool",
          "name": "",
          "type": "bool"
        }
      ],
      "stateMutability": "view",
      "type": "function"
    },
    {
      "inputs": [],
      "name": "symbol",
      "outputs": [
        {
          "internalType": "string",
          "name": "",
          "type": "string"
        }
      ],
      "stateMutability": "view",
      "type": "function"
    },
    {
      "inputs": [
        {
          "internalType": "uint256",
          "name": "index",
          "type": "uint256"
        }
      ],
      "name": "tokenByIndex",
      "outputs": [
        {
          "internalType": "uint256",
          "name": "",
          "type": "uint256"
        }
      ],
      "stateMutability": "view",
      "type": "function"
    },
    {
      "inputs": [
        {
          "internalType": "address",
          "name": "owner",
          "type": "address"
        },
        {
          "internalType": "uint256",
          "name": "index",
          "type": "uint256"
        }
      ],
      "name": "tokenOfOwnerByIndex",
      "outputs": [
        {
          "internalType": "uint256",
          "name": "",
          "type": "uint256"
        }
      ],
      "stateMutability": "view",
      "type": "function"
    },
    {
      "inputs": [
        {
          "internalType": "uint256",
          "name": "tokenId",
          "type": "uint256"
        }
      ],
      "name": "tokenURI",
      "outputs": [
        {
          "internalType": "string",
          "name": "",
          "type": "string"
        }
      ],
      "stateMutability": "view",
      "type": "function"
    },
    {
      "inputs": [],
      "name": "totalSupply",
      "outputs": [
        {
          "internalType": "uint256",
          "name": "",
          "type": "uint256"
        }
      ],
      "stateMutability": "view",
      "type": "function"
    },
    {
      "inputs": [
        {
          "internalType": "address",
          "name": "from",
          "type": "address"
        },
        {
          "internalType": "address",
          "name": "to",
          "type": "address"
        },
        {
          "internalType": "uint256",
          "name": "tokenId",
          "type": "uint256"
        }
      ],
      "name": "transferFrom",
      "outputs": [],
      "stateMutability": "nonpayable",
      "type": "function"
    },
    {
      "inputs": [
        {
          "internalType": "address",
          "name": "newOwner",
          "type": "address"
        }
      ],
      "name": "transferOwnership",
      "outputs": [],
      "stateMutability": "nonpayable",
      "type": "function"
    },
    {
      "inputs": [],
      "name": "unpause",
      "outputs": [],
      "stateMutability": "nonpayable",
      "type": "function"
    }
  ],
  "bytecode": "0x60806040523480156200001157600080fd5b50604080518082018252600780825266111bdcd853919560ca1b6020808401828152855180870190965292855284015281519192916200005491600091620000e2565b5080516200006a906001906020840190620000e2565b5050600b805460ff1916905550620000823362000088565b620001c5565b600b80546001600160a01b03838116610100818102610100600160a81b031985161790945560405193909204169182907f8be0079c531659141344cd1fd0a4f28419497f9722a3daafe3b4186f6b6457e090600090a35050565b828054620000f09062000188565b90600052602060002090601f0160209004810192826200011457600085556200015f565b82601f106200012f57805160ff19168380011785556200015f565b828001600101855582156200015f579182015b828111156200015f57825182559160200191906001019062000142565b506200016d92915062000171565b5090565b5b808211156200016d576000815560010162000172565b600181811c908216806200019d57607f821691505b60208210811415620001bf57634e487b7160e01b600052602260045260246000fd5b50919050565b611eab80620001d56000396000f3fe608060405234801561001057600080fd5b50600436106101585760003560e01c80636352211e116100c3578063a22cb4651161007c578063a22cb465146102b2578063b88d4fde146102c5578063c87b56dd146102d8578063d204c45e146102eb578063e985e9c5146102fe578063f2fde38b1461033a57600080fd5b80636352211e1461025e57806370a0823114610271578063715018a6146102845780638456cb591461028c5780638da5cb5b1461029457806395d89b41146102aa57600080fd5b80632f745c59116101155780632f745c59146101ff5780633f4ba83a1461021257806342842e0e1461021a57806342966c681461022d5780634f6ccce7146102405780635c975abb1461025357600080fd5b806301ffc9a71461015d57806306fdde0314610185578063081812fc1461019a578063095ea7b3146101c557806318160ddd146101da57806323b872dd146101ec575b600080fd5b61017061016b366004611930565b61034d565b60405190151581526020015b60405180910390f35b61018d61035e565b60405161017c91906119a5565b6101ad6101a83660046119b8565b6103f0565b6040516001600160a01b03909116815260200161017c565b6101d86101d33660046119ed565b610417565b005b6008545b60405190815260200161017c565b6101d86101fa366004611a17565b610532565b6101de61020d3660046119ed565b610564565b6101d86105fa565b6101d8610228366004611a17565b61060c565b6101d861023b3660046119b8565b610627565b6101de61024e3660046119b8565b610658565b600b5460ff16610170565b6101ad61026c3660046119b8565b6106eb565b6101de61027f366004611a53565b61074b565b6101d86107d1565b6101d86107e3565b600b5461010090046001600160a01b03166101ad565b61018d6107f3565b6101d86102c0366004611a6e565b610802565b6101d86102d3366004611b36565b610811565b61018d6102e63660046119b8565b610849565b6101d86102f9366004611bb2565b610854565b61017061030c366004611c14565b6001600160a01b03918216600090815260056020908152604080832093909416825291909152205460ff1690565b6101d8610348366004611a53565b61088b565b600061035882610901565b92915050565b60606000805461036d90611c47565b80601f016020809104026020016040519081016040528092919081815260200182805461039990611c47565b80156103e65780601f106103bb576101008083540402835291602001916103e6565b820191906000526020600020905b8154815290600101906020018083116103c957829003601f168201915b5050505050905090565b60006103fb82610926565b506000908152600460205260409020546001600160a01b031690565b6000610422826106eb565b9050806001600160a01b0316836001600160a01b031614156104955760405162461bcd60e51b815260206004820152602160248201527f4552433732313a20617070726f76616c20746f2063757272656e74206f776e656044820152603960f91b60648201526084015b60405180910390fd5b336001600160a01b03821614806104b157506104b1813361030c565b6105235760405162461bcd60e51b815260206004820152603e60248201527f4552433732313a20617070726f76652063616c6c6572206973206e6f7420746f60448201527f6b656e206f776e6572206e6f7220617070726f76656420666f7220616c6c0000606482015260840161048c565b61052d8383610985565b505050565b61053d335b826109f3565b6105595760405162461bcd60e51b815260040161048c90611c82565b61052d838383610a72565b600061056f8361074b565b82106105d15760405162461bcd60e51b815260206004820152602b60248201527f455243373231456e756d657261626c653a206f776e657220696e646578206f7560448201526a74206f6620626f756e647360a81b606482015260840161048c565b506001600160a01b03919091166000908152600660209081526040808320938352929052205490565b610602610c19565b61060a610c79565b565b61052d83838360405180602001604052806000815250610811565b61063033610537565b61064c5760405162461bcd60e51b815260040161048c90611c82565b61065581610ccb565b50565b600061066360085490565b82106106c65760405162461bcd60e51b815260206004820152602c60248201527f455243373231456e756d657261626c653a20676c6f62616c20696e646578206f60448201526b7574206f6620626f756e647360a01b606482015260840161048c565b600882815481106106d9576106d9611cd0565b90600052602060002001549050919050565b6000818152600260205260408120546001600160a01b0316806103585760405162461bcd60e51b8152602060048201526018602482015277115490cdcc8c4e881a5b9d985b1a59081d1bdad95b88125160421b604482015260640161048c565b60006001600160a01b0382166107b55760405162461bcd60e51b815260206004820152602960248201527f4552433732313a2061646472657373207a65726f206973206e6f7420612076616044820152683634b21037bbb732b960b91b606482015260840161048c565b506001600160a01b031660009081526003602052604090205490565b6107d9610c19565b61060a6000610cd4565b6107eb610c19565b61060a610d2e565b60606001805461036d90611c47565b61080d338383610d6b565b5050565b61081b33836109f3565b6108375760405162461bcd60e51b815260040161048c90611c82565b61084384848484610e3a565b50505050565b606061035882610e6d565b61085c610c19565b6000610867600c5490565b9050610877600c80546001019055565b6108818382610f76565b61052d8183610f90565b610893610c19565b6001600160a01b0381166108f85760405162461bcd60e51b815260206004820152602660248201527f4f776e61626c653a206e6577206f776e657220697320746865207a65726f206160448201526564647265737360d01b606482015260840161048c565b61065581610cd4565b60006001600160e01b0319821663780e9d6360e01b148061035857506103588261102a565b6000818152600260205260409020546001600160a01b03166106555760405162461bcd60e51b8152602060048201526018602482015277115490cdcc8c4e881a5b9d985b1a59081d1bdad95b88125160421b604482015260640161048c565b600081815260046020526040902080546001600160a01b0319166001600160a01b03841690811790915581906109ba826106eb565b6001600160a01b03167f8c5be1e5ebec7d5bd14f71427d1e84f3dd0314c0f7b2291e5b200ac8c7c3b92560405160405180910390a45050565b6000806109ff836106eb565b9050806001600160a01b0316846001600160a01b03161480610a4657506001600160a01b0380821660009081526005602090815260408083209388168352929052205460ff165b80610a6a5750836001600160a01b0316610a5f846103f0565b6001600160a01b0316145b949350505050565b826001600160a01b0316610a85826106eb565b6001600160a01b031614610ae95760405162461bcd60e51b815260206004820152602560248201527f4552433732313a207472616e736665722066726f6d20696e636f72726563742060448201526437bbb732b960d91b606482015260840161048c565b6001600160a01b038216610b4b5760405162461bcd60e51b8152602060048201526024808201527f4552433732313a207472616e7366657220746f20746865207a65726f206164646044820152637265737360e01b606482015260840161048c565b610b5683838361107a565b610b61600082610985565b6001600160a01b0383166000908152600360205260408120805460019290610b8a908490611cfc565b90915550506001600160a01b0382166000908152600360205260408120805460019290610bb8908490611d13565b909155505060008181526002602052604080822080546001600160a01b0319166001600160a01b0386811691821790925591518493918716917fddf252ad1be2c89b69c2b068fc378daa952ba7f163c4a11628f55a4df523b3ef91a4505050565b600b546001600160a01b0361010090910416331461060a5760405162461bcd60e51b815260206004820181905260248201527f4f776e61626c653a2063616c6c6572206973206e6f7420746865206f776e6572604482015260640161048c565b610c8161108d565b600b805460ff191690557f5db9ee0a495bf2e6ff9c91a7834c1ba4fdd244a5e8aa4e537bd38aeae4b073aa335b6040516001600160a01b03909116815260200160405180910390a1565b610655816110d6565b600b80546001600160a01b03838116610100818102610100600160a81b031985161790945560405193909204169182907f8be0079c531659141344cd1fd0a4f28419497f9722a3daafe3b4186f6b6457e090600090a35050565b610d36611116565b600b805460ff191660011790557f62e78cea01bee320cd4e420270b5ea74000d11b0c9f74754ebdbfc544b05a258610cae3390565b816001600160a01b0316836001600160a01b03161415610dcd5760405162461bcd60e51b815260206004820152601960248201527f4552433732313a20617070726f766520746f2063616c6c657200000000000000604482015260640161048c565b6001600160a01b03838116600081815260056020908152604080832094871680845294825291829020805460ff191686151590811790915591519182527f17307eab39ab6107e8899845ad3d59bd9653f200f220920489ca2b5937696c31910160405180910390a3505050565b610e45848484610a72565b610e518484848461115c565b6108435760405162461bcd60e51b815260040161048c90611d2b565b6060610e7882610926565b6000828152600a602052604081208054610e9190611c47565b80601f0160208091040260200160405190810160405280929190818152602001828054610ebd90611c47565b8015610f0a5780601f10610edf57610100808354040283529160200191610f0a565b820191906000526020600020905b815481529060010190602001808311610eed57829003601f168201915b505050505090506000610f2860408051602081019091526000815290565b9050805160001415610f3b575092915050565b815115610f6d578082604051602001610f55929190611d7d565b60405160208183030381529060405292505050919050565b610a6a84611269565b61080d8282604051806020016040528060008152506112dd565b6000828152600260205260409020546001600160a01b031661100b5760405162461bcd60e51b815260206004820152602e60248201527f45524337323155524953746f726167653a2055524920736574206f66206e6f6e60448201526d32bc34b9ba32b73a103a37b5b2b760911b606482015260840161048c565b6000828152600a60209081526040909120825161052d9284019061184b565b60006001600160e01b031982166380ac58cd60e01b148061105b57506001600160e01b03198216635b5e139f60e01b145b8061035857506301ffc9a760e01b6001600160e01b0319831614610358565b611082611116565b61052d838383611310565b600b5460ff1661060a5760405162461bcd60e51b815260206004820152601460248201527314185d5cd8589b194e881b9bdd081c185d5cd95960621b604482015260640161048c565b6110df816113c8565b6000818152600a6020526040902080546110f890611c47565b159050610655576000818152600a60205260408120610655916118cf565b600b5460ff161561060a5760405162461bcd60e51b815260206004820152601060248201526f14185d5cd8589b194e881c185d5cd95960821b604482015260640161048c565b60006001600160a01b0384163b1561125e57604051630a85bd0160e11b81526001600160a01b0385169063150b7a02906111a0903390899088908890600401611dac565b602060405180830381600087803b1580156111ba57600080fd5b505af19250505080156111ea575060408051601f3d908101601f191682019092526111e791810190611de9565b60015b611244573d808015611218576040519150601f19603f3d011682016040523d82523d6000602084013e61121d565b606091505b50805161123c5760405162461bcd60e51b815260040161048c90611d2b565b805181602001fd5b6001600160e01b031916630a85bd0160e11b149050610a6a565b506001949350505050565b606061127482610926565b600061128b60408051602081019091526000815290565b905060008151116112ab57604051806020016040528060008152506112d6565b806112b58461146f565b6040516020016112c6929190611d7d565b6040516020818303038152906040525b9392505050565b6112e7838361156d565b6112f4600084848461115c565b61052d5760405162461bcd60e51b815260040161048c90611d2b565b6001600160a01b03831661136b5761136681600880546000838152600960205260408120829055600182018355919091527ff3f7a9fe364faab93b216da50a3214154f22a0a2b415b23a84c8169e8b636ee30155565b61138e565b816001600160a01b0316836001600160a01b03161461138e5761138e83826116bb565b6001600160a01b0382166113a55761052d81611758565b826001600160a01b0316826001600160a01b03161461052d5761052d8282611807565b60006113d3826106eb565b90506113e18160008461107a565b6113ec600083610985565b6001600160a01b0381166000908152600360205260408120805460019290611415908490611cfc565b909155505060008281526002602052604080822080546001600160a01b0319169055518391906001600160a01b038416907fddf252ad1be2c89b69c2b068fc378daa952ba7f163c4a11628f55a4df523b3ef908390a45050565b6060816114935750506040805180820190915260018152600360fc1b602082015290565b8160005b81156114bd57806114a781611e06565b91506114b69050600a83611e37565b9150611497565b60008167ffffffffffffffff8111156114d8576114d8611aaa565b6040519080825280601f01601f191660200182016040528015611502576020820181803683370190505b5090505b8415610a6a57611517600183611cfc565b9150611524600a86611e4b565b61152f906030611d13565b60f81b81838151811061154457611544611cd0565b60200101906001600160f81b031916908160001a905350611566600a86611e37565b9450611506565b6001600160a01b0382166115c35760405162461bcd60e51b815260206004820181905260248201527f4552433732313a206d696e7420746f20746865207a65726f2061646472657373604482015260640161048c565b6000818152600260205260409020546001600160a01b0316156116285760405162461bcd60e51b815260206004820152601c60248201527f4552433732313a20746f6b656e20616c7265616479206d696e74656400000000604482015260640161048c565b6116346000838361107a565b6001600160a01b038216600090815260036020526040812080546001929061165d908490611d13565b909155505060008181526002602052604080822080546001600160a01b0319166001600160a01b03861690811790915590518392907fddf252ad1be2c89b69c2b068fc378daa952ba7f163c4a11628f55a4df523b3ef908290a45050565b600060016116c88461074b565b6116d29190611cfc565b600083815260076020526040902054909150808214611725576001600160a01b03841660009081526006602090815260408083208584528252808320548484528184208190558352600790915290208190555b5060009182526007602090815260408084208490556001600160a01b039094168352600681528383209183525290812055565b60085460009061176a90600190611cfc565b6000838152600960205260408120546008805493945090928490811061179257611792611cd0565b9060005260206000200154905080600883815481106117b3576117b3611cd0565b60009182526020808320909101929092558281526009909152604080822084905585825281205560088054806117eb576117eb611e5f565b6001900381819060005260206000200160009055905550505050565b60006118128361074b565b6001600160a01b039093166000908152600660209081526040808320868452825280832085905593825260079052919091209190915550565b82805461185790611c47565b90600052602060002090601f01602090048101928261187957600085556118bf565b82601f1061189257805160ff19168380011785556118bf565b828001600101855582156118bf579182015b828111156118bf5782518255916020019190600101906118a4565b506118cb929150611905565b5090565b5080546118db90611c47565b6000825580601f106118eb575050565b601f01602090049060005260206000209081019061065591905b5b808211156118cb5760008155600101611906565b6001600160e01b03198116811461065557600080fd5b60006020828403121561194257600080fd5b81356112d68161191a565b60005b83811015611968578181015183820152602001611950565b838111156108435750506000910152565b6000815180845261199181602086016020860161194d565b601f01601f19169290920160200192915050565b6020815260006112d66020830184611979565b6000602082840312156119ca57600080fd5b5035919050565b80356001600160a01b03811681146119e857600080fd5b919050565b60008060408385031215611a0057600080fd5b611a09836119d1565b946020939093013593505050565b600080600060608486031215611a2c57600080fd5b611a35846119d1565b9250611a43602085016119d1565b9150604084013590509250925092565b600060208284031215611a6557600080fd5b6112d6826119d1565b60008060408385031215611a8157600080fd5b611a8a836119d1565b915060208301358015158114611a9f57600080fd5b809150509250929050565b634e487b7160e01b600052604160045260246000fd5b600067ffffffffffffffff80841115611adb57611adb611aaa565b604051601f8501601f19908116603f01168101908282118183101715611b0357611b03611aaa565b81604052809350858152868686011115611b1c57600080fd5b858560208301376000602087830101525050509392505050565b60008060008060808587031215611b4c57600080fd5b611b55856119d1565b9350611b63602086016119d1565b925060408501359150606085013567ffffffffffffffff811115611b8657600080fd5b8501601f81018713611b9757600080fd5b611ba687823560208401611ac0565b91505092959194509250565b60008060408385031215611bc557600080fd5b611bce836119d1565b9150602083013567ffffffffffffffff811115611bea57600080fd5b8301601f81018513611bfb57600080fd5b611c0a85823560208401611ac0565b9150509250929050565b60008060408385031215611c2757600080fd5b611c30836119d1565b9150611c3e602084016119d1565b90509250929050565b600181811c90821680611c5b57607f821691505b60208210811415611c7c57634e487b7160e01b600052602260045260246000fd5b50919050565b6020808252602e908201527f4552433732313a2063616c6c6572206973206e6f7420746f6b656e206f776e6560408201526d1c881b9bdc88185c1c1c9bdd995960921b606082015260800190565b634e487b7160e01b600052603260045260246000fd5b634e487b7160e01b600052601160045260246000fd5b600082821015611d0e57611d0e611ce6565b500390565b60008219821115611d2657611d26611ce6565b500190565b60208082526032908201527f4552433732313a207472616e7366657220746f206e6f6e20455243373231526560408201527131b2b4bb32b91034b6b83632b6b2b73a32b960711b606082015260800190565b60008351611d8f81846020880161194d565b835190830190611da381836020880161194d565b01949350505050565b6001600160a01b0385811682528416602082015260408101839052608060608201819052600090611ddf90830184611979565b9695505050505050565b600060208284031215611dfb57600080fd5b81516112d68161191a565b6000600019821415611e1a57611e1a611ce6565b5060010190565b634e487b7160e01b600052601260045260246000fd5b600082611e4657611e46611e21565b500490565b600082611e5a57611e5a611e21565b500690565b634e487b7160e01b600052603160045260246000fdfea264697066735822122000970c61f3bc683a666454d18148d085479c6d95ef61904ab9f7be718709c19a64736f6c63430008090033",
  "linkReferences": {},
  "deployedLinkReferences": {}
}