{
  "_format": "hh-sol-artifact-1",
  "contractName": "Greeters",
  "sourceName": "contracts/Greeters.sol",
  "abi": [
    {
      "inputs": [
        {
          "internalType": "uint256",
          "name": "_greeters",
          "type": "uint256"
        },
        {
          "internalType": "address",
          "name": "_verifier",
          "type": "address"
        }
      ],
      "stateMutability": "nonpayable",
      "type": "constructor"
    },
    {
      "anonymous": false,
      "inputs": [
        {
          "indexed": false,
          "internalType": "bytes32",
          "name": "greeting",
          "type": "bytes32"
        }
      ],
      "name": "NewGreeting",
      "type": "event"
    },
    {
      "anonymous": false,
      "inputs": [
        {
          "indexed": false,
          "internalType": "uint256",
          "name": "nullifierHash",
          "type": "uint256"
        }
      ],
      "name": "NullifierHashAdded",
      "type": "event"
    },
    {
      "inputs": [
        {
          "internalType": "bytes32",
          "name": "_greeting",
          "type": "bytes32"
        },
        {
          "internalType": "uint256",
          "name": "_nullifierHash",
          "type": "uint256"
        },
        {
          "internalType": "uint256[8]",
          "name": "_proof",
          "type": "uint256[8]"
        }
      ],
      "name": "greet",
      "outputs": [],
      "stateMutability": "nonpayable",
      "type": "function"
    },
    {
      "inputs": [],
      "name": "greeters",
      "outputs": [
        {
          "internalType": "uint256",
          "name": "",
          "type": "uint256"
        }
      ],
      "stateMutability": "view",
      "type": "function"
    },
    {
      "inputs": [],
      "name": "verifier",
      "outputs": [
        {
          "internalType": "contract IVerifier",
          "name": "",
          "type": "address"
        }
      ],
      "stateMutability": "view",
      "type": "function"
    }
  ],
  "bytecode": "0x608060405234801561001057600080fd5b5060405161054b38038061054b83398101604081905261002f91610059565b600191909155600280546001600160a01b0319166001600160a01b03909216919091179055610096565b6000806040838503121561006c57600080fd5b825160208401519092506001600160a01b038116811461008b57600080fd5b809150509250929050565b6104a6806100a56000396000f3fe608060405234801561001057600080fd5b50600436106100415760003560e01c80632b7ac3f31461004657806387139a9414610076578063f8fc92a31461008d575b600080fd5b600254610059906001600160a01b031681565b6040516001600160a01b0390911681526020015b60405180910390f35b61007f60015481565b60405190815260200161006d565b6100a061009b36600461034b565b6100a2565b005b6001546002546100c29185918590829086906001600160a01b0316610119565b6100e1826000908152602081905260409020805460ff19166001179055565b6040518381527fdca4fe235351d51f8e3444599c9a1afc6d12397dcdc4fd5df11bb6cfe0eb5a779060200160405180910390a1505050565b60008481526020819052604090205460ff161561019b5760405162461bcd60e51b815260206004820152603660248201527f53656d6170686f7265436f72653a20796f752063616e6e6f7420757365207468604482015275652073616d65206e756c6c696669657220747769636560501b606482015260840160405180910390fd5b60006101a687610314565b9050816001600160a01b0316635fe8c13b6040518060400160405280866000600881106101d5576101d561038a565b60200201358152602001866001600881106101f2576101f261038a565b60200201359052604080516080810182528782013591810191825290819060608201896003602002013581525081526020016040518060400160405280896004600881106102425761024261038a565b602002013581526020018960056008811061025f5761025f61038a565b602002013590529052604080518082019091528088600660200201358152602001886007600881106102935761029361038a565b602002013581525060405180608001604052808c81526020018b81526020018781526020018a8152506040518563ffffffff1660e01b81526004016102db94939291906103c9565b60006040518083038186803b1580156102f357600080fd5b505afa158015610307573d6000803e3d6000fd5b5050505050505050505050565b600060088260405160200161032b91815260200190565b60408051601f198184030181529190528051602090910120901c92915050565b600080600061014080858703121561036257600080fd5b843593506020850135925085818601111561037c57600080fd5b506040840190509250925092565b634e487b7160e01b600052603260045260246000fd5b8060005b60028110156103c35781518452602093840193909101906001016103a4565b50505050565b61018081016103d882876103a0565b60408083018660005b60028082106103f0575061042b565b82518460005b838110156104145782518252602092830192909101906001016103f6565b5050509284019250602091909101906001016103e1565b5050505061043c60c08301856103a0565b61010082018360005b6004811015610464578151835260209283019290910190600101610445565b5050509594505050505056fea264697066735822122028fcee5e55162f439634726dcad5ef1de8bc08205235a1bb2826b03743fab3c464736f6c63430008090033",
  "linkReferences": {},
  "deployedLinkReferences": {}
}